{
	"smartcontract.sol": {
		"XYZ": {
			"abi": [
				{
					"anonymous": false,
					"inputs": [
						{
							"indexed": false,
							"internalType": "uint256",
							"name": "productID",
							"type": "uint256"
						},
						{
							"indexed": false,
							"internalType": "address",
							"name": "buyer",
							"type": "address"
						}
					],
					"name": "bought",
					"type": "event"
				},
				{
					"anonymous": false,
					"inputs": [
						{
							"indexed": false,
							"internalType": "uint256",
							"name": "productID",
							"type": "uint256"
						}
					],
					"name": "delivered",
					"type": "event"
				},
				{
					"anonymous": false,
					"inputs": [
						{
							"indexed": false,
							"internalType": "string",
							"name": "item",
							"type": "string"
						},
						{
							"indexed": false,
							"internalType": "uint256",
							"name": "productID",
							"type": "uint256"
						},
						{
							"indexed": false,
							"internalType": "address",
							"name": "seller",
							"type": "address"
						}
					],
					"name": "registered",
					"type": "event"
				},
				{
					"inputs": [
						{
							"internalType": "uint256",
							"name": "_productID",
							"type": "uint256"
						}
					],
					"name": "buyProduct",
					"outputs": [],
					"stateMutability": "payable",
					"type": "function"
				},
				{
					"inputs": [
						{
							"internalType": "uint256",
							"name": "_productID",
							"type": "uint256"
						}
					],
					"name": "delivery",
					"outputs": [],
					"stateMutability": "nonpayable",
					"type": "function"
				},
				{
					"inputs": [
						{
							"internalType": "uint256",
							"name": "_productID",
							"type": "uint256"
						}
					],
					"name": "failed",
					"outputs": [],
					"stateMutability": "payable",
					"type": "function"
				},
				{
					"inputs": [
						{
							"internalType": "uint256",
							"name": "",
							"type": "uint256"
						}
					],
					"name": "products",
					"outputs": [
						{
							"internalType": "string",
							"name": "item",
							"type": "string"
						},
						{
							"internalType": "string",
							"name": "desc",
							"type": "string"
						},
						{
							"internalType": "uint256",
							"name": "productID",
							"type": "uint256"
						},
						{
							"internalType": "uint256",
							"name": "price",
							"type": "uint256"
						},
						{
							"internalType": "address payable",
							"name": "seller",
							"type": "address"
						},
						{
							"internalType": "address payable",
							"name": "buyer",
							"type": "address"
						},
						{
							"internalType": "bool",
							"name": "offload",
							"type": "bool"
						},
						{
							"internalType": "bool",
							"name": "delivered",
							"type": "bool"
						}
					],
					"stateMutability": "view",
					"type": "function"
				},
				{
					"inputs": [
						{
							"internalType": "string",
							"name": "_item",
							"type": "string"
						},
						{
							"internalType": "string",
							"name": "_desc",
							"type": "string"
						},
						{
							"internalType": "uint256",
							"name": "_price",
							"type": "uint256"
						}
					],
					"name": "registerProduct",
					"outputs": [],
					"stateMutability": "nonpayable",
					"type": "function"
				}
			],
			"devdoc": {
				"kind": "dev",
				"methods": {},
				"version": 1
			},
			"evm": {
				"assembly": "    /* \"smartcontract.sol\":26:2722  contract XYZ{\r... */\n  mstore(0x40, 0x80)\n    /* \"smartcontract.sol\":298:299  1 */\n  0x01\n    /* \"smartcontract.sol\":283:299  uint counter = 1 */\n  0x00\n  sstore\n    /* \"smartcontract.sol\":26:2722  contract XYZ{\r... */\n  callvalue\n  dup1\n  iszero\n  tag_1\n  jumpi\n  0x00\n  dup1\n  revert\ntag_1:\n  pop\n  dataSize(sub_0)\n  dup1\n  dataOffset(sub_0)\n  0x00\n  codecopy\n  0x00\n  return\nstop\n\nsub_0: assembly {\n        /* \"smartcontract.sol\":26:2722  contract XYZ{\r... */\n      mstore(0x40, 0x80)\n      jumpi(tag_1, lt(calldatasize, 0x04))\n      shr(0xe0, calldataload(0x00))\n      dup1\n      0x1144fd72\n      eq\n      tag_2\n      jumpi\n      dup1\n      0x3153a15b\n      eq\n      tag_3\n      jumpi\n      dup1\n      0x7acc0b20\n      eq\n      tag_4\n      jumpi\n      dup1\n      0x8642269e\n      eq\n      tag_5\n      jumpi\n      dup1\n      0xf2e5f682\n      eq\n      tag_6\n      jumpi\n    tag_1:\n      0x00\n      dup1\n      revert\n        /* \"smartcontract.sol\":2162:2718  function delivery(uint _productID) public {\r... */\n    tag_2:\n      callvalue\n      dup1\n      iszero\n      tag_7\n      jumpi\n      0x00\n      dup1\n      revert\n    tag_7:\n      pop\n      tag_8\n      0x04\n      dup1\n      calldatasize\n      sub\n      dup2\n      add\n      swap1\n      tag_9\n      swap2\n      swap1\n      tag_10\n      jump\t// in\n    tag_9:\n      tag_11\n      jump\t// in\n    tag_8:\n      stop\n        /* \"smartcontract.sol\":496:966  function registerProduct(string memory _item, string memory _desc, uint _price) public {\r... */\n    tag_3:\n      callvalue\n      dup1\n      iszero\n      tag_12\n      jumpi\n      0x00\n      dup1\n      revert\n    tag_12:\n      pop\n      tag_13\n      0x04\n      dup1\n      calldatasize\n      sub\n      dup2\n      add\n      swap1\n      tag_14\n      swap2\n      swap1\n      tag_15\n      jump\t// in\n    tag_14:\n      tag_16\n      jump\t// in\n    tag_13:\n      stop\n        /* \"smartcontract.sol\":306:331  Product[] public products */\n    tag_4:\n      callvalue\n      dup1\n      iszero\n      tag_17\n      jumpi\n      0x00\n      dup1\n      revert\n    tag_17:\n      pop\n      tag_18\n      0x04\n      dup1\n      calldatasize\n      sub\n      dup2\n      add\n      swap1\n      tag_19\n      swap2\n      swap1\n      tag_10\n      jump\t// in\n    tag_19:\n      tag_20\n      jump\t// in\n    tag_18:\n      mload(0x40)\n      tag_21\n      swap9\n      swap8\n      swap7\n      swap6\n      swap5\n      swap4\n      swap3\n      swap2\n      swap1\n      tag_22\n      jump\t// in\n    tag_21:\n      mload(0x40)\n      dup1\n      swap2\n      sub\n      swap1\n      return\n        /* \"smartcontract.sol\":974:1536  function buyProduct(uint _productID) payable public {\r... */\n    tag_5:\n      tag_23\n      0x04\n      dup1\n      calldatasize\n      sub\n      dup2\n      add\n      swap1\n      tag_24\n      swap2\n      swap1\n      tag_10\n      jump\t// in\n    tag_24:\n      tag_25\n      jump\t// in\n    tag_23:\n      stop\n        /* \"smartcontract.sol\":1544:2154  function failed(uint _productID) payable public {\r... */\n    tag_6:\n      tag_26\n      0x04\n      dup1\n      calldatasize\n      sub\n      dup2\n      add\n      swap1\n      tag_27\n      swap2\n      swap1\n      tag_10\n      jump\t// in\n    tag_27:\n      tag_28\n      jump\t// in\n    tag_26:\n      stop\n        /* \"smartcontract.sol\":2162:2718  function delivery(uint _productID) public {\r... */\n    tag_11:\n        /* \"smartcontract.sol\":2236:2243  counter */\n      sload(0x00)\n        /* \"smartcontract.sol\":2223:2233  _productID */\n      dup2\n        /* \"smartcontract.sol\":2223:2243  _productID < counter */\n      lt\n        /* \"smartcontract.sol\":2215:2263  require(_productID < counter, \"No such product\") */\n      tag_30\n      jumpi\n      mload(0x40)\n      0x08c379a000000000000000000000000000000000000000000000000000000000\n      dup2\n      mstore\n      0x04\n      add\n      tag_31\n      swap1\n      tag_32\n      jump\t// in\n    tag_31:\n      mload(0x40)\n      dup1\n      swap2\n      sub\n      swap1\n      revert\n    tag_30:\n        /* \"smartcontract.sol\":2316:2320  true */\n      0x01\n        /* \"smartcontract.sol\":2282:2320  products[_productID-1].offload == true */\n      iszero\n      iszero\n        /* \"smartcontract.sol\":2282:2290  products */\n      0x01\n        /* \"smartcontract.sol\":2302:2303  1 */\n      dup1\n        /* \"smartcontract.sol\":2291:2301  _productID */\n      dup4\n        /* \"smartcontract.sol\":2291:2303  _productID-1 */\n      tag_33\n      swap2\n      swap1\n      tag_34\n      jump\t// in\n    tag_33:\n        /* \"smartcontract.sol\":2282:2304  products[_productID-1] */\n      dup2\n      sload\n      dup2\n      lt\n      tag_35\n      jumpi\n      tag_36\n      tag_37\n      jump\t// in\n    tag_36:\n    tag_35:\n      swap1\n      0x00\n      mstore\n      keccak256(0x00, 0x20)\n      swap1\n      0x06\n      mul\n      add\n        /* \"smartcontract.sol\":2282:2312  products[_productID-1].offload */\n      0x05\n      add\n      0x14\n      swap1\n      sload\n      swap1\n      0x0100\n      exp\n      swap1\n      div\n      0xff\n      and\n        /* \"smartcontract.sol\":2282:2320  products[_productID-1].offload == true */\n      iszero\n      iszero\n      eq\n        /* \"smartcontract.sol\":2274:2352  require(products[_productID-1].offload == true, \"The product isn't purchased\") */\n      tag_39\n      jumpi\n      mload(0x40)\n      0x08c379a000000000000000000000000000000000000000000000000000000000\n      dup2\n      mstore\n      0x04\n      add\n      tag_40\n      swap1\n      tag_41\n      jump\t// in\n    tag_40:\n      mload(0x40)\n      dup1\n      swap2\n      sub\n      swap1\n      revert\n    tag_39:\n        /* \"smartcontract.sol\":2407:2412  false */\n      0x00\n        /* \"smartcontract.sol\":2371:2412  products[_productID-1].delivered == false */\n      iszero\n      iszero\n        /* \"smartcontract.sol\":2371:2379  products */\n      0x01\n        /* \"smartcontract.sol\":2391:2392  1 */\n      dup1\n        /* \"smartcontract.sol\":2380:2390  _productID */\n      dup4\n        /* \"smartcontract.sol\":2380:2392  _productID-1 */\n      tag_42\n      swap2\n      swap1\n      tag_34\n      jump\t// in\n    tag_42:\n        /* \"smartcontract.sol\":2371:2393  products[_productID-1] */\n      dup2\n      sload\n      dup2\n      lt\n      tag_43\n      jumpi\n      tag_44\n      tag_37\n      jump\t// in\n    tag_44:\n    tag_43:\n      swap1\n      0x00\n      mstore\n      keccak256(0x00, 0x20)\n      swap1\n      0x06\n      mul\n      add\n        /* \"smartcontract.sol\":2371:2403  products[_productID-1].delivered */\n      0x05\n      add\n      0x15\n      swap1\n      sload\n      swap1\n      0x0100\n      exp\n      swap1\n      div\n      0xff\n      and\n        /* \"smartcontract.sol\":2371:2412  products[_productID-1].delivered == false */\n      iszero\n      iszero\n      eq\n        /* \"smartcontract.sol\":2363:2449  require(products[_productID-1].delivered == false, \"The product is already delivered\") */\n      tag_46\n      jumpi\n      mload(0x40)\n      0x08c379a000000000000000000000000000000000000000000000000000000000\n      dup2\n      mstore\n      0x04\n      add\n      tag_47\n      swap1\n      tag_48\n      jump\t// in\n    tag_47:\n      mload(0x40)\n      dup1\n      swap2\n      sub\n      swap1\n      revert\n    tag_46:\n        /* \"smartcontract.sol\":2498:2508  msg.sender */\n      caller\n        /* \"smartcontract.sol\":2468:2508  products[_productID-1].buyer==msg.sender */\n      0xffffffffffffffffffffffffffffffffffffffff\n      and\n        /* \"smartcontract.sol\":2468:2476  products */\n      0x01\n        /* \"smartcontract.sol\":2488:2489  1 */\n      dup1\n        /* \"smartcontract.sol\":2477:2487  _productID */\n      dup4\n        /* \"smartcontract.sol\":2477:2489  _productID-1 */\n      tag_49\n      swap2\n      swap1\n      tag_34\n      jump\t// in\n    tag_49:\n        /* \"smartcontract.sol\":2468:2490  products[_productID-1] */\n      dup2\n      sload\n      dup2\n      lt\n      tag_50\n      jumpi\n      tag_51\n      tag_37\n      jump\t// in\n    tag_51:\n    tag_50:\n      swap1\n      0x00\n      mstore\n      keccak256(0x00, 0x20)\n      swap1\n      0x06\n      mul\n      add\n        /* \"smartcontract.sol\":2468:2496  products[_productID-1].buyer */\n      0x05\n      add\n      0x00\n      swap1\n      sload\n      swap1\n      0x0100\n      exp\n      swap1\n      div\n      0xffffffffffffffffffffffffffffffffffffffff\n      and\n        /* \"smartcontract.sol\":2468:2508  products[_productID-1].buyer==msg.sender */\n      0xffffffffffffffffffffffffffffffffffffffff\n      and\n      eq\n        /* \"smartcontract.sol\":2460:2544  require(products[_productID-1].buyer==msg.sender, \"Only buyer can confirm delivery\") */\n      tag_53\n      jumpi\n      mload(0x40)\n      0x08c379a000000000000000000000000000000000000000000000000000000000\n      dup2\n      mstore\n      0x04\n      add\n      tag_54\n      swap1\n      tag_55\n      jump\t// in\n    tag_54:\n      mload(0x40)\n      dup1\n      swap2\n      sub\n      swap1\n      revert\n    tag_53:\n        /* \"smartcontract.sol\":2590:2594  true */\n      0x01\n        /* \"smartcontract.sol\":2555:2563  products */\n      dup1\n        /* \"smartcontract.sol\":2575:2576  1 */\n      0x01\n        /* \"smartcontract.sol\":2564:2574  _productID */\n      dup4\n        /* \"smartcontract.sol\":2564:2576  _productID-1 */\n      tag_56\n      swap2\n      swap1\n      tag_34\n      jump\t// in\n    tag_56:\n        /* \"smartcontract.sol\":2555:2577  products[_productID-1] */\n      dup2\n      sload\n      dup2\n      lt\n      tag_57\n      jumpi\n      tag_58\n      tag_37\n      jump\t// in\n    tag_58:\n    tag_57:\n      swap1\n      0x00\n      mstore\n      keccak256(0x00, 0x20)\n      swap1\n      0x06\n      mul\n      add\n        /* \"smartcontract.sol\":2555:2587  products[_productID-1].delivered */\n      0x05\n      add\n      0x15\n        /* \"smartcontract.sol\":2555:2594  products[_productID-1].delivered = true */\n      0x0100\n      exp\n      dup2\n      sload\n      dup2\n      0xff\n      mul\n      not\n      and\n      swap1\n      dup4\n      iszero\n      iszero\n      mul\n      or\n      swap1\n      sstore\n      pop\n        /* \"smartcontract.sol\":2605:2613  products */\n      0x01\n        /* \"smartcontract.sol\":2625:2626  1 */\n      dup1\n        /* \"smartcontract.sol\":2614:2624  _productID */\n      dup3\n        /* \"smartcontract.sol\":2614:2626  _productID-1 */\n      tag_60\n      swap2\n      swap1\n      tag_34\n      jump\t// in\n    tag_60:\n        /* \"smartcontract.sol\":2605:2627  products[_productID-1] */\n      dup2\n      sload\n      dup2\n      lt\n      tag_61\n      jumpi\n      tag_62\n      tag_37\n      jump\t// in\n    tag_62:\n    tag_61:\n      swap1\n      0x00\n      mstore\n      keccak256(0x00, 0x20)\n      swap1\n      0x06\n      mul\n      add\n        /* \"smartcontract.sol\":2605:2634  products[_productID-1].seller */\n      0x04\n      add\n      0x00\n      swap1\n      sload\n      swap1\n      0x0100\n      exp\n      swap1\n      div\n      0xffffffffffffffffffffffffffffffffffffffff\n      and\n        /* \"smartcontract.sol\":2605:2643  products[_productID-1].seller.transfer */\n      0xffffffffffffffffffffffffffffffffffffffff\n      and\n        /* \"smartcontract.sol\":2605:2673  products[_productID-1].seller.transfer(products[_productID-1].price) */\n      0x08fc\n        /* \"smartcontract.sol\":2644:2652  products */\n      0x01\n        /* \"smartcontract.sol\":2664:2665  1 */\n      dup1\n        /* \"smartcontract.sol\":2653:2663  _productID */\n      dup5\n        /* \"smartcontract.sol\":2653:2665  _productID-1 */\n      tag_64\n      swap2\n      swap1\n      tag_34\n      jump\t// in\n    tag_64:\n        /* \"smartcontract.sol\":2644:2666  products[_productID-1] */\n      dup2\n      sload\n      dup2\n      lt\n      tag_65\n      jumpi\n      tag_66\n      tag_37\n      jump\t// in\n    tag_66:\n    tag_65:\n      swap1\n      0x00\n      mstore\n      keccak256(0x00, 0x20)\n      swap1\n      0x06\n      mul\n      add\n        /* \"smartcontract.sol\":2644:2672  products[_productID-1].price */\n      0x03\n      add\n      sload\n        /* \"smartcontract.sol\":2605:2673  products[_productID-1].seller.transfer(products[_productID-1].price) */\n      swap1\n      dup2\n      iszero\n      mul\n      swap1\n      mload(0x40)\n      0x00\n      mload(0x40)\n      dup1\n      dup4\n      sub\n      dup2\n      dup6\n      dup9\n      dup9\n      call\n      swap4\n      pop\n      pop\n      pop\n      pop\n      iszero\n      dup1\n      iszero\n      tag_69\n      jumpi\n      returndatasize\n      0x00\n      dup1\n      returndatacopy\n      revert(0x00, returndatasize)\n    tag_69:\n      pop\n        /* \"smartcontract.sol\":2689:2710  delivered(_productID) */\n      0x4b5e4108167a669a2da8b1edeb1bf605987224cec90eeca47f7f235104539f21\n        /* \"smartcontract.sol\":2699:2709  _productID */\n      dup2\n        /* \"smartcontract.sol\":2689:2710  delivered(_productID) */\n      mload(0x40)\n      tag_70\n      swap2\n      swap1\n      tag_71\n      jump\t// in\n    tag_70:\n      mload(0x40)\n      dup1\n      swap2\n      sub\n      swap1\n      log1\n        /* \"smartcontract.sol\":2162:2718  function delivery(uint _productID) public {\r... */\n      pop\n      jump\t// out\n        /* \"smartcontract.sol\":496:966  function registerProduct(string memory _item, string memory _desc, uint _price) public {\r... */\n    tag_16:\n        /* \"smartcontract.sol\":611:612  0 */\n      0x00\n        /* \"smartcontract.sol\":602:608  _price */\n      dup2\n        /* \"smartcontract.sol\":602:612  _price > 0 */\n      gt\n        /* \"smartcontract.sol\":594:643  require(_price > 0, \"Price can't be less than 0\") */\n      tag_73\n      jumpi\n      mload(0x40)\n      0x08c379a000000000000000000000000000000000000000000000000000000000\n      dup2\n      mstore\n      0x04\n      add\n      tag_74\n      swap1\n      tag_75\n      jump\t// in\n    tag_74:\n      mload(0x40)\n      dup1\n      swap2\n      sub\n      swap1\n      revert\n    tag_73:\n        /* \"smartcontract.sol\":654:673  Product memory temp */\n      tag_76\n      tag_77\n      jump\t// in\n    tag_76:\n        /* \"smartcontract.sol\":696:701  _item */\n      dup4\n        /* \"smartcontract.sol\":684:688  temp */\n      dup2\n        /* \"smartcontract.sol\":684:693  temp.item */\n      0x00\n      add\n        /* \"smartcontract.sol\":684:701  temp.item = _item */\n      dup2\n      swap1\n      mstore\n      pop\n        /* \"smartcontract.sol\":724:729  _desc */\n      dup3\n        /* \"smartcontract.sol\":712:716  temp */\n      dup2\n        /* \"smartcontract.sol\":712:721  temp.desc */\n      0x20\n      add\n        /* \"smartcontract.sol\":712:729  temp.desc = _desc */\n      dup2\n      swap1\n      mstore\n      pop\n        /* \"smartcontract.sol\":762:768  10**18 */\n      0x0de0b6b3a7640000\n        /* \"smartcontract.sol\":753:759  _price */\n      dup3\n        /* \"smartcontract.sol\":753:768  _price * 10**18 */\n      tag_78\n      swap2\n      swap1\n      tag_79\n      jump\t// in\n    tag_78:\n        /* \"smartcontract.sol\":740:744  temp */\n      dup2\n        /* \"smartcontract.sol\":740:750  temp.price */\n      0x60\n      add\n        /* \"smartcontract.sol\":740:768  temp.price = _price * 10**18 */\n      dup2\n      dup2\n      mstore\n      pop\n      pop\n        /* \"smartcontract.sol\":801:811  msg.sender */\n      caller\n        /* \"smartcontract.sol\":779:783  temp */\n      dup2\n        /* \"smartcontract.sol\":779:790  temp.seller */\n      0x80\n      add\n        /* \"smartcontract.sol\":779:812  temp.seller = payable(msg.sender) */\n      swap1\n      0xffffffffffffffffffffffffffffffffffffffff\n      and\n      swap1\n      dup2\n      0xffffffffffffffffffffffffffffffffffffffff\n      and\n      dup2\n      mstore\n      pop\n      pop\n        /* \"smartcontract.sol\":840:847  counter */\n      sload(0x00)\n        /* \"smartcontract.sol\":823:827  temp */\n      dup2\n        /* \"smartcontract.sol\":823:837  temp.productID */\n      0x40\n      add\n        /* \"smartcontract.sol\":823:847  temp.productID = counter */\n      dup2\n      dup2\n      mstore\n      pop\n      pop\n        /* \"smartcontract.sol\":858:866  products */\n      0x01\n        /* \"smartcontract.sol\":872:876  temp */\n      dup2\n        /* \"smartcontract.sol\":858:877  products.push(temp) */\n      swap1\n      dup1\n      0x01\n      dup2\n      sload\n      add\n      dup1\n      dup3\n      sstore\n      dup1\n      swap2\n      pop\n      pop\n      0x01\n      swap1\n      sub\n      swap1\n      0x00\n      mstore\n      keccak256(0x00, 0x20)\n      swap1\n      0x06\n      mul\n      add\n      0x00\n      swap1\n      swap2\n      swap1\n      swap2\n      swap1\n      swap2\n      pop\n      0x00\n      dup3\n      add\n      mload\n      dup2\n      0x00\n      add\n      swap1\n      dup1\n      mload\n      swap1\n      0x20\n      add\n      swap1\n      tag_81\n      swap3\n      swap2\n      swap1\n      tag_82\n      jump\t// in\n    tag_81:\n      pop\n      0x20\n      dup3\n      add\n      mload\n      dup2\n      0x01\n      add\n      swap1\n      dup1\n      mload\n      swap1\n      0x20\n      add\n      swap1\n      tag_83\n      swap3\n      swap2\n      swap1\n      tag_82\n      jump\t// in\n    tag_83:\n      pop\n      0x40\n      dup3\n      add\n      mload\n      dup2\n      0x02\n      add\n      sstore\n      0x60\n      dup3\n      add\n      mload\n      dup2\n      0x03\n      add\n      sstore\n      0x80\n      dup3\n      add\n      mload\n      dup2\n      0x04\n      add\n      exp(0x0100, 0x00)\n      dup2\n      sload\n      dup2\n      0xffffffffffffffffffffffffffffffffffffffff\n      mul\n      not\n      and\n      swap1\n      dup4\n      0xffffffffffffffffffffffffffffffffffffffff\n      and\n      mul\n      or\n      swap1\n      sstore\n      pop\n      0xa0\n      dup3\n      add\n      mload\n      dup2\n      0x05\n      add\n      exp(0x0100, 0x00)\n      dup2\n      sload\n      dup2\n      0xffffffffffffffffffffffffffffffffffffffff\n      mul\n      not\n      and\n      swap1\n      dup4\n      0xffffffffffffffffffffffffffffffffffffffff\n      and\n      mul\n      or\n      swap1\n      sstore\n      pop\n      0xc0\n      dup3\n      add\n      mload\n      dup2\n      0x05\n      add\n      exp(0x0100, 0x14)\n      dup2\n      sload\n      dup2\n      0xff\n      mul\n      not\n      and\n      swap1\n      dup4\n      iszero\n      iszero\n      mul\n      or\n      swap1\n      sstore\n      pop\n      0xe0\n      dup3\n      add\n      mload\n      dup2\n      0x05\n      add\n      exp(0x0100, 0x15)\n      dup2\n      sload\n      dup2\n      0xff\n      mul\n      not\n      and\n      swap1\n      dup4\n      iszero\n      iszero\n      mul\n      or\n      swap1\n      sstore\n      pop\n      pop\n      pop\n        /* \"smartcontract.sol\":888:895  counter */\n      0x00\n      dup1\n        /* \"smartcontract.sol\":888:897  counter++ */\n      dup2\n      sload\n      dup1\n      swap3\n      swap2\n      swap1\n      tag_84\n      swap1\n      tag_85\n      jump\t// in\n    tag_84:\n      swap2\n      swap1\n      pop\n      sstore\n      pop\n        /* \"smartcontract.sol\":913:958  registered(_item, temp.productID, msg.sender) */\n      0x2f2d57060110e728629fcdcfd43a3b0f571b51ca1899668910d777e935601e3e\n        /* \"smartcontract.sol\":924:929  _item */\n      dup5\n        /* \"smartcontract.sol\":931:935  temp */\n      dup3\n        /* \"smartcontract.sol\":931:945  temp.productID */\n      0x40\n      add\n      mload\n        /* \"smartcontract.sol\":947:957  msg.sender */\n      caller\n        /* \"smartcontract.sol\":913:958  registered(_item, temp.productID, msg.sender) */\n      mload(0x40)\n      tag_86\n      swap4\n      swap3\n      swap2\n      swap1\n      tag_87\n      jump\t// in\n    tag_86:\n      mload(0x40)\n      dup1\n      swap2\n      sub\n      swap1\n      log1\n        /* \"smartcontract.sol\":583:966  {\r... */\n      pop\n        /* \"smartcontract.sol\":496:966  function registerProduct(string memory _item, string memory _desc, uint _price) public {\r... */\n      pop\n      pop\n      pop\n      jump\t// out\n        /* \"smartcontract.sol\":306:331  Product[] public products */\n    tag_20:\n      0x01\n      dup2\n      dup2\n      sload\n      dup2\n      lt\n      tag_88\n      jumpi\n      0x00\n      dup1\n      revert\n    tag_88:\n      swap1\n      0x00\n      mstore\n      keccak256(0x00, 0x20)\n      swap1\n      0x06\n      mul\n      add\n      0x00\n      swap2\n      pop\n      swap1\n      pop\n      dup1\n      0x00\n      add\n      dup1\n      sload\n      tag_90\n      swap1\n      tag_91\n      jump\t// in\n    tag_90:\n      dup1\n      0x1f\n      add\n      0x20\n      dup1\n      swap2\n      div\n      mul\n      0x20\n      add\n      mload(0x40)\n      swap1\n      dup2\n      add\n      0x40\n      mstore\n      dup1\n      swap3\n      swap2\n      swap1\n      dup2\n      dup2\n      mstore\n      0x20\n      add\n      dup3\n      dup1\n      sload\n      tag_92\n      swap1\n      tag_91\n      jump\t// in\n    tag_92:\n      dup1\n      iszero\n      tag_93\n      jumpi\n      dup1\n      0x1f\n      lt\n      tag_94\n      jumpi\n      0x0100\n      dup1\n      dup4\n      sload\n      div\n      mul\n      dup4\n      mstore\n      swap2\n      0x20\n      add\n      swap2\n      jump(tag_93)\n    tag_94:\n      dup3\n      add\n      swap2\n      swap1\n      0x00\n      mstore\n      keccak256(0x00, 0x20)\n      swap1\n    tag_95:\n      dup2\n      sload\n      dup2\n      mstore\n      swap1\n      0x01\n      add\n      swap1\n      0x20\n      add\n      dup1\n      dup4\n      gt\n      tag_95\n      jumpi\n      dup3\n      swap1\n      sub\n      0x1f\n      and\n      dup3\n      add\n      swap2\n    tag_93:\n      pop\n      pop\n      pop\n      pop\n      pop\n      swap1\n      dup1\n      0x01\n      add\n      dup1\n      sload\n      tag_96\n      swap1\n      tag_91\n      jump\t// in\n    tag_96:\n      dup1\n      0x1f\n      add\n      0x20\n      dup1\n      swap2\n      div\n      mul\n      0x20\n      add\n      mload(0x40)\n      swap1\n      dup2\n      add\n      0x40\n      mstore\n      dup1\n      swap3\n      swap2\n      swap1\n      dup2\n      dup2\n      mstore\n      0x20\n      add\n      dup3\n      dup1\n      sload\n      tag_97\n      swap1\n      tag_91\n      jump\t// in\n    tag_97:\n      dup1\n      iszero\n      tag_98\n      jumpi\n      dup1\n      0x1f\n      lt\n      tag_99\n      jumpi\n      0x0100\n      dup1\n      dup4\n      sload\n      div\n      mul\n      dup4\n      mstore\n      swap2\n      0x20\n      add\n      swap2\n      jump(tag_98)\n    tag_99:\n      dup3\n      add\n      swap2\n      swap1\n      0x00\n      mstore\n      keccak256(0x00, 0x20)\n      swap1\n    tag_100:\n      dup2\n      sload\n      dup2\n      mstore\n      swap1\n      0x01\n      add\n      swap1\n      0x20\n      add\n      dup1\n      dup4\n      gt\n      tag_100\n      jumpi\n      dup3\n      swap1\n      sub\n      0x1f\n      and\n      dup3\n      add\n      swap2\n    tag_98:\n      pop\n      pop\n      pop\n      pop\n      pop\n      swap1\n      dup1\n      0x02\n      add\n      sload\n      swap1\n      dup1\n      0x03\n      add\n      sload\n      swap1\n      dup1\n      0x04\n      add\n      0x00\n      swap1\n      sload\n      swap1\n      0x0100\n      exp\n      swap1\n      div\n      0xffffffffffffffffffffffffffffffffffffffff\n      and\n      swap1\n      dup1\n      0x05\n      add\n      0x00\n      swap1\n      sload\n      swap1\n      0x0100\n      exp\n      swap1\n      div\n      0xffffffffffffffffffffffffffffffffffffffff\n      and\n      swap1\n      dup1\n      0x05\n      add\n      0x14\n      swap1\n      sload\n      swap1\n      0x0100\n      exp\n      swap1\n      div\n      0xff\n      and\n      swap1\n      dup1\n      0x05\n      add\n      0x15\n      swap1\n      sload\n      swap1\n      0x0100\n      exp\n      swap1\n      div\n      0xff\n      and\n      swap1\n      pop\n      dup9\n      jump\t// out\n        /* \"smartcontract.sol\":974:1536  function buyProduct(uint _productID) payable public {\r... */\n    tag_25:\n        /* \"smartcontract.sol\":1058:1065  counter */\n      sload(0x00)\n        /* \"smartcontract.sol\":1045:1055  _productID */\n      dup2\n        /* \"smartcontract.sol\":1045:1065  _productID < counter */\n      lt\n        /* \"smartcontract.sol\":1037:1085  require(_productID < counter, \"No such product\") */\n      tag_102\n      jumpi\n      mload(0x40)\n      0x08c379a000000000000000000000000000000000000000000000000000000000\n      dup2\n      mstore\n      0x04\n      add\n      tag_103\n      swap1\n      tag_32\n      jump\t// in\n    tag_103:\n      mload(0x40)\n      dup1\n      swap2\n      sub\n      swap1\n      revert\n    tag_102:\n        /* \"smartcontract.sol\":1138:1143  false */\n      0x00\n        /* \"smartcontract.sol\":1104:1143  products[_productID-1].offload == false */\n      iszero\n      iszero\n        /* \"smartcontract.sol\":1104:1112  products */\n      0x01\n        /* \"smartcontract.sol\":1124:1125  1 */\n      dup1\n        /* \"smartcontract.sol\":1113:1123  _productID */\n      dup4\n        /* \"smartcontract.sol\":1113:1125  _productID-1 */\n      tag_104\n      swap2\n      swap1\n      tag_34\n      jump\t// in\n    tag_104:\n        /* \"smartcontract.sol\":1104:1126  products[_productID-1] */\n      dup2\n      sload\n      dup2\n      lt\n      tag_105\n      jumpi\n      tag_106\n      tag_37\n      jump\t// in\n    tag_106:\n    tag_105:\n      swap1\n      0x00\n      mstore\n      keccak256(0x00, 0x20)\n      swap1\n      0x06\n      mul\n      add\n        /* \"smartcontract.sol\":1104:1134  products[_productID-1].offload */\n      0x05\n      add\n      0x14\n      swap1\n      sload\n      swap1\n      0x0100\n      exp\n      swap1\n      div\n      0xff\n      and\n        /* \"smartcontract.sol\":1104:1143  products[_productID-1].offload == false */\n      iszero\n      iszero\n      eq\n        /* \"smartcontract.sol\":1096:1184  require(products[_productID-1].offload == false, \"Some other user ordered this product\") */\n      tag_108\n      jumpi\n      mload(0x40)\n      0x08c379a000000000000000000000000000000000000000000000000000000000\n      dup2\n      mstore\n      0x04\n      add\n      tag_109\n      swap1\n      tag_110\n      jump\t// in\n    tag_109:\n      mload(0x40)\n      dup1\n      swap2\n      sub\n      swap1\n      revert\n    tag_108:\n        /* \"smartcontract.sol\":1235:1244  msg.value */\n      callvalue\n        /* \"smartcontract.sol\":1203:1211  products */\n      0x01\n        /* \"smartcontract.sol\":1223:1224  1 */\n      dup1\n        /* \"smartcontract.sol\":1212:1222  _productID */\n      dup4\n        /* \"smartcontract.sol\":1212:1224  _productID-1 */\n      tag_111\n      swap2\n      swap1\n      tag_34\n      jump\t// in\n    tag_111:\n        /* \"smartcontract.sol\":1203:1225  products[_productID-1] */\n      dup2\n      sload\n      dup2\n      lt\n      tag_112\n      jumpi\n      tag_113\n      tag_37\n      jump\t// in\n    tag_113:\n    tag_112:\n      swap1\n      0x00\n      mstore\n      keccak256(0x00, 0x20)\n      swap1\n      0x06\n      mul\n      add\n        /* \"smartcontract.sol\":1203:1231  products[_productID-1].price */\n      0x03\n      add\n      sload\n        /* \"smartcontract.sol\":1203:1244  products[_productID-1].price == msg.value */\n      eq\n        /* \"smartcontract.sol\":1195:1273  require(products[_productID-1].price == msg.value, \"The amount must be exact\") */\n      tag_115\n      jumpi\n      mload(0x40)\n      0x08c379a000000000000000000000000000000000000000000000000000000000\n      dup2\n      mstore\n      0x04\n      add\n      tag_116\n      swap1\n      tag_117\n      jump\t// in\n    tag_116:\n      mload(0x40)\n      dup1\n      swap2\n      sub\n      swap1\n      revert\n    tag_115:\n        /* \"smartcontract.sol\":1325:1335  msg.sender */\n      caller\n        /* \"smartcontract.sol\":1292:1335  products[_productID-1].seller != msg.sender */\n      0xffffffffffffffffffffffffffffffffffffffff\n      and\n        /* \"smartcontract.sol\":1292:1300  products */\n      0x01\n        /* \"smartcontract.sol\":1312:1313  1 */\n      dup1\n        /* \"smartcontract.sol\":1301:1311  _productID */\n      dup4\n        /* \"smartcontract.sol\":1301:1313  _productID-1 */\n      tag_118\n      swap2\n      swap1\n      tag_34\n      jump\t// in\n    tag_118:\n        /* \"smartcontract.sol\":1292:1314  products[_productID-1] */\n      dup2\n      sload\n      dup2\n      lt\n      tag_119\n      jumpi\n      tag_120\n      tag_37\n      jump\t// in\n    tag_120:\n    tag_119:\n      swap1\n      0x00\n      mstore\n      keccak256(0x00, 0x20)\n      swap1\n      0x06\n      mul\n      add\n        /* \"smartcontract.sol\":1292:1321  products[_productID-1].seller */\n      0x04\n      add\n      0x00\n      swap1\n      sload\n      swap1\n      0x0100\n      exp\n      swap1\n      div\n      0xffffffffffffffffffffffffffffffffffffffff\n      and\n        /* \"smartcontract.sol\":1292:1335  products[_productID-1].seller != msg.sender */\n      0xffffffffffffffffffffffffffffffffffffffff\n      and\n      eq\n      iszero\n        /* \"smartcontract.sol\":1284:1373  require(products[_productID-1].seller != msg.sender, \"Seller cannot buy his own product\") */\n      tag_122\n      jumpi\n      mload(0x40)\n      0x08c379a000000000000000000000000000000000000000000000000000000000\n      dup2\n      mstore\n      0x04\n      add\n      tag_123\n      swap1\n      tag_124\n      jump\t// in\n    tag_123:\n      mload(0x40)\n      dup1\n      swap2\n      sub\n      swap1\n      revert\n    tag_122:\n        /* \"smartcontract.sol\":1423:1433  msg.sender */\n      caller\n        /* \"smartcontract.sol\":1384:1392  products */\n      0x01\n        /* \"smartcontract.sol\":1404:1405  1 */\n      dup1\n        /* \"smartcontract.sol\":1393:1403  _productID */\n      dup4\n        /* \"smartcontract.sol\":1393:1405  _productID-1 */\n      tag_125\n      swap2\n      swap1\n      tag_34\n      jump\t// in\n    tag_125:\n        /* \"smartcontract.sol\":1384:1406  products[_productID-1] */\n      dup2\n      sload\n      dup2\n      lt\n      tag_126\n      jumpi\n      tag_127\n      tag_37\n      jump\t// in\n    tag_127:\n    tag_126:\n      swap1\n      0x00\n      mstore\n      keccak256(0x00, 0x20)\n      swap1\n      0x06\n      mul\n      add\n        /* \"smartcontract.sol\":1384:1412  products[_productID-1].buyer */\n      0x05\n      add\n      0x00\n        /* \"smartcontract.sol\":1384:1434  products[_productID-1].buyer = payable(msg.sender) */\n      0x0100\n      exp\n      dup2\n      sload\n      dup2\n      0xffffffffffffffffffffffffffffffffffffffff\n      mul\n      not\n      and\n      swap1\n      dup4\n      0xffffffffffffffffffffffffffffffffffffffff\n      and\n      mul\n      or\n      swap1\n      sstore\n      pop\n        /* \"smartcontract.sol\":1478:1482  true */\n      0x01\n        /* \"smartcontract.sol\":1445:1453  products */\n      dup1\n        /* \"smartcontract.sol\":1465:1466  1 */\n      0x01\n        /* \"smartcontract.sol\":1454:1464  _productID */\n      dup4\n        /* \"smartcontract.sol\":1454:1466  _productID-1 */\n      tag_129\n      swap2\n      swap1\n      tag_34\n      jump\t// in\n    tag_129:\n        /* \"smartcontract.sol\":1445:1467  products[_productID-1] */\n      dup2\n      sload\n      dup2\n      lt\n      tag_130\n      jumpi\n      tag_131\n      tag_37\n      jump\t// in\n    tag_131:\n    tag_130:\n      swap1\n      0x00\n      mstore\n      keccak256(0x00, 0x20)\n      swap1\n      0x06\n      mul\n      add\n        /* \"smartcontract.sol\":1445:1475  products[_productID-1].offload */\n      0x05\n      add\n      0x14\n        /* \"smartcontract.sol\":1445:1482  products[_productID-1].offload = true */\n      0x0100\n      exp\n      dup2\n      sload\n      dup2\n      0xff\n      mul\n      not\n      and\n      swap1\n      dup4\n      iszero\n      iszero\n      mul\n      or\n      swap1\n      sstore\n      pop\n        /* \"smartcontract.sol\":1498:1528  bought(_productID, msg.sender) */\n      0x2c9b5e9655a41ab13c5183c231239df125ecbd546a947624c913cfd43094906e\n        /* \"smartcontract.sol\":1505:1515  _productID */\n      dup2\n        /* \"smartcontract.sol\":1517:1527  msg.sender */\n      caller\n        /* \"smartcontract.sol\":1498:1528  bought(_productID, msg.sender) */\n      mload(0x40)\n      tag_133\n      swap3\n      swap2\n      swap1\n      tag_134\n      jump\t// in\n    tag_133:\n      mload(0x40)\n      dup1\n      swap2\n      sub\n      swap1\n      log1\n        /* \"smartcontract.sol\":974:1536  function buyProduct(uint _productID) payable public {\r... */\n      pop\n      jump\t// out\n        /* \"smartcontract.sol\":1544:2154  function failed(uint _productID) payable public {\r... */\n    tag_28:\n        /* \"smartcontract.sol\":1624:1631  counter */\n      sload(0x00)\n        /* \"smartcontract.sol\":1611:1621  _productID */\n      dup2\n        /* \"smartcontract.sol\":1611:1631  _productID < counter */\n      lt\n        /* \"smartcontract.sol\":1603:1651  require(_productID < counter, \"No such product\") */\n      tag_136\n      jumpi\n      mload(0x40)\n      0x08c379a000000000000000000000000000000000000000000000000000000000\n      dup2\n      mstore\n      0x04\n      add\n      tag_137\n      swap1\n      tag_32\n      jump\t// in\n    tag_137:\n      mload(0x40)\n      dup1\n      swap2\n      sub\n      swap1\n      revert\n    tag_136:\n        /* \"smartcontract.sol\":1718:1719  0 */\n      0x00\n        /* \"smartcontract.sol\":1670:1721  products[_productID-1].buyer != payable(address(0)) */\n      0xffffffffffffffffffffffffffffffffffffffff\n      and\n        /* \"smartcontract.sol\":1670:1678  products */\n      0x01\n        /* \"smartcontract.sol\":1690:1691  1 */\n      dup1\n        /* \"smartcontract.sol\":1679:1689  _productID */\n      dup4\n        /* \"smartcontract.sol\":1679:1691  _productID-1 */\n      tag_138\n      swap2\n      swap1\n      tag_34\n      jump\t// in\n    tag_138:\n        /* \"smartcontract.sol\":1670:1692  products[_productID-1] */\n      dup2\n      sload\n      dup2\n      lt\n      tag_139\n      jumpi\n      tag_140\n      tag_37\n      jump\t// in\n    tag_140:\n    tag_139:\n      swap1\n      0x00\n      mstore\n      keccak256(0x00, 0x20)\n      swap1\n      0x06\n      mul\n      add\n        /* \"smartcontract.sol\":1670:1698  products[_productID-1].buyer */\n      0x05\n      add\n      0x00\n      swap1\n      sload\n      swap1\n      0x0100\n      exp\n      swap1\n      div\n      0xffffffffffffffffffffffffffffffffffffffff\n      and\n        /* \"smartcontract.sol\":1670:1721  products[_productID-1].buyer != payable(address(0)) */\n      0xffffffffffffffffffffffffffffffffffffffff\n      and\n      eq\n      iszero\n        /* \"smartcontract.sol\":1662:1750  require(products[_productID-1].buyer != payable(address(0)), \"Product wasn't purchased\") */\n      tag_142\n      jumpi\n      mload(0x40)\n      0x08c379a000000000000000000000000000000000000000000000000000000000\n      dup2\n      mstore\n      0x04\n      add\n      tag_143\n      swap1\n      tag_144\n      jump\t// in\n    tag_143:\n      mload(0x40)\n      dup1\n      swap2\n      sub\n      swap1\n      revert\n    tag_142:\n        /* \"smartcontract.sol\":1805:1810  false */\n      0x00\n        /* \"smartcontract.sol\":1769:1810  products[_productID-1].delivered == false */\n      iszero\n      iszero\n        /* \"smartcontract.sol\":1769:1777  products */\n      0x01\n        /* \"smartcontract.sol\":1789:1790  1 */\n      dup1\n        /* \"smartcontract.sol\":1778:1788  _productID */\n      dup4\n        /* \"smartcontract.sol\":1778:1790  _productID-1 */\n      tag_145\n      swap2\n      swap1\n      tag_34\n      jump\t// in\n    tag_145:\n        /* \"smartcontract.sol\":1769:1791  products[_productID-1] */\n      dup2\n      sload\n      dup2\n      lt\n      tag_146\n      jumpi\n      tag_147\n      tag_37\n      jump\t// in\n    tag_147:\n    tag_146:\n      swap1\n      0x00\n      mstore\n      keccak256(0x00, 0x20)\n      swap1\n      0x06\n      mul\n      add\n        /* \"smartcontract.sol\":1769:1801  products[_productID-1].delivered */\n      0x05\n      add\n      0x15\n      swap1\n      sload\n      swap1\n      0x0100\n      exp\n      swap1\n      div\n      0xff\n      and\n        /* \"smartcontract.sol\":1769:1810  products[_productID-1].delivered == false */\n      iszero\n      iszero\n      eq\n        /* \"smartcontract.sol\":1761:1849  require(products[_productID-1].delivered == false, \"Product was successfully delivered\") */\n      tag_149\n      jumpi\n      mload(0x40)\n      0x08c379a000000000000000000000000000000000000000000000000000000000\n      dup2\n      mstore\n      0x04\n      add\n      tag_150\n      swap1\n      tag_151\n      jump\t// in\n    tag_150:\n      mload(0x40)\n      dup1\n      swap2\n      sub\n      swap1\n      revert\n    tag_149:\n        /* \"smartcontract.sol\":1901:1911  msg.sender */\n      caller\n        /* \"smartcontract.sol\":1868:1911  products[_productID-1].seller == msg.sender */\n      0xffffffffffffffffffffffffffffffffffffffff\n      and\n        /* \"smartcontract.sol\":1868:1876  products */\n      0x01\n        /* \"smartcontract.sol\":1888:1889  1 */\n      dup1\n        /* \"smartcontract.sol\":1877:1887  _productID */\n      dup4\n        /* \"smartcontract.sol\":1877:1889  _productID-1 */\n      tag_152\n      swap2\n      swap1\n      tag_34\n      jump\t// in\n    tag_152:\n        /* \"smartcontract.sol\":1868:1890  products[_productID-1] */\n      dup2\n      sload\n      dup2\n      lt\n      tag_153\n      jumpi\n      tag_154\n      tag_37\n      jump\t// in\n    tag_154:\n    tag_153:\n      swap1\n      0x00\n      mstore\n      keccak256(0x00, 0x20)\n      swap1\n      0x06\n      mul\n      add\n        /* \"smartcontract.sol\":1868:1897  products[_productID-1].seller */\n      0x04\n      add\n      0x00\n      swap1\n      sload\n      swap1\n      0x0100\n      exp\n      swap1\n      div\n      0xffffffffffffffffffffffffffffffffffffffff\n      and\n        /* \"smartcontract.sol\":1868:1911  products[_productID-1].seller == msg.sender */\n      0xffffffffffffffffffffffffffffffffffffffff\n      and\n      eq\n        /* \"smartcontract.sol\":1860:1958  require(products[_productID-1].seller == msg.sender, \"Only seller can confirm failed transaction\") */\n      tag_156\n      jumpi\n      mload(0x40)\n      0x08c379a000000000000000000000000000000000000000000000000000000000\n      dup2\n      mstore\n      0x04\n      add\n      tag_157\n      swap1\n      tag_158\n      jump\t// in\n    tag_157:\n      mload(0x40)\n      dup1\n      swap2\n      sub\n      swap1\n      revert\n    tag_156:\n        /* \"smartcontract.sol\":2002:2007  false */\n      0x00\n        /* \"smartcontract.sol\":1969:1977  products */\n      0x01\n        /* \"smartcontract.sol\":1989:1990  1 */\n      dup1\n        /* \"smartcontract.sol\":1978:1988  _productID */\n      dup4\n        /* \"smartcontract.sol\":1978:1990  _productID-1 */\n      tag_159\n      swap2\n      swap1\n      tag_34\n      jump\t// in\n    tag_159:\n        /* \"smartcontract.sol\":1969:1991  products[_productID-1] */\n      dup2\n      sload\n      dup2\n      lt\n      tag_160\n      jumpi\n      tag_161\n      tag_37\n      jump\t// in\n    tag_161:\n    tag_160:\n      swap1\n      0x00\n      mstore\n      keccak256(0x00, 0x20)\n      swap1\n      0x06\n      mul\n      add\n        /* \"smartcontract.sol\":1969:1999  products[_productID-1].offload */\n      0x05\n      add\n      0x14\n        /* \"smartcontract.sol\":1969:2007  products[_productID-1].offload = false */\n      0x0100\n      exp\n      dup2\n      sload\n      dup2\n      0xff\n      mul\n      not\n      and\n      swap1\n      dup4\n      iszero\n      iszero\n      mul\n      or\n      swap1\n      sstore\n      pop\n        /* \"smartcontract.sol\":2018:2026  products */\n      0x01\n        /* \"smartcontract.sol\":2038:2039  1 */\n      dup1\n        /* \"smartcontract.sol\":2027:2037  _productID */\n      dup3\n        /* \"smartcontract.sol\":2027:2039  _productID-1 */\n      tag_163\n      swap2\n      swap1\n      tag_34\n      jump\t// in\n    tag_163:\n        /* \"smartcontract.sol\":2018:2040  products[_productID-1] */\n      dup2\n      sload\n      dup2\n      lt\n      tag_164\n      jumpi\n      tag_165\n      tag_37\n      jump\t// in\n    tag_165:\n    tag_164:\n      swap1\n      0x00\n      mstore\n      keccak256(0x00, 0x20)\n      swap1\n      0x06\n      mul\n      add\n        /* \"smartcontract.sol\":2018:2046  products[_productID-1].buyer */\n      0x05\n      add\n      0x00\n      swap1\n      sload\n      swap1\n      0x0100\n      exp\n      swap1\n      div\n      0xffffffffffffffffffffffffffffffffffffffff\n      and\n        /* \"smartcontract.sol\":2018:2055  products[_productID-1].buyer.transfer */\n      0xffffffffffffffffffffffffffffffffffffffff\n      and\n        /* \"smartcontract.sol\":2018:2085  products[_productID-1].buyer.transfer(products[_productID-1].price) */\n      0x08fc\n        /* \"smartcontract.sol\":2056:2064  products */\n      0x01\n        /* \"smartcontract.sol\":2076:2077  1 */\n      dup1\n        /* \"smartcontract.sol\":2065:2075  _productID */\n      dup5\n        /* \"smartcontract.sol\":2065:2077  _productID-1 */\n      tag_167\n      swap2\n      swap1\n      tag_34\n      jump\t// in\n    tag_167:\n        /* \"smartcontract.sol\":2056:2078  products[_productID-1] */\n      dup2\n      sload\n      dup2\n      lt\n      tag_168\n      jumpi\n      tag_169\n      tag_37\n      jump\t// in\n    tag_169:\n    tag_168:\n      swap1\n      0x00\n      mstore\n      keccak256(0x00, 0x20)\n      swap1\n      0x06\n      mul\n      add\n        /* \"smartcontract.sol\":2056:2084  products[_productID-1].price */\n      0x03\n      add\n      sload\n        /* \"smartcontract.sol\":2018:2085  products[_productID-1].buyer.transfer(products[_productID-1].price) */\n      swap1\n      dup2\n      iszero\n      mul\n      swap1\n      mload(0x40)\n      0x00\n      mload(0x40)\n      dup1\n      dup4\n      sub\n      dup2\n      dup6\n      dup9\n      dup9\n      call\n      swap4\n      pop\n      pop\n      pop\n      pop\n      iszero\n      dup1\n      iszero\n      tag_172\n      jumpi\n      returndatasize\n      0x00\n      dup1\n      returndatacopy\n      revert(0x00, returndatasize)\n    tag_172:\n      pop\n        /* \"smartcontract.sol\":2143:2144  0 */\n      0x00\n        /* \"smartcontract.sol\":2096:2104  products */\n      0x01\n        /* \"smartcontract.sol\":2116:2117  1 */\n      dup1\n        /* \"smartcontract.sol\":2105:2115  _productID */\n      dup4\n        /* \"smartcontract.sol\":2105:2117  _productID-1 */\n      tag_173\n      swap2\n      swap1\n      tag_34\n      jump\t// in\n    tag_173:\n        /* \"smartcontract.sol\":2096:2118  products[_productID-1] */\n      dup2\n      sload\n      dup2\n      lt\n      tag_174\n      jumpi\n      tag_175\n      tag_37\n      jump\t// in\n    tag_175:\n    tag_174:\n      swap1\n      0x00\n      mstore\n      keccak256(0x00, 0x20)\n      swap1\n      0x06\n      mul\n      add\n        /* \"smartcontract.sol\":2096:2124  products[_productID-1].buyer */\n      0x05\n      add\n      0x00\n        /* \"smartcontract.sol\":2096:2146  products[_productID-1].buyer = payable(address(0)) */\n      0x0100\n      exp\n      dup2\n      sload\n      dup2\n      0xffffffffffffffffffffffffffffffffffffffff\n      mul\n      not\n      and\n      swap1\n      dup4\n      0xffffffffffffffffffffffffffffffffffffffff\n      and\n      mul\n      or\n      swap1\n      sstore\n      pop\n        /* \"smartcontract.sol\":1544:2154  function failed(uint _productID) payable public {\r... */\n      pop\n      jump\t// out\n    tag_77:\n      mload(0x40)\n      dup1\n      0x0100\n      add\n      0x40\n      mstore\n      dup1\n      0x60\n      dup2\n      mstore\n      0x20\n      add\n      0x60\n      dup2\n      mstore\n      0x20\n      add\n      0x00\n      dup2\n      mstore\n      0x20\n      add\n      0x00\n      dup2\n      mstore\n      0x20\n      add\n      and(0xffffffffffffffffffffffffffffffffffffffff, 0x00)\n      dup2\n      mstore\n      0x20\n      add\n      and(0xffffffffffffffffffffffffffffffffffffffff, 0x00)\n      dup2\n      mstore\n      0x20\n      add\n      iszero(iszero(0x00))\n      dup2\n      mstore\n      0x20\n      add\n      iszero(iszero(0x00))\n      dup2\n      mstore\n      pop\n      swap1\n      jump\t// out\n    tag_82:\n      dup3\n      dup1\n      sload\n      tag_177\n      swap1\n      tag_91\n      jump\t// in\n    tag_177:\n      swap1\n      0x00\n      mstore\n      keccak256(0x00, 0x20)\n      swap1\n      0x1f\n      add\n      0x20\n      swap1\n      div\n      dup2\n      add\n      swap3\n      dup3\n      tag_179\n      jumpi\n      0x00\n      dup6\n      sstore\n      jump(tag_178)\n    tag_179:\n      dup3\n      0x1f\n      lt\n      tag_180\n      jumpi\n      dup1\n      mload\n      not(0xff)\n      and\n      dup4\n      dup1\n      add\n      or\n      dup6\n      sstore\n      jump(tag_178)\n    tag_180:\n      dup3\n      dup1\n      add\n      0x01\n      add\n      dup6\n      sstore\n      dup3\n      iszero\n      tag_178\n      jumpi\n      swap2\n      dup3\n      add\n    tag_181:\n      dup3\n      dup2\n      gt\n      iszero\n      tag_182\n      jumpi\n      dup3\n      mload\n      dup3\n      sstore\n      swap2\n      0x20\n      add\n      swap2\n      swap1\n      0x01\n      add\n      swap1\n      jump(tag_181)\n    tag_182:\n    tag_178:\n      pop\n      swap1\n      pop\n      tag_183\n      swap2\n      swap1\n      tag_184\n      jump\t// in\n    tag_183:\n      pop\n      swap1\n      jump\t// out\n    tag_184:\n    tag_185:\n      dup1\n      dup3\n      gt\n      iszero\n      tag_186\n      jumpi\n      0x00\n      dup2\n      0x00\n      swap1\n      sstore\n      pop\n      0x01\n      add\n      jump(tag_185)\n    tag_186:\n      pop\n      swap1\n      jump\t// out\n        /* \"#utility.yul\":7:419   */\n    tag_188:\n        /* \"#utility.yul\":85:90   */\n      0x00\n        /* \"#utility.yul\":110:176   */\n      tag_190\n        /* \"#utility.yul\":126:175   */\n      tag_191\n        /* \"#utility.yul\":168:174   */\n      dup5\n        /* \"#utility.yul\":126:175   */\n      tag_192\n      jump\t// in\n    tag_191:\n        /* \"#utility.yul\":110:176   */\n      tag_193\n      jump\t// in\n    tag_190:\n        /* \"#utility.yul\":101:176   */\n      swap1\n      pop\n        /* \"#utility.yul\":199:205   */\n      dup3\n        /* \"#utility.yul\":192:197   */\n      dup2\n        /* \"#utility.yul\":185:206   */\n      mstore\n        /* \"#utility.yul\":237:241   */\n      0x20\n        /* \"#utility.yul\":230:235   */\n      dup2\n        /* \"#utility.yul\":226:242   */\n      add\n        /* \"#utility.yul\":275:278   */\n      dup5\n        /* \"#utility.yul\":266:272   */\n      dup5\n        /* \"#utility.yul\":261:264   */\n      dup5\n        /* \"#utility.yul\":257:273   */\n      add\n        /* \"#utility.yul\":254:279   */\n      gt\n        /* \"#utility.yul\":251:363   */\n      iszero\n      tag_194\n      jumpi\n        /* \"#utility.yul\":282:361   */\n      tag_195\n      tag_196\n      jump\t// in\n    tag_195:\n        /* \"#utility.yul\":251:363   */\n    tag_194:\n        /* \"#utility.yul\":372:413   */\n      tag_197\n        /* \"#utility.yul\":406:412   */\n      dup5\n        /* \"#utility.yul\":401:404   */\n      dup3\n        /* \"#utility.yul\":396:399   */\n      dup6\n        /* \"#utility.yul\":372:413   */\n      tag_198\n      jump\t// in\n    tag_197:\n        /* \"#utility.yul\":91:419   */\n      pop\n        /* \"#utility.yul\":7:419   */\n      swap4\n      swap3\n      pop\n      pop\n      pop\n      jump\t// out\n        /* \"#utility.yul\":439:779   */\n    tag_199:\n        /* \"#utility.yul\":495:500   */\n      0x00\n        /* \"#utility.yul\":544:547   */\n      dup3\n        /* \"#utility.yul\":537:541   */\n      0x1f\n        /* \"#utility.yul\":529:535   */\n      dup4\n        /* \"#utility.yul\":525:542   */\n      add\n        /* \"#utility.yul\":521:548   */\n      slt\n        /* \"#utility.yul\":511:633   */\n      tag_201\n      jumpi\n        /* \"#utility.yul\":552:631   */\n      tag_202\n      tag_203\n      jump\t// in\n    tag_202:\n        /* \"#utility.yul\":511:633   */\n    tag_201:\n        /* \"#utility.yul\":669:675   */\n      dup2\n        /* \"#utility.yul\":656:676   */\n      calldataload\n        /* \"#utility.yul\":694:773   */\n      tag_204\n        /* \"#utility.yul\":769:772   */\n      dup5\n        /* \"#utility.yul\":761:767   */\n      dup3\n        /* \"#utility.yul\":754:758   */\n      0x20\n        /* \"#utility.yul\":746:752   */\n      dup7\n        /* \"#utility.yul\":742:759   */\n      add\n        /* \"#utility.yul\":694:773   */\n      tag_188\n      jump\t// in\n    tag_204:\n        /* \"#utility.yul\":685:773   */\n      swap2\n      pop\n        /* \"#utility.yul\":501:779   */\n      pop\n        /* \"#utility.yul\":439:779   */\n      swap3\n      swap2\n      pop\n      pop\n      jump\t// out\n        /* \"#utility.yul\":785:924   */\n    tag_205:\n        /* \"#utility.yul\":831:836   */\n      0x00\n        /* \"#utility.yul\":869:875   */\n      dup2\n        /* \"#utility.yul\":856:876   */\n      calldataload\n        /* \"#utility.yul\":847:876   */\n      swap1\n      pop\n        /* \"#utility.yul\":885:918   */\n      tag_207\n        /* \"#utility.yul\":912:917   */\n      dup2\n        /* \"#utility.yul\":885:918   */\n      tag_208\n      jump\t// in\n    tag_207:\n        /* \"#utility.yul\":785:924   */\n      swap3\n      swap2\n      pop\n      pop\n      jump\t// out\n        /* \"#utility.yul\":930:1909   */\n    tag_15:\n        /* \"#utility.yul\":1027:1033   */\n      0x00\n        /* \"#utility.yul\":1035:1041   */\n      dup1\n        /* \"#utility.yul\":1043:1049   */\n      0x00\n        /* \"#utility.yul\":1092:1094   */\n      0x60\n        /* \"#utility.yul\":1080:1089   */\n      dup5\n        /* \"#utility.yul\":1071:1078   */\n      dup7\n        /* \"#utility.yul\":1067:1090   */\n      sub\n        /* \"#utility.yul\":1063:1095   */\n      slt\n        /* \"#utility.yul\":1060:1179   */\n      iszero\n      tag_210\n      jumpi\n        /* \"#utility.yul\":1098:1177   */\n      tag_211\n      tag_212\n      jump\t// in\n    tag_211:\n        /* \"#utility.yul\":1060:1179   */\n    tag_210:\n        /* \"#utility.yul\":1246:1247   */\n      0x00\n        /* \"#utility.yul\":1235:1244   */\n      dup5\n        /* \"#utility.yul\":1231:1248   */\n      add\n        /* \"#utility.yul\":1218:1249   */\n      calldataload\n        /* \"#utility.yul\":1276:1294   */\n      0xffffffffffffffff\n        /* \"#utility.yul\":1268:1274   */\n      dup2\n        /* \"#utility.yul\":1265:1295   */\n      gt\n        /* \"#utility.yul\":1262:1379   */\n      iszero\n      tag_213\n      jumpi\n        /* \"#utility.yul\":1298:1377   */\n      tag_214\n      tag_215\n      jump\t// in\n    tag_214:\n        /* \"#utility.yul\":1262:1379   */\n    tag_213:\n        /* \"#utility.yul\":1403:1466   */\n      tag_216\n        /* \"#utility.yul\":1458:1465   */\n      dup7\n        /* \"#utility.yul\":1449:1455   */\n      dup3\n        /* \"#utility.yul\":1438:1447   */\n      dup8\n        /* \"#utility.yul\":1434:1456   */\n      add\n        /* \"#utility.yul\":1403:1466   */\n      tag_199\n      jump\t// in\n    tag_216:\n        /* \"#utility.yul\":1393:1466   */\n      swap4\n      pop\n        /* \"#utility.yul\":1189:1476   */\n      pop\n        /* \"#utility.yul\":1543:1545   */\n      0x20\n        /* \"#utility.yul\":1532:1541   */\n      dup5\n        /* \"#utility.yul\":1528:1546   */\n      add\n        /* \"#utility.yul\":1515:1547   */\n      calldataload\n        /* \"#utility.yul\":1574:1592   */\n      0xffffffffffffffff\n        /* \"#utility.yul\":1566:1572   */\n      dup2\n        /* \"#utility.yul\":1563:1593   */\n      gt\n        /* \"#utility.yul\":1560:1677   */\n      iszero\n      tag_217\n      jumpi\n        /* \"#utility.yul\":1596:1675   */\n      tag_218\n      tag_215\n      jump\t// in\n    tag_218:\n        /* \"#utility.yul\":1560:1677   */\n    tag_217:\n        /* \"#utility.yul\":1701:1764   */\n      tag_219\n        /* \"#utility.yul\":1756:1763   */\n      dup7\n        /* \"#utility.yul\":1747:1753   */\n      dup3\n        /* \"#utility.yul\":1736:1745   */\n      dup8\n        /* \"#utility.yul\":1732:1754   */\n      add\n        /* \"#utility.yul\":1701:1764   */\n      tag_199\n      jump\t// in\n    tag_219:\n        /* \"#utility.yul\":1691:1764   */\n      swap3\n      pop\n        /* \"#utility.yul\":1486:1774   */\n      pop\n        /* \"#utility.yul\":1813:1815   */\n      0x40\n        /* \"#utility.yul\":1839:1892   */\n      tag_220\n        /* \"#utility.yul\":1884:1891   */\n      dup7\n        /* \"#utility.yul\":1875:1881   */\n      dup3\n        /* \"#utility.yul\":1864:1873   */\n      dup8\n        /* \"#utility.yul\":1860:1882   */\n      add\n        /* \"#utility.yul\":1839:1892   */\n      tag_205\n      jump\t// in\n    tag_220:\n        /* \"#utility.yul\":1829:1892   */\n      swap2\n      pop\n        /* \"#utility.yul\":1784:1902   */\n      pop\n        /* \"#utility.yul\":930:1909   */\n      swap3\n      pop\n      swap3\n      pop\n      swap3\n      jump\t// out\n        /* \"#utility.yul\":1915:2244   */\n    tag_10:\n        /* \"#utility.yul\":1974:1980   */\n      0x00\n        /* \"#utility.yul\":2023:2025   */\n      0x20\n        /* \"#utility.yul\":2011:2020   */\n      dup3\n        /* \"#utility.yul\":2002:2009   */\n      dup5\n        /* \"#utility.yul\":1998:2021   */\n      sub\n        /* \"#utility.yul\":1994:2026   */\n      slt\n        /* \"#utility.yul\":1991:2110   */\n      iszero\n      tag_222\n      jumpi\n        /* \"#utility.yul\":2029:2108   */\n      tag_223\n      tag_212\n      jump\t// in\n    tag_223:\n        /* \"#utility.yul\":1991:2110   */\n    tag_222:\n        /* \"#utility.yul\":2149:2150   */\n      0x00\n        /* \"#utility.yul\":2174:2227   */\n      tag_224\n        /* \"#utility.yul\":2219:2226   */\n      dup5\n        /* \"#utility.yul\":2210:2216   */\n      dup3\n        /* \"#utility.yul\":2199:2208   */\n      dup6\n        /* \"#utility.yul\":2195:2217   */\n      add\n        /* \"#utility.yul\":2174:2227   */\n      tag_205\n      jump\t// in\n    tag_224:\n        /* \"#utility.yul\":2164:2227   */\n      swap2\n      pop\n        /* \"#utility.yul\":2120:2237   */\n      pop\n        /* \"#utility.yul\":1915:2244   */\n      swap3\n      swap2\n      pop\n      pop\n      jump\t// out\n        /* \"#utility.yul\":2250:2392   */\n    tag_225:\n        /* \"#utility.yul\":2353:2385   */\n      tag_227\n        /* \"#utility.yul\":2379:2384   */\n      dup2\n        /* \"#utility.yul\":2353:2385   */\n      tag_228\n      jump\t// in\n    tag_227:\n        /* \"#utility.yul\":2348:2351   */\n      dup3\n        /* \"#utility.yul\":2341:2386   */\n      mstore\n        /* \"#utility.yul\":2250:2392   */\n      pop\n      pop\n      jump\t// out\n        /* \"#utility.yul\":2398:2516   */\n    tag_229:\n        /* \"#utility.yul\":2485:2509   */\n      tag_231\n        /* \"#utility.yul\":2503:2508   */\n      dup2\n        /* \"#utility.yul\":2485:2509   */\n      tag_232\n      jump\t// in\n    tag_231:\n        /* \"#utility.yul\":2480:2483   */\n      dup3\n        /* \"#utility.yul\":2473:2510   */\n      mstore\n        /* \"#utility.yul\":2398:2516   */\n      pop\n      pop\n      jump\t// out\n        /* \"#utility.yul\":2522:2631   */\n    tag_233:\n        /* \"#utility.yul\":2603:2624   */\n      tag_235\n        /* \"#utility.yul\":2618:2623   */\n      dup2\n        /* \"#utility.yul\":2603:2624   */\n      tag_236\n      jump\t// in\n    tag_235:\n        /* \"#utility.yul\":2598:2601   */\n      dup3\n        /* \"#utility.yul\":2591:2625   */\n      mstore\n        /* \"#utility.yul\":2522:2631   */\n      pop\n      pop\n      jump\t// out\n        /* \"#utility.yul\":2637:3001   */\n    tag_237:\n        /* \"#utility.yul\":2725:2728   */\n      0x00\n        /* \"#utility.yul\":2753:2792   */\n      tag_239\n        /* \"#utility.yul\":2786:2791   */\n      dup3\n        /* \"#utility.yul\":2753:2792   */\n      tag_240\n      jump\t// in\n    tag_239:\n        /* \"#utility.yul\":2808:2879   */\n      tag_241\n        /* \"#utility.yul\":2872:2878   */\n      dup2\n        /* \"#utility.yul\":2867:2870   */\n      dup6\n        /* \"#utility.yul\":2808:2879   */\n      tag_242\n      jump\t// in\n    tag_241:\n        /* \"#utility.yul\":2801:2879   */\n      swap4\n      pop\n        /* \"#utility.yul\":2888:2940   */\n      tag_243\n        /* \"#utility.yul\":2933:2939   */\n      dup2\n        /* \"#utility.yul\":2928:2931   */\n      dup6\n        /* \"#utility.yul\":2921:2925   */\n      0x20\n        /* \"#utility.yul\":2914:2919   */\n      dup7\n        /* \"#utility.yul\":2910:2926   */\n      add\n        /* \"#utility.yul\":2888:2940   */\n      tag_244\n      jump\t// in\n    tag_243:\n        /* \"#utility.yul\":2965:2994   */\n      tag_245\n        /* \"#utility.yul\":2987:2993   */\n      dup2\n        /* \"#utility.yul\":2965:2994   */\n      tag_246\n      jump\t// in\n    tag_245:\n        /* \"#utility.yul\":2960:2963   */\n      dup5\n        /* \"#utility.yul\":2956:2995   */\n      add\n        /* \"#utility.yul\":2949:2995   */\n      swap2\n      pop\n        /* \"#utility.yul\":2729:3001   */\n      pop\n        /* \"#utility.yul\":2637:3001   */\n      swap3\n      swap2\n      pop\n      pop\n      jump\t// out\n        /* \"#utility.yul\":3007:3373   */\n    tag_247:\n        /* \"#utility.yul\":3149:3152   */\n      0x00\n        /* \"#utility.yul\":3170:3237   */\n      tag_249\n        /* \"#utility.yul\":3234:3236   */\n      0x2a\n        /* \"#utility.yul\":3229:3232   */\n      dup4\n        /* \"#utility.yul\":3170:3237   */\n      tag_242\n      jump\t// in\n    tag_249:\n        /* \"#utility.yul\":3163:3237   */\n      swap2\n      pop\n        /* \"#utility.yul\":3246:3339   */\n      tag_250\n        /* \"#utility.yul\":3335:3338   */\n      dup3\n        /* \"#utility.yul\":3246:3339   */\n      tag_251\n      jump\t// in\n    tag_250:\n        /* \"#utility.yul\":3364:3366   */\n      0x40\n        /* \"#utility.yul\":3359:3362   */\n      dup3\n        /* \"#utility.yul\":3355:3367   */\n      add\n        /* \"#utility.yul\":3348:3367   */\n      swap1\n      pop\n        /* \"#utility.yul\":3007:3373   */\n      swap2\n      swap1\n      pop\n      jump\t// out\n        /* \"#utility.yul\":3379:3745   */\n    tag_252:\n        /* \"#utility.yul\":3521:3524   */\n      0x00\n        /* \"#utility.yul\":3542:3609   */\n      tag_254\n        /* \"#utility.yul\":3606:3608   */\n      0x18\n        /* \"#utility.yul\":3601:3604   */\n      dup4\n        /* \"#utility.yul\":3542:3609   */\n      tag_242\n      jump\t// in\n    tag_254:\n        /* \"#utility.yul\":3535:3609   */\n      swap2\n      pop\n        /* \"#utility.yul\":3618:3711   */\n      tag_255\n        /* \"#utility.yul\":3707:3710   */\n      dup3\n        /* \"#utility.yul\":3618:3711   */\n      tag_256\n      jump\t// in\n    tag_255:\n        /* \"#utility.yul\":3736:3738   */\n      0x20\n        /* \"#utility.yul\":3731:3734   */\n      dup3\n        /* \"#utility.yul\":3727:3739   */\n      add\n        /* \"#utility.yul\":3720:3739   */\n      swap1\n      pop\n        /* \"#utility.yul\":3379:3745   */\n      swap2\n      swap1\n      pop\n      jump\t// out\n        /* \"#utility.yul\":3751:4117   */\n    tag_257:\n        /* \"#utility.yul\":3893:3896   */\n      0x00\n        /* \"#utility.yul\":3914:3981   */\n      tag_259\n        /* \"#utility.yul\":3978:3980   */\n      0x20\n        /* \"#utility.yul\":3973:3976   */\n      dup4\n        /* \"#utility.yul\":3914:3981   */\n      tag_242\n      jump\t// in\n    tag_259:\n        /* \"#utility.yul\":3907:3981   */\n      swap2\n      pop\n        /* \"#utility.yul\":3990:4083   */\n      tag_260\n        /* \"#utility.yul\":4079:4082   */\n      dup3\n        /* \"#utility.yul\":3990:4083   */\n      tag_261\n      jump\t// in\n    tag_260:\n        /* \"#utility.yul\":4108:4110   */\n      0x20\n        /* \"#utility.yul\":4103:4106   */\n      dup3\n        /* \"#utility.yul\":4099:4111   */\n      add\n        /* \"#utility.yul\":4092:4111   */\n      swap1\n      pop\n        /* \"#utility.yul\":3751:4117   */\n      swap2\n      swap1\n      pop\n      jump\t// out\n        /* \"#utility.yul\":4123:4489   */\n    tag_262:\n        /* \"#utility.yul\":4265:4268   */\n      0x00\n        /* \"#utility.yul\":4286:4353   */\n      tag_264\n        /* \"#utility.yul\":4350:4352   */\n      0x1b\n        /* \"#utility.yul\":4345:4348   */\n      dup4\n        /* \"#utility.yul\":4286:4353   */\n      tag_242\n      jump\t// in\n    tag_264:\n        /* \"#utility.yul\":4279:4353   */\n      swap2\n      pop\n        /* \"#utility.yul\":4362:4455   */\n      tag_265\n        /* \"#utility.yul\":4451:4454   */\n      dup3\n        /* \"#utility.yul\":4362:4455   */\n      tag_266\n      jump\t// in\n    tag_265:\n        /* \"#utility.yul\":4480:4482   */\n      0x20\n        /* \"#utility.yul\":4475:4478   */\n      dup3\n        /* \"#utility.yul\":4471:4483   */\n      add\n        /* \"#utility.yul\":4464:4483   */\n      swap1\n      pop\n        /* \"#utility.yul\":4123:4489   */\n      swap2\n      swap1\n      pop\n      jump\t// out\n        /* \"#utility.yul\":4495:4861   */\n    tag_267:\n        /* \"#utility.yul\":4637:4640   */\n      0x00\n        /* \"#utility.yul\":4658:4725   */\n      tag_269\n        /* \"#utility.yul\":4722:4724   */\n      0x24\n        /* \"#utility.yul\":4717:4720   */\n      dup4\n        /* \"#utility.yul\":4658:4725   */\n      tag_242\n      jump\t// in\n    tag_269:\n        /* \"#utility.yul\":4651:4725   */\n      swap2\n      pop\n        /* \"#utility.yul\":4734:4827   */\n      tag_270\n        /* \"#utility.yul\":4823:4826   */\n      dup3\n        /* \"#utility.yul\":4734:4827   */\n      tag_271\n      jump\t// in\n    tag_270:\n        /* \"#utility.yul\":4852:4854   */\n      0x40\n        /* \"#utility.yul\":4847:4850   */\n      dup3\n        /* \"#utility.yul\":4843:4855   */\n      add\n        /* \"#utility.yul\":4836:4855   */\n      swap1\n      pop\n        /* \"#utility.yul\":4495:4861   */\n      swap2\n      swap1\n      pop\n      jump\t// out\n        /* \"#utility.yul\":4867:5233   */\n    tag_272:\n        /* \"#utility.yul\":5009:5012   */\n      0x00\n        /* \"#utility.yul\":5030:5097   */\n      tag_274\n        /* \"#utility.yul\":5094:5096   */\n      0x21\n        /* \"#utility.yul\":5089:5092   */\n      dup4\n        /* \"#utility.yul\":5030:5097   */\n      tag_242\n      jump\t// in\n    tag_274:\n        /* \"#utility.yul\":5023:5097   */\n      swap2\n      pop\n        /* \"#utility.yul\":5106:5199   */\n      tag_275\n        /* \"#utility.yul\":5195:5198   */\n      dup3\n        /* \"#utility.yul\":5106:5199   */\n      tag_276\n      jump\t// in\n    tag_275:\n        /* \"#utility.yul\":5224:5226   */\n      0x40\n        /* \"#utility.yul\":5219:5222   */\n      dup3\n        /* \"#utility.yul\":5215:5227   */\n      add\n        /* \"#utility.yul\":5208:5227   */\n      swap1\n      pop\n        /* \"#utility.yul\":4867:5233   */\n      swap2\n      swap1\n      pop\n      jump\t// out\n        /* \"#utility.yul\":5239:5605   */\n    tag_277:\n        /* \"#utility.yul\":5381:5384   */\n      0x00\n        /* \"#utility.yul\":5402:5469   */\n      tag_279\n        /* \"#utility.yul\":5466:5468   */\n      0x1a\n        /* \"#utility.yul\":5461:5464   */\n      dup4\n        /* \"#utility.yul\":5402:5469   */\n      tag_242\n      jump\t// in\n    tag_279:\n        /* \"#utility.yul\":5395:5469   */\n      swap2\n      pop\n        /* \"#utility.yul\":5478:5571   */\n      tag_280\n        /* \"#utility.yul\":5567:5570   */\n      dup3\n        /* \"#utility.yul\":5478:5571   */\n      tag_281\n      jump\t// in\n    tag_280:\n        /* \"#utility.yul\":5596:5598   */\n      0x20\n        /* \"#utility.yul\":5591:5594   */\n      dup3\n        /* \"#utility.yul\":5587:5599   */\n      add\n        /* \"#utility.yul\":5580:5599   */\n      swap1\n      pop\n        /* \"#utility.yul\":5239:5605   */\n      swap2\n      swap1\n      pop\n      jump\t// out\n        /* \"#utility.yul\":5611:5977   */\n    tag_282:\n        /* \"#utility.yul\":5753:5756   */\n      0x00\n        /* \"#utility.yul\":5774:5841   */\n      tag_284\n        /* \"#utility.yul\":5838:5840   */\n      0x18\n        /* \"#utility.yul\":5833:5836   */\n      dup4\n        /* \"#utility.yul\":5774:5841   */\n      tag_242\n      jump\t// in\n    tag_284:\n        /* \"#utility.yul\":5767:5841   */\n      swap2\n      pop\n        /* \"#utility.yul\":5850:5943   */\n      tag_285\n        /* \"#utility.yul\":5939:5942   */\n      dup3\n        /* \"#utility.yul\":5850:5943   */\n      tag_286\n      jump\t// in\n    tag_285:\n        /* \"#utility.yul\":5968:5970   */\n      0x20\n        /* \"#utility.yul\":5963:5966   */\n      dup3\n        /* \"#utility.yul\":5959:5971   */\n      add\n        /* \"#utility.yul\":5952:5971   */\n      swap1\n      pop\n        /* \"#utility.yul\":5611:5977   */\n      swap2\n      swap1\n      pop\n      jump\t// out\n        /* \"#utility.yul\":5983:6349   */\n    tag_287:\n        /* \"#utility.yul\":6125:6128   */\n      0x00\n        /* \"#utility.yul\":6146:6213   */\n      tag_289\n        /* \"#utility.yul\":6210:6212   */\n      0x0f\n        /* \"#utility.yul\":6205:6208   */\n      dup4\n        /* \"#utility.yul\":6146:6213   */\n      tag_242\n      jump\t// in\n    tag_289:\n        /* \"#utility.yul\":6139:6213   */\n      swap2\n      pop\n        /* \"#utility.yul\":6222:6315   */\n      tag_290\n        /* \"#utility.yul\":6311:6314   */\n      dup3\n        /* \"#utility.yul\":6222:6315   */\n      tag_291\n      jump\t// in\n    tag_290:\n        /* \"#utility.yul\":6340:6342   */\n      0x20\n        /* \"#utility.yul\":6335:6338   */\n      dup3\n        /* \"#utility.yul\":6331:6343   */\n      add\n        /* \"#utility.yul\":6324:6343   */\n      swap1\n      pop\n        /* \"#utility.yul\":5983:6349   */\n      swap2\n      swap1\n      pop\n      jump\t// out\n        /* \"#utility.yul\":6355:6721   */\n    tag_292:\n        /* \"#utility.yul\":6497:6500   */\n      0x00\n        /* \"#utility.yul\":6518:6585   */\n      tag_294\n        /* \"#utility.yul\":6582:6584   */\n      0x22\n        /* \"#utility.yul\":6577:6580   */\n      dup4\n        /* \"#utility.yul\":6518:6585   */\n      tag_242\n      jump\t// in\n    tag_294:\n        /* \"#utility.yul\":6511:6585   */\n      swap2\n      pop\n        /* \"#utility.yul\":6594:6687   */\n      tag_295\n        /* \"#utility.yul\":6683:6686   */\n      dup3\n        /* \"#utility.yul\":6594:6687   */\n      tag_296\n      jump\t// in\n    tag_295:\n        /* \"#utility.yul\":6712:6714   */\n      0x40\n        /* \"#utility.yul\":6707:6710   */\n      dup3\n        /* \"#utility.yul\":6703:6715   */\n      add\n        /* \"#utility.yul\":6696:6715   */\n      swap1\n      pop\n        /* \"#utility.yul\":6355:6721   */\n      swap2\n      swap1\n      pop\n      jump\t// out\n        /* \"#utility.yul\":6727:7093   */\n    tag_297:\n        /* \"#utility.yul\":6869:6872   */\n      0x00\n        /* \"#utility.yul\":6890:6957   */\n      tag_299\n        /* \"#utility.yul\":6954:6956   */\n      0x1f\n        /* \"#utility.yul\":6949:6952   */\n      dup4\n        /* \"#utility.yul\":6890:6957   */\n      tag_242\n      jump\t// in\n    tag_299:\n        /* \"#utility.yul\":6883:6957   */\n      swap2\n      pop\n        /* \"#utility.yul\":6966:7059   */\n      tag_300\n        /* \"#utility.yul\":7055:7058   */\n      dup3\n        /* \"#utility.yul\":6966:7059   */\n      tag_301\n      jump\t// in\n    tag_300:\n        /* \"#utility.yul\":7084:7086   */\n      0x20\n        /* \"#utility.yul\":7079:7082   */\n      dup3\n        /* \"#utility.yul\":7075:7087   */\n      add\n        /* \"#utility.yul\":7068:7087   */\n      swap1\n      pop\n        /* \"#utility.yul\":6727:7093   */\n      swap2\n      swap1\n      pop\n      jump\t// out\n        /* \"#utility.yul\":7099:7217   */\n    tag_302:\n        /* \"#utility.yul\":7186:7210   */\n      tag_304\n        /* \"#utility.yul\":7204:7209   */\n      dup2\n        /* \"#utility.yul\":7186:7210   */\n      tag_305\n      jump\t// in\n    tag_304:\n        /* \"#utility.yul\":7181:7184   */\n      dup3\n        /* \"#utility.yul\":7174:7211   */\n      mstore\n        /* \"#utility.yul\":7099:7217   */\n      pop\n      pop\n      jump\t// out\n        /* \"#utility.yul\":7223:8442   */\n    tag_22:\n        /* \"#utility.yul\":7572:7576   */\n      0x00\n        /* \"#utility.yul\":7610:7613   */\n      0x0100\n        /* \"#utility.yul\":7599:7608   */\n      dup3\n        /* \"#utility.yul\":7595:7614   */\n      add\n        /* \"#utility.yul\":7587:7614   */\n      swap1\n      pop\n        /* \"#utility.yul\":7660:7669   */\n      dup2\n        /* \"#utility.yul\":7654:7658   */\n      dup2\n        /* \"#utility.yul\":7650:7670   */\n      sub\n        /* \"#utility.yul\":7646:7647   */\n      0x00\n        /* \"#utility.yul\":7635:7644   */\n      dup4\n        /* \"#utility.yul\":7631:7648   */\n      add\n        /* \"#utility.yul\":7624:7671   */\n      mstore\n        /* \"#utility.yul\":7688:7766   */\n      tag_307\n        /* \"#utility.yul\":7761:7765   */\n      dup2\n        /* \"#utility.yul\":7752:7758   */\n      dup12\n        /* \"#utility.yul\":7688:7766   */\n      tag_237\n      jump\t// in\n    tag_307:\n        /* \"#utility.yul\":7680:7766   */\n      swap1\n      pop\n        /* \"#utility.yul\":7813:7822   */\n      dup2\n        /* \"#utility.yul\":7807:7811   */\n      dup2\n        /* \"#utility.yul\":7803:7823   */\n      sub\n        /* \"#utility.yul\":7798:7800   */\n      0x20\n        /* \"#utility.yul\":7787:7796   */\n      dup4\n        /* \"#utility.yul\":7783:7801   */\n      add\n        /* \"#utility.yul\":7776:7824   */\n      mstore\n        /* \"#utility.yul\":7841:7919   */\n      tag_308\n        /* \"#utility.yul\":7914:7918   */\n      dup2\n        /* \"#utility.yul\":7905:7911   */\n      dup11\n        /* \"#utility.yul\":7841:7919   */\n      tag_237\n      jump\t// in\n    tag_308:\n        /* \"#utility.yul\":7833:7919   */\n      swap1\n      pop\n        /* \"#utility.yul\":7929:8001   */\n      tag_309\n        /* \"#utility.yul\":7997:7999   */\n      0x40\n        /* \"#utility.yul\":7986:7995   */\n      dup4\n        /* \"#utility.yul\":7982:8000   */\n      add\n        /* \"#utility.yul\":7973:7979   */\n      dup10\n        /* \"#utility.yul\":7929:8001   */\n      tag_302\n      jump\t// in\n    tag_309:\n        /* \"#utility.yul\":8011:8083   */\n      tag_310\n        /* \"#utility.yul\":8079:8081   */\n      0x60\n        /* \"#utility.yul\":8068:8077   */\n      dup4\n        /* \"#utility.yul\":8064:8082   */\n      add\n        /* \"#utility.yul\":8055:8061   */\n      dup9\n        /* \"#utility.yul\":8011:8083   */\n      tag_302\n      jump\t// in\n    tag_310:\n        /* \"#utility.yul\":8093:8182   */\n      tag_311\n        /* \"#utility.yul\":8177:8180   */\n      0x80\n        /* \"#utility.yul\":8166:8175   */\n      dup4\n        /* \"#utility.yul\":8162:8181   */\n      add\n        /* \"#utility.yul\":8153:8159   */\n      dup8\n        /* \"#utility.yul\":8093:8182   */\n      tag_225\n      jump\t// in\n    tag_311:\n        /* \"#utility.yul\":8192:8281   */\n      tag_312\n        /* \"#utility.yul\":8276:8279   */\n      0xa0\n        /* \"#utility.yul\":8265:8274   */\n      dup4\n        /* \"#utility.yul\":8261:8280   */\n      add\n        /* \"#utility.yul\":8252:8258   */\n      dup7\n        /* \"#utility.yul\":8192:8281   */\n      tag_225\n      jump\t// in\n    tag_312:\n        /* \"#utility.yul\":8291:8358   */\n      tag_313\n        /* \"#utility.yul\":8353:8356   */\n      0xc0\n        /* \"#utility.yul\":8342:8351   */\n      dup4\n        /* \"#utility.yul\":8338:8357   */\n      add\n        /* \"#utility.yul\":8329:8335   */\n      dup6\n        /* \"#utility.yul\":8291:8358   */\n      tag_233\n      jump\t// in\n    tag_313:\n        /* \"#utility.yul\":8368:8435   */\n      tag_314\n        /* \"#utility.yul\":8430:8433   */\n      0xe0\n        /* \"#utility.yul\":8419:8428   */\n      dup4\n        /* \"#utility.yul\":8415:8434   */\n      add\n        /* \"#utility.yul\":8406:8412   */\n      dup5\n        /* \"#utility.yul\":8368:8435   */\n      tag_233\n      jump\t// in\n    tag_314:\n        /* \"#utility.yul\":7223:8442   */\n      swap10\n      swap9\n      pop\n      pop\n      pop\n      pop\n      pop\n      pop\n      pop\n      pop\n      pop\n      jump\t// out\n        /* \"#utility.yul\":8448:8981   */\n    tag_87:\n        /* \"#utility.yul\":8617:8621   */\n      0x00\n        /* \"#utility.yul\":8655:8657   */\n      0x60\n        /* \"#utility.yul\":8644:8653   */\n      dup3\n        /* \"#utility.yul\":8640:8658   */\n      add\n        /* \"#utility.yul\":8632:8658   */\n      swap1\n      pop\n        /* \"#utility.yul\":8704:8713   */\n      dup2\n        /* \"#utility.yul\":8698:8702   */\n      dup2\n        /* \"#utility.yul\":8694:8714   */\n      sub\n        /* \"#utility.yul\":8690:8691   */\n      0x00\n        /* \"#utility.yul\":8679:8688   */\n      dup4\n        /* \"#utility.yul\":8675:8692   */\n      add\n        /* \"#utility.yul\":8668:8715   */\n      mstore\n        /* \"#utility.yul\":8732:8810   */\n      tag_316\n        /* \"#utility.yul\":8805:8809   */\n      dup2\n        /* \"#utility.yul\":8796:8802   */\n      dup7\n        /* \"#utility.yul\":8732:8810   */\n      tag_237\n      jump\t// in\n    tag_316:\n        /* \"#utility.yul\":8724:8810   */\n      swap1\n      pop\n        /* \"#utility.yul\":8820:8892   */\n      tag_317\n        /* \"#utility.yul\":8888:8890   */\n      0x20\n        /* \"#utility.yul\":8877:8886   */\n      dup4\n        /* \"#utility.yul\":8873:8891   */\n      add\n        /* \"#utility.yul\":8864:8870   */\n      dup6\n        /* \"#utility.yul\":8820:8892   */\n      tag_302\n      jump\t// in\n    tag_317:\n        /* \"#utility.yul\":8902:8974   */\n      tag_318\n        /* \"#utility.yul\":8970:8972   */\n      0x40\n        /* \"#utility.yul\":8959:8968   */\n      dup4\n        /* \"#utility.yul\":8955:8973   */\n      add\n        /* \"#utility.yul\":8946:8952   */\n      dup5\n        /* \"#utility.yul\":8902:8974   */\n      tag_229\n      jump\t// in\n    tag_318:\n        /* \"#utility.yul\":8448:8981   */\n      swap5\n      swap4\n      pop\n      pop\n      pop\n      pop\n      jump\t// out\n        /* \"#utility.yul\":8987:9406   */\n    tag_158:\n        /* \"#utility.yul\":9153:9157   */\n      0x00\n        /* \"#utility.yul\":9191:9193   */\n      0x20\n        /* \"#utility.yul\":9180:9189   */\n      dup3\n        /* \"#utility.yul\":9176:9194   */\n      add\n        /* \"#utility.yul\":9168:9194   */\n      swap1\n      pop\n        /* \"#utility.yul\":9240:9249   */\n      dup2\n        /* \"#utility.yul\":9234:9238   */\n      dup2\n        /* \"#utility.yul\":9230:9250   */\n      sub\n        /* \"#utility.yul\":9226:9227   */\n      0x00\n        /* \"#utility.yul\":9215:9224   */\n      dup4\n        /* \"#utility.yul\":9211:9228   */\n      add\n        /* \"#utility.yul\":9204:9251   */\n      mstore\n        /* \"#utility.yul\":9268:9399   */\n      tag_320\n        /* \"#utility.yul\":9394:9398   */\n      dup2\n        /* \"#utility.yul\":9268:9399   */\n      tag_247\n      jump\t// in\n    tag_320:\n        /* \"#utility.yul\":9260:9399   */\n      swap1\n      pop\n        /* \"#utility.yul\":8987:9406   */\n      swap2\n      swap1\n      pop\n      jump\t// out\n        /* \"#utility.yul\":9412:9831   */\n    tag_144:\n        /* \"#utility.yul\":9578:9582   */\n      0x00\n        /* \"#utility.yul\":9616:9618   */\n      0x20\n        /* \"#utility.yul\":9605:9614   */\n      dup3\n        /* \"#utility.yul\":9601:9619   */\n      add\n        /* \"#utility.yul\":9593:9619   */\n      swap1\n      pop\n        /* \"#utility.yul\":9665:9674   */\n      dup2\n        /* \"#utility.yul\":9659:9663   */\n      dup2\n        /* \"#utility.yul\":9655:9675   */\n      sub\n        /* \"#utility.yul\":9651:9652   */\n      0x00\n        /* \"#utility.yul\":9640:9649   */\n      dup4\n        /* \"#utility.yul\":9636:9653   */\n      add\n        /* \"#utility.yul\":9629:9676   */\n      mstore\n        /* \"#utility.yul\":9693:9824   */\n      tag_322\n        /* \"#utility.yul\":9819:9823   */\n      dup2\n        /* \"#utility.yul\":9693:9824   */\n      tag_252\n      jump\t// in\n    tag_322:\n        /* \"#utility.yul\":9685:9824   */\n      swap1\n      pop\n        /* \"#utility.yul\":9412:9831   */\n      swap2\n      swap1\n      pop\n      jump\t// out\n        /* \"#utility.yul\":9837:10256   */\n    tag_48:\n        /* \"#utility.yul\":10003:10007   */\n      0x00\n        /* \"#utility.yul\":10041:10043   */\n      0x20\n        /* \"#utility.yul\":10030:10039   */\n      dup3\n        /* \"#utility.yul\":10026:10044   */\n      add\n        /* \"#utility.yul\":10018:10044   */\n      swap1\n      pop\n        /* \"#utility.yul\":10090:10099   */\n      dup2\n        /* \"#utility.yul\":10084:10088   */\n      dup2\n        /* \"#utility.yul\":10080:10100   */\n      sub\n        /* \"#utility.yul\":10076:10077   */\n      0x00\n        /* \"#utility.yul\":10065:10074   */\n      dup4\n        /* \"#utility.yul\":10061:10078   */\n      add\n        /* \"#utility.yul\":10054:10101   */\n      mstore\n        /* \"#utility.yul\":10118:10249   */\n      tag_324\n        /* \"#utility.yul\":10244:10248   */\n      dup2\n        /* \"#utility.yul\":10118:10249   */\n      tag_257\n      jump\t// in\n    tag_324:\n        /* \"#utility.yul\":10110:10249   */\n      swap1\n      pop\n        /* \"#utility.yul\":9837:10256   */\n      swap2\n      swap1\n      pop\n      jump\t// out\n        /* \"#utility.yul\":10262:10681   */\n    tag_41:\n        /* \"#utility.yul\":10428:10432   */\n      0x00\n        /* \"#utility.yul\":10466:10468   */\n      0x20\n        /* \"#utility.yul\":10455:10464   */\n      dup3\n        /* \"#utility.yul\":10451:10469   */\n      add\n        /* \"#utility.yul\":10443:10469   */\n      swap1\n      pop\n        /* \"#utility.yul\":10515:10524   */\n      dup2\n        /* \"#utility.yul\":10509:10513   */\n      dup2\n        /* \"#utility.yul\":10505:10525   */\n      sub\n        /* \"#utility.yul\":10501:10502   */\n      0x00\n        /* \"#utility.yul\":10490:10499   */\n      dup4\n        /* \"#utility.yul\":10486:10503   */\n      add\n        /* \"#utility.yul\":10479:10526   */\n      mstore\n        /* \"#utility.yul\":10543:10674   */\n      tag_326\n        /* \"#utility.yul\":10669:10673   */\n      dup2\n        /* \"#utility.yul\":10543:10674   */\n      tag_262\n      jump\t// in\n    tag_326:\n        /* \"#utility.yul\":10535:10674   */\n      swap1\n      pop\n        /* \"#utility.yul\":10262:10681   */\n      swap2\n      swap1\n      pop\n      jump\t// out\n        /* \"#utility.yul\":10687:11106   */\n    tag_110:\n        /* \"#utility.yul\":10853:10857   */\n      0x00\n        /* \"#utility.yul\":10891:10893   */\n      0x20\n        /* \"#utility.yul\":10880:10889   */\n      dup3\n        /* \"#utility.yul\":10876:10894   */\n      add\n        /* \"#utility.yul\":10868:10894   */\n      swap1\n      pop\n        /* \"#utility.yul\":10940:10949   */\n      dup2\n        /* \"#utility.yul\":10934:10938   */\n      dup2\n        /* \"#utility.yul\":10930:10950   */\n      sub\n        /* \"#utility.yul\":10926:10927   */\n      0x00\n        /* \"#utility.yul\":10915:10924   */\n      dup4\n        /* \"#utility.yul\":10911:10928   */\n      add\n        /* \"#utility.yul\":10904:10951   */\n      mstore\n        /* \"#utility.yul\":10968:11099   */\n      tag_328\n        /* \"#utility.yul\":11094:11098   */\n      dup2\n        /* \"#utility.yul\":10968:11099   */\n      tag_267\n      jump\t// in\n    tag_328:\n        /* \"#utility.yul\":10960:11099   */\n      swap1\n      pop\n        /* \"#utility.yul\":10687:11106   */\n      swap2\n      swap1\n      pop\n      jump\t// out\n        /* \"#utility.yul\":11112:11531   */\n    tag_124:\n        /* \"#utility.yul\":11278:11282   */\n      0x00\n        /* \"#utility.yul\":11316:11318   */\n      0x20\n        /* \"#utility.yul\":11305:11314   */\n      dup3\n        /* \"#utility.yul\":11301:11319   */\n      add\n        /* \"#utility.yul\":11293:11319   */\n      swap1\n      pop\n        /* \"#utility.yul\":11365:11374   */\n      dup2\n        /* \"#utility.yul\":11359:11363   */\n      dup2\n        /* \"#utility.yul\":11355:11375   */\n      sub\n        /* \"#utility.yul\":11351:11352   */\n      0x00\n        /* \"#utility.yul\":11340:11349   */\n      dup4\n        /* \"#utility.yul\":11336:11353   */\n      add\n        /* \"#utility.yul\":11329:11376   */\n      mstore\n        /* \"#utility.yul\":11393:11524   */\n      tag_330\n        /* \"#utility.yul\":11519:11523   */\n      dup2\n        /* \"#utility.yul\":11393:11524   */\n      tag_272\n      jump\t// in\n    tag_330:\n        /* \"#utility.yul\":11385:11524   */\n      swap1\n      pop\n        /* \"#utility.yul\":11112:11531   */\n      swap2\n      swap1\n      pop\n      jump\t// out\n        /* \"#utility.yul\":11537:11956   */\n    tag_75:\n        /* \"#utility.yul\":11703:11707   */\n      0x00\n        /* \"#utility.yul\":11741:11743   */\n      0x20\n        /* \"#utility.yul\":11730:11739   */\n      dup3\n        /* \"#utility.yul\":11726:11744   */\n      add\n        /* \"#utility.yul\":11718:11744   */\n      swap1\n      pop\n        /* \"#utility.yul\":11790:11799   */\n      dup2\n        /* \"#utility.yul\":11784:11788   */\n      dup2\n        /* \"#utility.yul\":11780:11800   */\n      sub\n        /* \"#utility.yul\":11776:11777   */\n      0x00\n        /* \"#utility.yul\":11765:11774   */\n      dup4\n        /* \"#utility.yul\":11761:11778   */\n      add\n        /* \"#utility.yul\":11754:11801   */\n      mstore\n        /* \"#utility.yul\":11818:11949   */\n      tag_332\n        /* \"#utility.yul\":11944:11948   */\n      dup2\n        /* \"#utility.yul\":11818:11949   */\n      tag_277\n      jump\t// in\n    tag_332:\n        /* \"#utility.yul\":11810:11949   */\n      swap1\n      pop\n        /* \"#utility.yul\":11537:11956   */\n      swap2\n      swap1\n      pop\n      jump\t// out\n        /* \"#utility.yul\":11962:12381   */\n    tag_117:\n        /* \"#utility.yul\":12128:12132   */\n      0x00\n        /* \"#utility.yul\":12166:12168   */\n      0x20\n        /* \"#utility.yul\":12155:12164   */\n      dup3\n        /* \"#utility.yul\":12151:12169   */\n      add\n        /* \"#utility.yul\":12143:12169   */\n      swap1\n      pop\n        /* \"#utility.yul\":12215:12224   */\n      dup2\n        /* \"#utility.yul\":12209:12213   */\n      dup2\n        /* \"#utility.yul\":12205:12225   */\n      sub\n        /* \"#utility.yul\":12201:12202   */\n      0x00\n        /* \"#utility.yul\":12190:12199   */\n      dup4\n        /* \"#utility.yul\":12186:12203   */\n      add\n        /* \"#utility.yul\":12179:12226   */\n      mstore\n        /* \"#utility.yul\":12243:12374   */\n      tag_334\n        /* \"#utility.yul\":12369:12373   */\n      dup2\n        /* \"#utility.yul\":12243:12374   */\n      tag_282\n      jump\t// in\n    tag_334:\n        /* \"#utility.yul\":12235:12374   */\n      swap1\n      pop\n        /* \"#utility.yul\":11962:12381   */\n      swap2\n      swap1\n      pop\n      jump\t// out\n        /* \"#utility.yul\":12387:12806   */\n    tag_32:\n        /* \"#utility.yul\":12553:12557   */\n      0x00\n        /* \"#utility.yul\":12591:12593   */\n      0x20\n        /* \"#utility.yul\":12580:12589   */\n      dup3\n        /* \"#utility.yul\":12576:12594   */\n      add\n        /* \"#utility.yul\":12568:12594   */\n      swap1\n      pop\n        /* \"#utility.yul\":12640:12649   */\n      dup2\n        /* \"#utility.yul\":12634:12638   */\n      dup2\n        /* \"#utility.yul\":12630:12650   */\n      sub\n        /* \"#utility.yul\":12626:12627   */\n      0x00\n        /* \"#utility.yul\":12615:12624   */\n      dup4\n        /* \"#utility.yul\":12611:12628   */\n      add\n        /* \"#utility.yul\":12604:12651   */\n      mstore\n        /* \"#utility.yul\":12668:12799   */\n      tag_336\n        /* \"#utility.yul\":12794:12798   */\n      dup2\n        /* \"#utility.yul\":12668:12799   */\n      tag_287\n      jump\t// in\n    tag_336:\n        /* \"#utility.yul\":12660:12799   */\n      swap1\n      pop\n        /* \"#utility.yul\":12387:12806   */\n      swap2\n      swap1\n      pop\n      jump\t// out\n        /* \"#utility.yul\":12812:13231   */\n    tag_151:\n        /* \"#utility.yul\":12978:12982   */\n      0x00\n        /* \"#utility.yul\":13016:13018   */\n      0x20\n        /* \"#utility.yul\":13005:13014   */\n      dup3\n        /* \"#utility.yul\":13001:13019   */\n      add\n        /* \"#utility.yul\":12993:13019   */\n      swap1\n      pop\n        /* \"#utility.yul\":13065:13074   */\n      dup2\n        /* \"#utility.yul\":13059:13063   */\n      dup2\n        /* \"#utility.yul\":13055:13075   */\n      sub\n        /* \"#utility.yul\":13051:13052   */\n      0x00\n        /* \"#utility.yul\":13040:13049   */\n      dup4\n        /* \"#utility.yul\":13036:13053   */\n      add\n        /* \"#utility.yul\":13029:13076   */\n      mstore\n        /* \"#utility.yul\":13093:13224   */\n      tag_338\n        /* \"#utility.yul\":13219:13223   */\n      dup2\n        /* \"#utility.yul\":13093:13224   */\n      tag_292\n      jump\t// in\n    tag_338:\n        /* \"#utility.yul\":13085:13224   */\n      swap1\n      pop\n        /* \"#utility.yul\":12812:13231   */\n      swap2\n      swap1\n      pop\n      jump\t// out\n        /* \"#utility.yul\":13237:13656   */\n    tag_55:\n        /* \"#utility.yul\":13403:13407   */\n      0x00\n        /* \"#utility.yul\":13441:13443   */\n      0x20\n        /* \"#utility.yul\":13430:13439   */\n      dup3\n        /* \"#utility.yul\":13426:13444   */\n      add\n        /* \"#utility.yul\":13418:13444   */\n      swap1\n      pop\n        /* \"#utility.yul\":13490:13499   */\n      dup2\n        /* \"#utility.yul\":13484:13488   */\n      dup2\n        /* \"#utility.yul\":13480:13500   */\n      sub\n        /* \"#utility.yul\":13476:13477   */\n      0x00\n        /* \"#utility.yul\":13465:13474   */\n      dup4\n        /* \"#utility.yul\":13461:13478   */\n      add\n        /* \"#utility.yul\":13454:13501   */\n      mstore\n        /* \"#utility.yul\":13518:13649   */\n      tag_340\n        /* \"#utility.yul\":13644:13648   */\n      dup2\n        /* \"#utility.yul\":13518:13649   */\n      tag_297\n      jump\t// in\n    tag_340:\n        /* \"#utility.yul\":13510:13649   */\n      swap1\n      pop\n        /* \"#utility.yul\":13237:13656   */\n      swap2\n      swap1\n      pop\n      jump\t// out\n        /* \"#utility.yul\":13662:13884   */\n    tag_71:\n        /* \"#utility.yul\":13755:13759   */\n      0x00\n        /* \"#utility.yul\":13793:13795   */\n      0x20\n        /* \"#utility.yul\":13782:13791   */\n      dup3\n        /* \"#utility.yul\":13778:13796   */\n      add\n        /* \"#utility.yul\":13770:13796   */\n      swap1\n      pop\n        /* \"#utility.yul\":13806:13877   */\n      tag_342\n        /* \"#utility.yul\":13874:13875   */\n      0x00\n        /* \"#utility.yul\":13863:13872   */\n      dup4\n        /* \"#utility.yul\":13859:13876   */\n      add\n        /* \"#utility.yul\":13850:13856   */\n      dup5\n        /* \"#utility.yul\":13806:13877   */\n      tag_302\n      jump\t// in\n    tag_342:\n        /* \"#utility.yul\":13662:13884   */\n      swap3\n      swap2\n      pop\n      pop\n      jump\t// out\n        /* \"#utility.yul\":13890:14222   */\n    tag_134:\n        /* \"#utility.yul\":14011:14015   */\n      0x00\n        /* \"#utility.yul\":14049:14051   */\n      0x40\n        /* \"#utility.yul\":14038:14047   */\n      dup3\n        /* \"#utility.yul\":14034:14052   */\n      add\n        /* \"#utility.yul\":14026:14052   */\n      swap1\n      pop\n        /* \"#utility.yul\":14062:14133   */\n      tag_344\n        /* \"#utility.yul\":14130:14131   */\n      0x00\n        /* \"#utility.yul\":14119:14128   */\n      dup4\n        /* \"#utility.yul\":14115:14132   */\n      add\n        /* \"#utility.yul\":14106:14112   */\n      dup6\n        /* \"#utility.yul\":14062:14133   */\n      tag_302\n      jump\t// in\n    tag_344:\n        /* \"#utility.yul\":14143:14215   */\n      tag_345\n        /* \"#utility.yul\":14211:14213   */\n      0x20\n        /* \"#utility.yul\":14200:14209   */\n      dup4\n        /* \"#utility.yul\":14196:14214   */\n      add\n        /* \"#utility.yul\":14187:14193   */\n      dup5\n        /* \"#utility.yul\":14143:14215   */\n      tag_229\n      jump\t// in\n    tag_345:\n        /* \"#utility.yul\":13890:14222   */\n      swap4\n      swap3\n      pop\n      pop\n      pop\n      jump\t// out\n        /* \"#utility.yul\":14228:14357   */\n    tag_193:\n        /* \"#utility.yul\":14262:14268   */\n      0x00\n        /* \"#utility.yul\":14289:14309   */\n      tag_347\n      tag_348\n      jump\t// in\n    tag_347:\n        /* \"#utility.yul\":14279:14309   */\n      swap1\n      pop\n        /* \"#utility.yul\":14318:14351   */\n      tag_349\n        /* \"#utility.yul\":14346:14350   */\n      dup3\n        /* \"#utility.yul\":14338:14344   */\n      dup3\n        /* \"#utility.yul\":14318:14351   */\n      tag_350\n      jump\t// in\n    tag_349:\n        /* \"#utility.yul\":14228:14357   */\n      swap2\n      swap1\n      pop\n      jump\t// out\n        /* \"#utility.yul\":14363:14438   */\n    tag_348:\n        /* \"#utility.yul\":14396:14402   */\n      0x00\n        /* \"#utility.yul\":14429:14431   */\n      0x40\n        /* \"#utility.yul\":14423:14432   */\n      mload\n        /* \"#utility.yul\":14413:14432   */\n      swap1\n      pop\n        /* \"#utility.yul\":14363:14438   */\n      swap1\n      jump\t// out\n        /* \"#utility.yul\":14444:14752   */\n    tag_192:\n        /* \"#utility.yul\":14506:14510   */\n      0x00\n        /* \"#utility.yul\":14596:14614   */\n      0xffffffffffffffff\n        /* \"#utility.yul\":14588:14594   */\n      dup3\n        /* \"#utility.yul\":14585:14615   */\n      gt\n        /* \"#utility.yul\":14582:14638   */\n      iszero\n      tag_353\n      jumpi\n        /* \"#utility.yul\":14618:14636   */\n      tag_354\n      tag_355\n      jump\t// in\n    tag_354:\n        /* \"#utility.yul\":14582:14638   */\n    tag_353:\n        /* \"#utility.yul\":14656:14685   */\n      tag_356\n        /* \"#utility.yul\":14678:14684   */\n      dup3\n        /* \"#utility.yul\":14656:14685   */\n      tag_246\n      jump\t// in\n    tag_356:\n        /* \"#utility.yul\":14648:14685   */\n      swap1\n      pop\n        /* \"#utility.yul\":14740:14744   */\n      0x20\n        /* \"#utility.yul\":14734:14738   */\n      dup2\n        /* \"#utility.yul\":14730:14745   */\n      add\n        /* \"#utility.yul\":14722:14745   */\n      swap1\n      pop\n        /* \"#utility.yul\":14444:14752   */\n      swap2\n      swap1\n      pop\n      jump\t// out\n        /* \"#utility.yul\":14758:14857   */\n    tag_240:\n        /* \"#utility.yul\":14810:14816   */\n      0x00\n        /* \"#utility.yul\":14844:14849   */\n      dup2\n        /* \"#utility.yul\":14838:14850   */\n      mload\n        /* \"#utility.yul\":14828:14850   */\n      swap1\n      pop\n        /* \"#utility.yul\":14758:14857   */\n      swap2\n      swap1\n      pop\n      jump\t// out\n        /* \"#utility.yul\":14863:15032   */\n    tag_242:\n        /* \"#utility.yul\":14947:14958   */\n      0x00\n        /* \"#utility.yul\":14981:14987   */\n      dup3\n        /* \"#utility.yul\":14976:14979   */\n      dup3\n        /* \"#utility.yul\":14969:14988   */\n      mstore\n        /* \"#utility.yul\":15021:15025   */\n      0x20\n        /* \"#utility.yul\":15016:15019   */\n      dup3\n        /* \"#utility.yul\":15012:15026   */\n      add\n        /* \"#utility.yul\":14997:15026   */\n      swap1\n      pop\n        /* \"#utility.yul\":14863:15032   */\n      swap3\n      swap2\n      pop\n      pop\n      jump\t// out\n        /* \"#utility.yul\":15038:15386   */\n    tag_79:\n        /* \"#utility.yul\":15078:15085   */\n      0x00\n        /* \"#utility.yul\":15101:15121   */\n      tag_360\n        /* \"#utility.yul\":15119:15120   */\n      dup3\n        /* \"#utility.yul\":15101:15121   */\n      tag_305\n      jump\t// in\n    tag_360:\n        /* \"#utility.yul\":15096:15121   */\n      swap2\n      pop\n        /* \"#utility.yul\":15135:15155   */\n      tag_361\n        /* \"#utility.yul\":15153:15154   */\n      dup4\n        /* \"#utility.yul\":15135:15155   */\n      tag_305\n      jump\t// in\n    tag_361:\n        /* \"#utility.yul\":15130:15155   */\n      swap3\n      pop\n        /* \"#utility.yul\":15323:15324   */\n      dup2\n        /* \"#utility.yul\":15255:15321   */\n      0xffffffffffffffffffffffffffffffffffffffffffffffffffffffffffffffff\n        /* \"#utility.yul\":15251:15325   */\n      div\n        /* \"#utility.yul\":15248:15249   */\n      dup4\n        /* \"#utility.yul\":15245:15326   */\n      gt\n        /* \"#utility.yul\":15240:15241   */\n      dup3\n        /* \"#utility.yul\":15233:15242   */\n      iszero\n        /* \"#utility.yul\":15226:15243   */\n      iszero\n        /* \"#utility.yul\":15222:15327   */\n      and\n        /* \"#utility.yul\":15219:15350   */\n      iszero\n      tag_362\n      jumpi\n        /* \"#utility.yul\":15330:15348   */\n      tag_363\n      tag_364\n      jump\t// in\n    tag_363:\n        /* \"#utility.yul\":15219:15350   */\n    tag_362:\n        /* \"#utility.yul\":15378:15379   */\n      dup3\n        /* \"#utility.yul\":15375:15376   */\n      dup3\n        /* \"#utility.yul\":15371:15380   */\n      mul\n        /* \"#utility.yul\":15360:15380   */\n      swap1\n      pop\n        /* \"#utility.yul\":15038:15386   */\n      swap3\n      swap2\n      pop\n      pop\n      jump\t// out\n        /* \"#utility.yul\":15392:15583   */\n    tag_34:\n        /* \"#utility.yul\":15432:15436   */\n      0x00\n        /* \"#utility.yul\":15452:15472   */\n      tag_366\n        /* \"#utility.yul\":15470:15471   */\n      dup3\n        /* \"#utility.yul\":15452:15472   */\n      tag_305\n      jump\t// in\n    tag_366:\n        /* \"#utility.yul\":15447:15472   */\n      swap2\n      pop\n        /* \"#utility.yul\":15486:15506   */\n      tag_367\n        /* \"#utility.yul\":15504:15505   */\n      dup4\n        /* \"#utility.yul\":15486:15506   */\n      tag_305\n      jump\t// in\n    tag_367:\n        /* \"#utility.yul\":15481:15506   */\n      swap3\n      pop\n        /* \"#utility.yul\":15525:15526   */\n      dup3\n        /* \"#utility.yul\":15522:15523   */\n      dup3\n        /* \"#utility.yul\":15519:15527   */\n      lt\n        /* \"#utility.yul\":15516:15550   */\n      iszero\n      tag_368\n      jumpi\n        /* \"#utility.yul\":15530:15548   */\n      tag_369\n      tag_364\n      jump\t// in\n    tag_369:\n        /* \"#utility.yul\":15516:15550   */\n    tag_368:\n        /* \"#utility.yul\":15575:15576   */\n      dup3\n        /* \"#utility.yul\":15572:15573   */\n      dup3\n        /* \"#utility.yul\":15568:15577   */\n      sub\n        /* \"#utility.yul\":15560:15577   */\n      swap1\n      pop\n        /* \"#utility.yul\":15392:15583   */\n      swap3\n      swap2\n      pop\n      pop\n      jump\t// out\n        /* \"#utility.yul\":15589:15685   */\n    tag_232:\n        /* \"#utility.yul\":15626:15633   */\n      0x00\n        /* \"#utility.yul\":15655:15679   */\n      tag_371\n        /* \"#utility.yul\":15673:15678   */\n      dup3\n        /* \"#utility.yul\":15655:15679   */\n      tag_372\n      jump\t// in\n    tag_371:\n        /* \"#utility.yul\":15644:15679   */\n      swap1\n      pop\n        /* \"#utility.yul\":15589:15685   */\n      swap2\n      swap1\n      pop\n      jump\t// out\n        /* \"#utility.yul\":15691:15795   */\n    tag_228:\n        /* \"#utility.yul\":15736:15743   */\n      0x00\n        /* \"#utility.yul\":15765:15789   */\n      tag_374\n        /* \"#utility.yul\":15783:15788   */\n      dup3\n        /* \"#utility.yul\":15765:15789   */\n      tag_372\n      jump\t// in\n    tag_374:\n        /* \"#utility.yul\":15754:15789   */\n      swap1\n      pop\n        /* \"#utility.yul\":15691:15795   */\n      swap2\n      swap1\n      pop\n      jump\t// out\n        /* \"#utility.yul\":15801:15891   */\n    tag_236:\n        /* \"#utility.yul\":15835:15842   */\n      0x00\n        /* \"#utility.yul\":15878:15883   */\n      dup2\n        /* \"#utility.yul\":15871:15884   */\n      iszero\n        /* \"#utility.yul\":15864:15885   */\n      iszero\n        /* \"#utility.yul\":15853:15885   */\n      swap1\n      pop\n        /* \"#utility.yul\":15801:15891   */\n      swap2\n      swap1\n      pop\n      jump\t// out\n        /* \"#utility.yul\":15897:16023   */\n    tag_372:\n        /* \"#utility.yul\":15934:15941   */\n      0x00\n        /* \"#utility.yul\":15974:16016   */\n      0xffffffffffffffffffffffffffffffffffffffff\n        /* \"#utility.yul\":15967:15972   */\n      dup3\n        /* \"#utility.yul\":15963:16017   */\n      and\n        /* \"#utility.yul\":15952:16017   */\n      swap1\n      pop\n        /* \"#utility.yul\":15897:16023   */\n      swap2\n      swap1\n      pop\n      jump\t// out\n        /* \"#utility.yul\":16029:16106   */\n    tag_305:\n        /* \"#utility.yul\":16066:16073   */\n      0x00\n        /* \"#utility.yul\":16095:16100   */\n      dup2\n        /* \"#utility.yul\":16084:16100   */\n      swap1\n      pop\n        /* \"#utility.yul\":16029:16106   */\n      swap2\n      swap1\n      pop\n      jump\t// out\n        /* \"#utility.yul\":16112:16266   */\n    tag_198:\n        /* \"#utility.yul\":16196:16202   */\n      dup3\n        /* \"#utility.yul\":16191:16194   */\n      dup2\n        /* \"#utility.yul\":16186:16189   */\n      dup4\n        /* \"#utility.yul\":16173:16203   */\n      calldatacopy\n        /* \"#utility.yul\":16258:16259   */\n      0x00\n        /* \"#utility.yul\":16249:16255   */\n      dup4\n        /* \"#utility.yul\":16244:16247   */\n      dup4\n        /* \"#utility.yul\":16240:16256   */\n      add\n        /* \"#utility.yul\":16233:16260   */\n      mstore\n        /* \"#utility.yul\":16112:16266   */\n      pop\n      pop\n      pop\n      jump\t// out\n        /* \"#utility.yul\":16272:16579   */\n    tag_244:\n        /* \"#utility.yul\":16340:16341   */\n      0x00\n        /* \"#utility.yul\":16350:16463   */\n    tag_380:\n        /* \"#utility.yul\":16364:16370   */\n      dup4\n        /* \"#utility.yul\":16361:16362   */\n      dup2\n        /* \"#utility.yul\":16358:16371   */\n      lt\n        /* \"#utility.yul\":16350:16463   */\n      iszero\n      tag_382\n      jumpi\n        /* \"#utility.yul\":16449:16450   */\n      dup1\n        /* \"#utility.yul\":16444:16447   */\n      dup3\n        /* \"#utility.yul\":16440:16451   */\n      add\n        /* \"#utility.yul\":16434:16452   */\n      mload\n        /* \"#utility.yul\":16430:16431   */\n      dup2\n        /* \"#utility.yul\":16425:16428   */\n      dup5\n        /* \"#utility.yul\":16421:16432   */\n      add\n        /* \"#utility.yul\":16414:16453   */\n      mstore\n        /* \"#utility.yul\":16386:16388   */\n      0x20\n        /* \"#utility.yul\":16383:16384   */\n      dup2\n        /* \"#utility.yul\":16379:16389   */\n      add\n        /* \"#utility.yul\":16374:16389   */\n      swap1\n      pop\n        /* \"#utility.yul\":16350:16463   */\n      jump(tag_380)\n    tag_382:\n        /* \"#utility.yul\":16481:16487   */\n      dup4\n        /* \"#utility.yul\":16478:16479   */\n      dup2\n        /* \"#utility.yul\":16475:16488   */\n      gt\n        /* \"#utility.yul\":16472:16573   */\n      iszero\n      tag_383\n      jumpi\n        /* \"#utility.yul\":16561:16562   */\n      0x00\n        /* \"#utility.yul\":16552:16558   */\n      dup5\n        /* \"#utility.yul\":16547:16550   */\n      dup5\n        /* \"#utility.yul\":16543:16559   */\n      add\n        /* \"#utility.yul\":16536:16563   */\n      mstore\n        /* \"#utility.yul\":16472:16573   */\n    tag_383:\n        /* \"#utility.yul\":16321:16579   */\n      pop\n        /* \"#utility.yul\":16272:16579   */\n      pop\n      pop\n      pop\n      jump\t// out\n        /* \"#utility.yul\":16585:16905   */\n    tag_91:\n        /* \"#utility.yul\":16629:16635   */\n      0x00\n        /* \"#utility.yul\":16666:16667   */\n      0x02\n        /* \"#utility.yul\":16660:16664   */\n      dup3\n        /* \"#utility.yul\":16656:16668   */\n      div\n        /* \"#utility.yul\":16646:16668   */\n      swap1\n      pop\n        /* \"#utility.yul\":16713:16714   */\n      0x01\n        /* \"#utility.yul\":16707:16711   */\n      dup3\n        /* \"#utility.yul\":16703:16715   */\n      and\n        /* \"#utility.yul\":16734:16752   */\n      dup1\n        /* \"#utility.yul\":16724:16805   */\n      tag_385\n      jumpi\n        /* \"#utility.yul\":16790:16794   */\n      0x7f\n        /* \"#utility.yul\":16782:16788   */\n      dup3\n        /* \"#utility.yul\":16778:16795   */\n      and\n        /* \"#utility.yul\":16768:16795   */\n      swap2\n      pop\n        /* \"#utility.yul\":16724:16805   */\n    tag_385:\n        /* \"#utility.yul\":16852:16854   */\n      0x20\n        /* \"#utility.yul\":16844:16850   */\n      dup3\n        /* \"#utility.yul\":16841:16855   */\n      lt\n        /* \"#utility.yul\":16821:16839   */\n      dup2\n        /* \"#utility.yul\":16818:16856   */\n      eq\n        /* \"#utility.yul\":16815:16899   */\n      iszero\n      tag_386\n      jumpi\n        /* \"#utility.yul\":16871:16889   */\n      tag_387\n      tag_388\n      jump\t// in\n    tag_387:\n        /* \"#utility.yul\":16815:16899   */\n    tag_386:\n        /* \"#utility.yul\":16636:16905   */\n      pop\n        /* \"#utility.yul\":16585:16905   */\n      swap2\n      swap1\n      pop\n      jump\t// out\n        /* \"#utility.yul\":16911:17192   */\n    tag_350:\n        /* \"#utility.yul\":16994:17021   */\n      tag_390\n        /* \"#utility.yul\":17016:17020   */\n      dup3\n        /* \"#utility.yul\":16994:17021   */\n      tag_246\n      jump\t// in\n    tag_390:\n        /* \"#utility.yul\":16986:16992   */\n      dup2\n        /* \"#utility.yul\":16982:17022   */\n      add\n        /* \"#utility.yul\":17124:17130   */\n      dup2\n        /* \"#utility.yul\":17112:17122   */\n      dup2\n        /* \"#utility.yul\":17109:17131   */\n      lt\n        /* \"#utility.yul\":17088:17106   */\n      0xffffffffffffffff\n        /* \"#utility.yul\":17076:17086   */\n      dup3\n        /* \"#utility.yul\":17073:17107   */\n      gt\n        /* \"#utility.yul\":17070:17132   */\n      or\n        /* \"#utility.yul\":17067:17155   */\n      iszero\n      tag_391\n      jumpi\n        /* \"#utility.yul\":17135:17153   */\n      tag_392\n      tag_355\n      jump\t// in\n    tag_392:\n        /* \"#utility.yul\":17067:17155   */\n    tag_391:\n        /* \"#utility.yul\":17175:17185   */\n      dup1\n        /* \"#utility.yul\":17171:17173   */\n      0x40\n        /* \"#utility.yul\":17164:17186   */\n      mstore\n        /* \"#utility.yul\":16954:17192   */\n      pop\n        /* \"#utility.yul\":16911:17192   */\n      pop\n      pop\n      jump\t// out\n        /* \"#utility.yul\":17198:17431   */\n    tag_85:\n        /* \"#utility.yul\":17237:17240   */\n      0x00\n        /* \"#utility.yul\":17260:17284   */\n      tag_394\n        /* \"#utility.yul\":17278:17283   */\n      dup3\n        /* \"#utility.yul\":17260:17284   */\n      tag_305\n      jump\t// in\n    tag_394:\n        /* \"#utility.yul\":17251:17284   */\n      swap2\n      pop\n        /* \"#utility.yul\":17306:17372   */\n      0xffffffffffffffffffffffffffffffffffffffffffffffffffffffffffffffff\n        /* \"#utility.yul\":17299:17304   */\n      dup3\n        /* \"#utility.yul\":17296:17373   */\n      eq\n        /* \"#utility.yul\":17293:17396   */\n      iszero\n      tag_395\n      jumpi\n        /* \"#utility.yul\":17376:17394   */\n      tag_396\n      tag_364\n      jump\t// in\n    tag_396:\n        /* \"#utility.yul\":17293:17396   */\n    tag_395:\n        /* \"#utility.yul\":17423:17424   */\n      0x01\n        /* \"#utility.yul\":17416:17421   */\n      dup3\n        /* \"#utility.yul\":17412:17425   */\n      add\n        /* \"#utility.yul\":17405:17425   */\n      swap1\n      pop\n        /* \"#utility.yul\":17198:17431   */\n      swap2\n      swap1\n      pop\n      jump\t// out\n        /* \"#utility.yul\":17437:17617   */\n    tag_364:\n        /* \"#utility.yul\":17485:17562   */\n      0x4e487b7100000000000000000000000000000000000000000000000000000000\n        /* \"#utility.yul\":17482:17483   */\n      0x00\n        /* \"#utility.yul\":17475:17563   */\n      mstore\n        /* \"#utility.yul\":17582:17586   */\n      0x11\n        /* \"#utility.yul\":17579:17580   */\n      0x04\n        /* \"#utility.yul\":17572:17587   */\n      mstore\n        /* \"#utility.yul\":17606:17610   */\n      0x24\n        /* \"#utility.yul\":17603:17604   */\n      0x00\n        /* \"#utility.yul\":17596:17611   */\n      revert\n        /* \"#utility.yul\":17623:17803   */\n    tag_388:\n        /* \"#utility.yul\":17671:17748   */\n      0x4e487b7100000000000000000000000000000000000000000000000000000000\n        /* \"#utility.yul\":17668:17669   */\n      0x00\n        /* \"#utility.yul\":17661:17749   */\n      mstore\n        /* \"#utility.yul\":17768:17772   */\n      0x22\n        /* \"#utility.yul\":17765:17766   */\n      0x04\n        /* \"#utility.yul\":17758:17773   */\n      mstore\n        /* \"#utility.yul\":17792:17796   */\n      0x24\n        /* \"#utility.yul\":17789:17790   */\n      0x00\n        /* \"#utility.yul\":17782:17797   */\n      revert\n        /* \"#utility.yul\":17809:17989   */\n    tag_37:\n        /* \"#utility.yul\":17857:17934   */\n      0x4e487b7100000000000000000000000000000000000000000000000000000000\n        /* \"#utility.yul\":17854:17855   */\n      0x00\n        /* \"#utility.yul\":17847:17935   */\n      mstore\n        /* \"#utility.yul\":17954:17958   */\n      0x32\n        /* \"#utility.yul\":17951:17952   */\n      0x04\n        /* \"#utility.yul\":17944:17959   */\n      mstore\n        /* \"#utility.yul\":17978:17982   */\n      0x24\n        /* \"#utility.yul\":17975:17976   */\n      0x00\n        /* \"#utility.yul\":17968:17983   */\n      revert\n        /* \"#utility.yul\":17995:18175   */\n    tag_355:\n        /* \"#utility.yul\":18043:18120   */\n      0x4e487b7100000000000000000000000000000000000000000000000000000000\n        /* \"#utility.yul\":18040:18041   */\n      0x00\n        /* \"#utility.yul\":18033:18121   */\n      mstore\n        /* \"#utility.yul\":18140:18144   */\n      0x41\n        /* \"#utility.yul\":18137:18138   */\n      0x04\n        /* \"#utility.yul\":18130:18145   */\n      mstore\n        /* \"#utility.yul\":18164:18168   */\n      0x24\n        /* \"#utility.yul\":18161:18162   */\n      0x00\n        /* \"#utility.yul\":18154:18169   */\n      revert\n        /* \"#utility.yul\":18181:18298   */\n    tag_203:\n        /* \"#utility.yul\":18290:18291   */\n      0x00\n        /* \"#utility.yul\":18287:18288   */\n      dup1\n        /* \"#utility.yul\":18280:18292   */\n      revert\n        /* \"#utility.yul\":18304:18421   */\n    tag_196:\n        /* \"#utility.yul\":18413:18414   */\n      0x00\n        /* \"#utility.yul\":18410:18411   */\n      dup1\n        /* \"#utility.yul\":18403:18415   */\n      revert\n        /* \"#utility.yul\":18427:18544   */\n    tag_215:\n        /* \"#utility.yul\":18536:18537   */\n      0x00\n        /* \"#utility.yul\":18533:18534   */\n      dup1\n        /* \"#utility.yul\":18526:18538   */\n      revert\n        /* \"#utility.yul\":18550:18667   */\n    tag_212:\n        /* \"#utility.yul\":18659:18660   */\n      0x00\n        /* \"#utility.yul\":18656:18657   */\n      dup1\n        /* \"#utility.yul\":18649:18661   */\n      revert\n        /* \"#utility.yul\":18673:18775   */\n    tag_246:\n        /* \"#utility.yul\":18714:18720   */\n      0x00\n        /* \"#utility.yul\":18765:18767   */\n      0x1f\n        /* \"#utility.yul\":18761:18768   */\n      not\n        /* \"#utility.yul\":18756:18758   */\n      0x1f\n        /* \"#utility.yul\":18749:18754   */\n      dup4\n        /* \"#utility.yul\":18745:18759   */\n      add\n        /* \"#utility.yul\":18741:18769   */\n      and\n        /* \"#utility.yul\":18731:18769   */\n      swap1\n      pop\n        /* \"#utility.yul\":18673:18775   */\n      swap2\n      swap1\n      pop\n      jump\t// out\n        /* \"#utility.yul\":18781:19010   */\n    tag_251:\n        /* \"#utility.yul\":18921:18955   */\n      0x4f6e6c792073656c6c65722063616e20636f6e6669726d206661696c65642074\n        /* \"#utility.yul\":18917:18918   */\n      0x00\n        /* \"#utility.yul\":18909:18915   */\n      dup3\n        /* \"#utility.yul\":18905:18919   */\n      add\n        /* \"#utility.yul\":18898:18956   */\n      mstore\n        /* \"#utility.yul\":18990:19002   */\n      0x72616e73616374696f6e00000000000000000000000000000000000000000000\n        /* \"#utility.yul\":18985:18987   */\n      0x20\n        /* \"#utility.yul\":18977:18983   */\n      dup3\n        /* \"#utility.yul\":18973:18988   */\n      add\n        /* \"#utility.yul\":18966:19003   */\n      mstore\n        /* \"#utility.yul\":18781:19010   */\n      pop\n      jump\t// out\n        /* \"#utility.yul\":19016:19190   */\n    tag_256:\n        /* \"#utility.yul\":19156:19182   */\n      0x50726f64756374207761736e2774207075726368617365640000000000000000\n        /* \"#utility.yul\":19152:19153   */\n      0x00\n        /* \"#utility.yul\":19144:19150   */\n      dup3\n        /* \"#utility.yul\":19140:19154   */\n      add\n        /* \"#utility.yul\":19133:19183   */\n      mstore\n        /* \"#utility.yul\":19016:19190   */\n      pop\n      jump\t// out\n        /* \"#utility.yul\":19196:19378   */\n    tag_261:\n        /* \"#utility.yul\":19336:19370   */\n      0x5468652070726f6475637420697320616c72656164792064656c697665726564\n        /* \"#utility.yul\":19332:19333   */\n      0x00\n        /* \"#utility.yul\":19324:19330   */\n      dup3\n        /* \"#utility.yul\":19320:19334   */\n      add\n        /* \"#utility.yul\":19313:19371   */\n      mstore\n        /* \"#utility.yul\":19196:19378   */\n      pop\n      jump\t// out\n        /* \"#utility.yul\":19384:19561   */\n    tag_266:\n        /* \"#utility.yul\":19524:19553   */\n      0x5468652070726f647563742069736e2774207075726368617365640000000000\n        /* \"#utility.yul\":19520:19521   */\n      0x00\n        /* \"#utility.yul\":19512:19518   */\n      dup3\n        /* \"#utility.yul\":19508:19522   */\n      add\n        /* \"#utility.yul\":19501:19554   */\n      mstore\n        /* \"#utility.yul\":19384:19561   */\n      pop\n      jump\t// out\n        /* \"#utility.yul\":19567:19790   */\n    tag_271:\n        /* \"#utility.yul\":19707:19741   */\n      0x536f6d65206f746865722075736572206f72646572656420746869732070726f\n        /* \"#utility.yul\":19703:19704   */\n      0x00\n        /* \"#utility.yul\":19695:19701   */\n      dup3\n        /* \"#utility.yul\":19691:19705   */\n      add\n        /* \"#utility.yul\":19684:19742   */\n      mstore\n        /* \"#utility.yul\":19776:19782   */\n      0x6475637400000000000000000000000000000000000000000000000000000000\n        /* \"#utility.yul\":19771:19773   */\n      0x20\n        /* \"#utility.yul\":19763:19769   */\n      dup3\n        /* \"#utility.yul\":19759:19774   */\n      add\n        /* \"#utility.yul\":19752:19783   */\n      mstore\n        /* \"#utility.yul\":19567:19790   */\n      pop\n      jump\t// out\n        /* \"#utility.yul\":19796:20016   */\n    tag_276:\n        /* \"#utility.yul\":19936:19970   */\n      0x53656c6c65722063616e6e6f742062757920686973206f776e2070726f647563\n        /* \"#utility.yul\":19932:19933   */\n      0x00\n        /* \"#utility.yul\":19924:19930   */\n      dup3\n        /* \"#utility.yul\":19920:19934   */\n      add\n        /* \"#utility.yul\":19913:19971   */\n      mstore\n        /* \"#utility.yul\":20005:20008   */\n      0x7400000000000000000000000000000000000000000000000000000000000000\n        /* \"#utility.yul\":20000:20002   */\n      0x20\n        /* \"#utility.yul\":19992:19998   */\n      dup3\n        /* \"#utility.yul\":19988:20003   */\n      add\n        /* \"#utility.yul\":19981:20009   */\n      mstore\n        /* \"#utility.yul\":19796:20016   */\n      pop\n      jump\t// out\n        /* \"#utility.yul\":20022:20198   */\n    tag_281:\n        /* \"#utility.yul\":20162:20190   */\n      0x50726963652063616e2774206265206c657373207468616e2030000000000000\n        /* \"#utility.yul\":20158:20159   */\n      0x00\n        /* \"#utility.yul\":20150:20156   */\n      dup3\n        /* \"#utility.yul\":20146:20160   */\n      add\n        /* \"#utility.yul\":20139:20191   */\n      mstore\n        /* \"#utility.yul\":20022:20198   */\n      pop\n      jump\t// out\n        /* \"#utility.yul\":20204:20378   */\n    tag_286:\n        /* \"#utility.yul\":20344:20370   */\n      0x54686520616d6f756e74206d7573742062652065786163740000000000000000\n        /* \"#utility.yul\":20340:20341   */\n      0x00\n        /* \"#utility.yul\":20332:20338   */\n      dup3\n        /* \"#utility.yul\":20328:20342   */\n      add\n        /* \"#utility.yul\":20321:20371   */\n      mstore\n        /* \"#utility.yul\":20204:20378   */\n      pop\n      jump\t// out\n        /* \"#utility.yul\":20384:20549   */\n    tag_291:\n        /* \"#utility.yul\":20524:20541   */\n      0x4e6f20737563682070726f647563740000000000000000000000000000000000\n        /* \"#utility.yul\":20520:20521   */\n      0x00\n        /* \"#utility.yul\":20512:20518   */\n      dup3\n        /* \"#utility.yul\":20508:20522   */\n      add\n        /* \"#utility.yul\":20501:20542   */\n      mstore\n        /* \"#utility.yul\":20384:20549   */\n      pop\n      jump\t// out\n        /* \"#utility.yul\":20555:20776   */\n    tag_296:\n        /* \"#utility.yul\":20695:20729   */\n      0x50726f6475637420776173207375636365737366756c6c792064656c69766572\n        /* \"#utility.yul\":20691:20692   */\n      0x00\n        /* \"#utility.yul\":20683:20689   */\n      dup3\n        /* \"#utility.yul\":20679:20693   */\n      add\n        /* \"#utility.yul\":20672:20730   */\n      mstore\n        /* \"#utility.yul\":20764:20768   */\n      0x6564000000000000000000000000000000000000000000000000000000000000\n        /* \"#utility.yul\":20759:20761   */\n      0x20\n        /* \"#utility.yul\":20751:20757   */\n      dup3\n        /* \"#utility.yul\":20747:20762   */\n      add\n        /* \"#utility.yul\":20740:20769   */\n      mstore\n        /* \"#utility.yul\":20555:20776   */\n      pop\n      jump\t// out\n        /* \"#utility.yul\":20782:20963   */\n    tag_301:\n        /* \"#utility.yul\":20922:20955   */\n      0x4f6e6c792062757965722063616e20636f6e6669726d2064656c697665727900\n        /* \"#utility.yul\":20918:20919   */\n      0x00\n        /* \"#utility.yul\":20910:20916   */\n      dup3\n        /* \"#utility.yul\":20906:20920   */\n      add\n        /* \"#utility.yul\":20899:20956   */\n      mstore\n        /* \"#utility.yul\":20782:20963   */\n      pop\n      jump\t// out\n        /* \"#utility.yul\":20969:21091   */\n    tag_208:\n        /* \"#utility.yul\":21042:21066   */\n      tag_418\n        /* \"#utility.yul\":21060:21065   */\n      dup2\n        /* \"#utility.yul\":21042:21066   */\n      tag_305\n      jump\t// in\n    tag_418:\n        /* \"#utility.yul\":21035:21040   */\n      dup2\n        /* \"#utility.yul\":21032:21067   */\n      eq\n        /* \"#utility.yul\":21022:21085   */\n      tag_419\n      jumpi\n        /* \"#utility.yul\":21081:21082   */\n      0x00\n        /* \"#utility.yul\":21078:21079   */\n      dup1\n        /* \"#utility.yul\":21071:21083   */\n      revert\n        /* \"#utility.yul\":21022:21085   */\n    tag_419:\n        /* \"#utility.yul\":20969:21091   */\n      pop\n      jump\t// out\n\n    auxdata: 0xa264697066735822122088dc2fab701e0099aac5a802efad8d5e7df9771fb591a0f05f58e4186e95b82364736f6c63430008070033\n}\n",
				"bytecode": {
					"linkReferences": {},
					"object": "6080604052600160005534801561001557600080fd5b50611bd7806100256000396000f3fe60806040526004361061004a5760003560e01c80631144fd721461004f5780633153a15b146100785780637acc0b20146100a15780638642269e146100e5578063f2e5f68214610101575b600080fd5b34801561005b57600080fd5b5061007660048036038101906100719190611175565b61011d565b005b34801561008457600080fd5b5061009f600480360381019061009a91906110ea565b610471565b005b3480156100ad57600080fd5b506100c860048036038101906100c39190611175565b6106d5565b6040516100dc989796959493929190611398565b60405180910390f35b6100ff60048036038101906100fa9190611175565b610897565b005b61011b60048036038101906101169190611175565b610b84565b005b6000548110610161576040517f08c379a000000000000000000000000000000000000000000000000000000000815260040161015890611562565b60405180910390fd5b600115156001808361017391906116d2565b81548110610184576101836118ac565b5b906000526020600020906006020160050160149054906101000a900460ff161515146101e5576040517f08c379a00000000000000000000000000000000000000000000000000000000081526004016101dc906114c2565b60405180910390fd5b60001515600180836101f791906116d2565b81548110610208576102076118ac565b5b906000526020600020906006020160050160159054906101000a900460ff16151514610269576040517f08c379a0000000000000000000000000000000000000000000000000000000008152600401610260906114a2565b60405180910390fd5b3373ffffffffffffffffffffffffffffffffffffffff166001808361028e91906116d2565b8154811061029f5761029e6118ac565b5b906000526020600020906006020160050160009054906101000a900473ffffffffffffffffffffffffffffffffffffffff1673ffffffffffffffffffffffffffffffffffffffff1614610327576040517f08c379a000000000000000000000000000000000000000000000000000000000815260040161031e906115a2565b60405180910390fd5b60018060018361033791906116d2565b81548110610348576103476118ac565b5b906000526020600020906006020160050160156101000a81548160ff0219169083151502179055506001808261037e91906116d2565b8154811061038f5761038e6118ac565b5b906000526020600020906006020160040160009054906101000a900473ffffffffffffffffffffffffffffffffffffffff1673ffffffffffffffffffffffffffffffffffffffff166108fc600180846103e891906116d2565b815481106103f9576103f86118ac565b5b9060005260206000209060060201600301549081150290604051600060405180830381858888f19350505050158015610436573d6000803e3d6000fd5b507f4b5e4108167a669a2da8b1edeb1bf605987224cec90eeca47f7f235104539f218160405161046691906115c2565b60405180910390a150565b600081116104b4576040517f08c379a00000000000000000000000000000000000000000000000000000000081526004016104ab90611522565b60405180910390fd5b6104bc610f4d565b838160000181905250828160200181905250670de0b6b3a7640000826104e29190611678565b81606001818152505033816080019073ffffffffffffffffffffffffffffffffffffffff16908173ffffffffffffffffffffffffffffffffffffffff168152505060005481604001818152505060018190806001815401808255809150506001900390600052602060002090600602016000909190919091506000820151816000019080519060200190610577929190610fc2565b506020820151816001019080519060200190610594929190610fc2565b50604082015181600201556060820151816003015560808201518160040160006101000a81548173ffffffffffffffffffffffffffffffffffffffff021916908373ffffffffffffffffffffffffffffffffffffffff16021790555060a08201518160050160006101000a81548173ffffffffffffffffffffffffffffffffffffffff021916908373ffffffffffffffffffffffffffffffffffffffff16021790555060c08201518160050160146101000a81548160ff02191690831515021790555060e08201518160050160156101000a81548160ff021916908315150217905550505060008081548092919061068b90611805565b91905055507f2f2d57060110e728629fcdcfd43a3b0f571b51ca1899668910d777e935601e3e848260400151336040516106c793929190611424565b60405180910390a150505050565b600181815481106106e557600080fd5b9060005260206000209060060201600091509050806000018054610708906117a2565b80601f0160208091040260200160405190810160405280929190818152602001828054610734906117a2565b80156107815780601f1061075657610100808354040283529160200191610781565b820191906000526020600020905b81548152906001019060200180831161076457829003601f168201915b505050505090806001018054610796906117a2565b80601f01602080910402602001604051908101604052809291908181526020018280546107c2906117a2565b801561080f5780601f106107e45761010080835404028352916020019161080f565b820191906000526020600020905b8154815290600101906020018083116107f257829003601f168201915b5050505050908060020154908060030154908060040160009054906101000a900473ffffffffffffffffffffffffffffffffffffffff16908060050160009054906101000a900473ffffffffffffffffffffffffffffffffffffffff16908060050160149054906101000a900460ff16908060050160159054906101000a900460ff16905088565b60005481106108db576040517f08c379a00000000000000000000000000000000000000000000000000000000081526004016108d290611562565b60405180910390fd5b60001515600180836108ed91906116d2565b815481106108fe576108fd6118ac565b5b906000526020600020906006020160050160149054906101000a900460ff1615151461095f576040517f08c379a0000000000000000000000000000000000000000000000000000000008152600401610956906114e2565b60405180910390fd5b346001808361096e91906116d2565b8154811061097f5761097e6118ac565b5b906000526020600020906006020160030154146109d1576040517f08c379a00000000000000000000000000000000000000000000000000000000081526004016109c890611542565b60405180910390fd5b3373ffffffffffffffffffffffffffffffffffffffff16600180836109f691906116d2565b81548110610a0757610a066118ac565b5b906000526020600020906006020160040160009054906101000a900473ffffffffffffffffffffffffffffffffffffffff1673ffffffffffffffffffffffffffffffffffffffff161415610a90576040517f08c379a0000000000000000000000000000000000000000000000000000000008152600401610a8790611502565b60405180910390fd5b3360018083610a9f91906116d2565b81548110610ab057610aaf6118ac565b5b906000526020600020906006020160050160006101000a81548173ffffffffffffffffffffffffffffffffffffffff021916908373ffffffffffffffffffffffffffffffffffffffff160217905550600180600183610b0f91906116d2565b81548110610b2057610b1f6118ac565b5b906000526020600020906006020160050160146101000a81548160ff0219169083151502179055507f2c9b5e9655a41ab13c5183c231239df125ecbd546a947624c913cfd43094906e8133604051610b799291906115dd565b60405180910390a150565b6000548110610bc8576040517f08c379a0000000000000000000000000000000000000000000000000000000008152600401610bbf90611562565b60405180910390fd5b600073ffffffffffffffffffffffffffffffffffffffff1660018083610bee91906116d2565b81548110610bff57610bfe6118ac565b5b906000526020600020906006020160050160009054906101000a900473ffffffffffffffffffffffffffffffffffffffff1673ffffffffffffffffffffffffffffffffffffffff161415610c88576040517f08c379a0000000000000000000000000000000000000000000000000000000008152600401610c7f90611482565b60405180910390fd5b6000151560018083610c9a91906116d2565b81548110610cab57610caa6118ac565b5b906000526020600020906006020160050160159054906101000a900460ff16151514610d0c576040517f08c379a0000000000000000000000000000000000000000000000000000000008152600401610d0390611582565b60405180910390fd5b3373ffffffffffffffffffffffffffffffffffffffff1660018083610d3191906116d2565b81548110610d4257610d416118ac565b5b906000526020600020906006020160040160009054906101000a900473ffffffffffffffffffffffffffffffffffffffff1673ffffffffffffffffffffffffffffffffffffffff1614610dca576040517f08c379a0000000000000000000000000000000000000000000000000000000008152600401610dc190611462565b60405180910390fd5b600060018083610dda91906116d2565b81548110610deb57610dea6118ac565b5b906000526020600020906006020160050160146101000a81548160ff02191690831515021790555060018082610e2191906116d2565b81548110610e3257610e316118ac565b5b906000526020600020906006020160050160009054906101000a900473ffffffffffffffffffffffffffffffffffffffff1673ffffffffffffffffffffffffffffffffffffffff166108fc60018084610e8b91906116d2565b81548110610e9c57610e9b6118ac565b5b9060005260206000209060060201600301549081150290604051600060405180830381858888f19350505050158015610ed9573d6000803e3d6000fd5b50600060018083610eea91906116d2565b81548110610efb57610efa6118ac565b5b906000526020600020906006020160050160006101000a81548173ffffffffffffffffffffffffffffffffffffffff021916908373ffffffffffffffffffffffffffffffffffffffff16021790555050565b60405180610100016040528060608152602001606081526020016000815260200160008152602001600073ffffffffffffffffffffffffffffffffffffffff168152602001600073ffffffffffffffffffffffffffffffffffffffff1681526020016000151581526020016000151581525090565b828054610fce906117a2565b90600052602060002090601f016020900481019282610ff05760008555611037565b82601f1061100957805160ff1916838001178555611037565b82800160010185558215611037579182015b8281111561103657825182559160200191906001019061101b565b5b5090506110449190611048565b5090565b5b80821115611061576000816000905550600101611049565b5090565b60006110786110738461162b565b611606565b9050828152602081018484840111156110945761109361190f565b5b61109f848285611760565b509392505050565b600082601f8301126110bc576110bb61190a565b5b81356110cc848260208601611065565b91505092915050565b6000813590506110e481611b8a565b92915050565b60008060006060848603121561110357611102611919565b5b600084013567ffffffffffffffff81111561112157611120611914565b5b61112d868287016110a7565b935050602084013567ffffffffffffffff81111561114e5761114d611914565b5b61115a868287016110a7565b925050604061116b868287016110d5565b9150509250925092565b60006020828403121561118b5761118a611919565b5b6000611199848285016110d5565b91505092915050565b6111ab81611718565b82525050565b6111ba81611706565b82525050565b6111c98161172a565b82525050565b60006111da8261165c565b6111e48185611667565b93506111f481856020860161176f565b6111fd8161191e565b840191505092915050565b6000611215602a83611667565b91506112208261192f565b604082019050919050565b6000611238601883611667565b91506112438261197e565b602082019050919050565b600061125b602083611667565b9150611266826119a7565b602082019050919050565b600061127e601b83611667565b9150611289826119d0565b602082019050919050565b60006112a1602483611667565b91506112ac826119f9565b604082019050919050565b60006112c4602183611667565b91506112cf82611a48565b604082019050919050565b60006112e7601a83611667565b91506112f282611a97565b602082019050919050565b600061130a601883611667565b915061131582611ac0565b602082019050919050565b600061132d600f83611667565b915061133882611ae9565b602082019050919050565b6000611350602283611667565b915061135b82611b12565b604082019050919050565b6000611373601f83611667565b915061137e82611b61565b602082019050919050565b61139281611756565b82525050565b60006101008201905081810360008301526113b3818b6111cf565b905081810360208301526113c7818a6111cf565b90506113d66040830189611389565b6113e36060830188611389565b6113f060808301876111a2565b6113fd60a08301866111a2565b61140a60c08301856111c0565b61141760e08301846111c0565b9998505050505050505050565b6000606082019050818103600083015261143e81866111cf565b905061144d6020830185611389565b61145a60408301846111b1565b949350505050565b6000602082019050818103600083015261147b81611208565b9050919050565b6000602082019050818103600083015261149b8161122b565b9050919050565b600060208201905081810360008301526114bb8161124e565b9050919050565b600060208201905081810360008301526114db81611271565b9050919050565b600060208201905081810360008301526114fb81611294565b9050919050565b6000602082019050818103600083015261151b816112b7565b9050919050565b6000602082019050818103600083015261153b816112da565b9050919050565b6000602082019050818103600083015261155b816112fd565b9050919050565b6000602082019050818103600083015261157b81611320565b9050919050565b6000602082019050818103600083015261159b81611343565b9050919050565b600060208201905081810360008301526115bb81611366565b9050919050565b60006020820190506115d76000830184611389565b92915050565b60006040820190506115f26000830185611389565b6115ff60208301846111b1565b9392505050565b6000611610611621565b905061161c82826117d4565b919050565b6000604051905090565b600067ffffffffffffffff821115611646576116456118db565b5b61164f8261191e565b9050602081019050919050565b600081519050919050565b600082825260208201905092915050565b600061168382611756565b915061168e83611756565b9250817fffffffffffffffffffffffffffffffffffffffffffffffffffffffffffffffff04831182151516156116c7576116c661184e565b5b828202905092915050565b60006116dd82611756565b91506116e883611756565b9250828210156116fb576116fa61184e565b5b828203905092915050565b600061171182611736565b9050919050565b600061172382611736565b9050919050565b60008115159050919050565b600073ffffffffffffffffffffffffffffffffffffffff82169050919050565b6000819050919050565b82818337600083830152505050565b60005b8381101561178d578082015181840152602081019050611772565b8381111561179c576000848401525b50505050565b600060028204905060018216806117ba57607f821691505b602082108114156117ce576117cd61187d565b5b50919050565b6117dd8261191e565b810181811067ffffffffffffffff821117156117fc576117fb6118db565b5b80604052505050565b600061181082611756565b91507fffffffffffffffffffffffffffffffffffffffffffffffffffffffffffffffff8214156118435761184261184e565b5b600182019050919050565b7f4e487b7100000000000000000000000000000000000000000000000000000000600052601160045260246000fd5b7f4e487b7100000000000000000000000000000000000000000000000000000000600052602260045260246000fd5b7f4e487b7100000000000000000000000000000000000000000000000000000000600052603260045260246000fd5b7f4e487b7100000000000000000000000000000000000000000000000000000000600052604160045260246000fd5b600080fd5b600080fd5b600080fd5b600080fd5b6000601f19601f8301169050919050565b7f4f6e6c792073656c6c65722063616e20636f6e6669726d206661696c6564207460008201527f72616e73616374696f6e00000000000000000000000000000000000000000000602082015250565b7f50726f64756374207761736e2774207075726368617365640000000000000000600082015250565b7f5468652070726f6475637420697320616c72656164792064656c697665726564600082015250565b7f5468652070726f647563742069736e2774207075726368617365640000000000600082015250565b7f536f6d65206f746865722075736572206f72646572656420746869732070726f60008201527f6475637400000000000000000000000000000000000000000000000000000000602082015250565b7f53656c6c65722063616e6e6f742062757920686973206f776e2070726f64756360008201527f7400000000000000000000000000000000000000000000000000000000000000602082015250565b7f50726963652063616e2774206265206c657373207468616e2030000000000000600082015250565b7f54686520616d6f756e74206d7573742062652065786163740000000000000000600082015250565b7f4e6f20737563682070726f647563740000000000000000000000000000000000600082015250565b7f50726f6475637420776173207375636365737366756c6c792064656c6976657260008201527f6564000000000000000000000000000000000000000000000000000000000000602082015250565b7f4f6e6c792062757965722063616e20636f6e6669726d2064656c697665727900600082015250565b611b9381611756565b8114611b9e57600080fd5b5056fea264697066735822122088dc2fab701e0099aac5a802efad8d5e7df9771fb591a0f05f58e4186e95b82364736f6c63430008070033",
					"opcodes": "PUSH1 0x80 PUSH1 0x40 MSTORE PUSH1 0x1 PUSH1 0x0 SSTORE CALLVALUE DUP1 ISZERO PUSH2 0x15 JUMPI PUSH1 0x0 DUP1 REVERT JUMPDEST POP PUSH2 0x1BD7 DUP1 PUSH2 0x25 PUSH1 0x0 CODECOPY PUSH1 0x0 RETURN INVALID PUSH1 0x80 PUSH1 0x40 MSTORE PUSH1 0x4 CALLDATASIZE LT PUSH2 0x4A JUMPI PUSH1 0x0 CALLDATALOAD PUSH1 0xE0 SHR DUP1 PUSH4 0x1144FD72 EQ PUSH2 0x4F JUMPI DUP1 PUSH4 0x3153A15B EQ PUSH2 0x78 JUMPI DUP1 PUSH4 0x7ACC0B20 EQ PUSH2 0xA1 JUMPI DUP1 PUSH4 0x8642269E EQ PUSH2 0xE5 JUMPI DUP1 PUSH4 0xF2E5F682 EQ PUSH2 0x101 JUMPI JUMPDEST PUSH1 0x0 DUP1 REVERT JUMPDEST CALLVALUE DUP1 ISZERO PUSH2 0x5B JUMPI PUSH1 0x0 DUP1 REVERT JUMPDEST POP PUSH2 0x76 PUSH1 0x4 DUP1 CALLDATASIZE SUB DUP2 ADD SWAP1 PUSH2 0x71 SWAP2 SWAP1 PUSH2 0x1175 JUMP JUMPDEST PUSH2 0x11D JUMP JUMPDEST STOP JUMPDEST CALLVALUE DUP1 ISZERO PUSH2 0x84 JUMPI PUSH1 0x0 DUP1 REVERT JUMPDEST POP PUSH2 0x9F PUSH1 0x4 DUP1 CALLDATASIZE SUB DUP2 ADD SWAP1 PUSH2 0x9A SWAP2 SWAP1 PUSH2 0x10EA JUMP JUMPDEST PUSH2 0x471 JUMP JUMPDEST STOP JUMPDEST CALLVALUE DUP1 ISZERO PUSH2 0xAD JUMPI PUSH1 0x0 DUP1 REVERT JUMPDEST POP PUSH2 0xC8 PUSH1 0x4 DUP1 CALLDATASIZE SUB DUP2 ADD SWAP1 PUSH2 0xC3 SWAP2 SWAP1 PUSH2 0x1175 JUMP JUMPDEST PUSH2 0x6D5 JUMP JUMPDEST PUSH1 0x40 MLOAD PUSH2 0xDC SWAP9 SWAP8 SWAP7 SWAP6 SWAP5 SWAP4 SWAP3 SWAP2 SWAP1 PUSH2 0x1398 JUMP JUMPDEST PUSH1 0x40 MLOAD DUP1 SWAP2 SUB SWAP1 RETURN JUMPDEST PUSH2 0xFF PUSH1 0x4 DUP1 CALLDATASIZE SUB DUP2 ADD SWAP1 PUSH2 0xFA SWAP2 SWAP1 PUSH2 0x1175 JUMP JUMPDEST PUSH2 0x897 JUMP JUMPDEST STOP JUMPDEST PUSH2 0x11B PUSH1 0x4 DUP1 CALLDATASIZE SUB DUP2 ADD SWAP1 PUSH2 0x116 SWAP2 SWAP1 PUSH2 0x1175 JUMP JUMPDEST PUSH2 0xB84 JUMP JUMPDEST STOP JUMPDEST PUSH1 0x0 SLOAD DUP2 LT PUSH2 0x161 JUMPI PUSH1 0x40 MLOAD PUSH32 0x8C379A000000000000000000000000000000000000000000000000000000000 DUP2 MSTORE PUSH1 0x4 ADD PUSH2 0x158 SWAP1 PUSH2 0x1562 JUMP JUMPDEST PUSH1 0x40 MLOAD DUP1 SWAP2 SUB SWAP1 REVERT JUMPDEST PUSH1 0x1 ISZERO ISZERO PUSH1 0x1 DUP1 DUP4 PUSH2 0x173 SWAP2 SWAP1 PUSH2 0x16D2 JUMP JUMPDEST DUP2 SLOAD DUP2 LT PUSH2 0x184 JUMPI PUSH2 0x183 PUSH2 0x18AC JUMP JUMPDEST JUMPDEST SWAP1 PUSH1 0x0 MSTORE PUSH1 0x20 PUSH1 0x0 KECCAK256 SWAP1 PUSH1 0x6 MUL ADD PUSH1 0x5 ADD PUSH1 0x14 SWAP1 SLOAD SWAP1 PUSH2 0x100 EXP SWAP1 DIV PUSH1 0xFF AND ISZERO ISZERO EQ PUSH2 0x1E5 JUMPI PUSH1 0x40 MLOAD PUSH32 0x8C379A000000000000000000000000000000000000000000000000000000000 DUP2 MSTORE PUSH1 0x4 ADD PUSH2 0x1DC SWAP1 PUSH2 0x14C2 JUMP JUMPDEST PUSH1 0x40 MLOAD DUP1 SWAP2 SUB SWAP1 REVERT JUMPDEST PUSH1 0x0 ISZERO ISZERO PUSH1 0x1 DUP1 DUP4 PUSH2 0x1F7 SWAP2 SWAP1 PUSH2 0x16D2 JUMP JUMPDEST DUP2 SLOAD DUP2 LT PUSH2 0x208 JUMPI PUSH2 0x207 PUSH2 0x18AC JUMP JUMPDEST JUMPDEST SWAP1 PUSH1 0x0 MSTORE PUSH1 0x20 PUSH1 0x0 KECCAK256 SWAP1 PUSH1 0x6 MUL ADD PUSH1 0x5 ADD PUSH1 0x15 SWAP1 SLOAD SWAP1 PUSH2 0x100 EXP SWAP1 DIV PUSH1 0xFF AND ISZERO ISZERO EQ PUSH2 0x269 JUMPI PUSH1 0x40 MLOAD PUSH32 0x8C379A000000000000000000000000000000000000000000000000000000000 DUP2 MSTORE PUSH1 0x4 ADD PUSH2 0x260 SWAP1 PUSH2 0x14A2 JUMP JUMPDEST PUSH1 0x40 MLOAD DUP1 SWAP2 SUB SWAP1 REVERT JUMPDEST CALLER PUSH20 0xFFFFFFFFFFFFFFFFFFFFFFFFFFFFFFFFFFFFFFFF AND PUSH1 0x1 DUP1 DUP4 PUSH2 0x28E SWAP2 SWAP1 PUSH2 0x16D2 JUMP JUMPDEST DUP2 SLOAD DUP2 LT PUSH2 0x29F JUMPI PUSH2 0x29E PUSH2 0x18AC JUMP JUMPDEST JUMPDEST SWAP1 PUSH1 0x0 MSTORE PUSH1 0x20 PUSH1 0x0 KECCAK256 SWAP1 PUSH1 0x6 MUL ADD PUSH1 0x5 ADD PUSH1 0x0 SWAP1 SLOAD SWAP1 PUSH2 0x100 EXP SWAP1 DIV PUSH20 0xFFFFFFFFFFFFFFFFFFFFFFFFFFFFFFFFFFFFFFFF AND PUSH20 0xFFFFFFFFFFFFFFFFFFFFFFFFFFFFFFFFFFFFFFFF AND EQ PUSH2 0x327 JUMPI PUSH1 0x40 MLOAD PUSH32 0x8C379A000000000000000000000000000000000000000000000000000000000 DUP2 MSTORE PUSH1 0x4 ADD PUSH2 0x31E SWAP1 PUSH2 0x15A2 JUMP JUMPDEST PUSH1 0x40 MLOAD DUP1 SWAP2 SUB SWAP1 REVERT JUMPDEST PUSH1 0x1 DUP1 PUSH1 0x1 DUP4 PUSH2 0x337 SWAP2 SWAP1 PUSH2 0x16D2 JUMP JUMPDEST DUP2 SLOAD DUP2 LT PUSH2 0x348 JUMPI PUSH2 0x347 PUSH2 0x18AC JUMP JUMPDEST JUMPDEST SWAP1 PUSH1 0x0 MSTORE PUSH1 0x20 PUSH1 0x0 KECCAK256 SWAP1 PUSH1 0x6 MUL ADD PUSH1 0x5 ADD PUSH1 0x15 PUSH2 0x100 EXP DUP2 SLOAD DUP2 PUSH1 0xFF MUL NOT AND SWAP1 DUP4 ISZERO ISZERO MUL OR SWAP1 SSTORE POP PUSH1 0x1 DUP1 DUP3 PUSH2 0x37E SWAP2 SWAP1 PUSH2 0x16D2 JUMP JUMPDEST DUP2 SLOAD DUP2 LT PUSH2 0x38F JUMPI PUSH2 0x38E PUSH2 0x18AC JUMP JUMPDEST JUMPDEST SWAP1 PUSH1 0x0 MSTORE PUSH1 0x20 PUSH1 0x0 KECCAK256 SWAP1 PUSH1 0x6 MUL ADD PUSH1 0x4 ADD PUSH1 0x0 SWAP1 SLOAD SWAP1 PUSH2 0x100 EXP SWAP1 DIV PUSH20 0xFFFFFFFFFFFFFFFFFFFFFFFFFFFFFFFFFFFFFFFF AND PUSH20 0xFFFFFFFFFFFFFFFFFFFFFFFFFFFFFFFFFFFFFFFF AND PUSH2 0x8FC PUSH1 0x1 DUP1 DUP5 PUSH2 0x3E8 SWAP2 SWAP1 PUSH2 0x16D2 JUMP JUMPDEST DUP2 SLOAD DUP2 LT PUSH2 0x3F9 JUMPI PUSH2 0x3F8 PUSH2 0x18AC JUMP JUMPDEST JUMPDEST SWAP1 PUSH1 0x0 MSTORE PUSH1 0x20 PUSH1 0x0 KECCAK256 SWAP1 PUSH1 0x6 MUL ADD PUSH1 0x3 ADD SLOAD SWAP1 DUP2 ISZERO MUL SWAP1 PUSH1 0x40 MLOAD PUSH1 0x0 PUSH1 0x40 MLOAD DUP1 DUP4 SUB DUP2 DUP6 DUP9 DUP9 CALL SWAP4 POP POP POP POP ISZERO DUP1 ISZERO PUSH2 0x436 JUMPI RETURNDATASIZE PUSH1 0x0 DUP1 RETURNDATACOPY RETURNDATASIZE PUSH1 0x0 REVERT JUMPDEST POP PUSH32 0x4B5E4108167A669A2DA8B1EDEB1BF605987224CEC90EECA47F7F235104539F21 DUP2 PUSH1 0x40 MLOAD PUSH2 0x466 SWAP2 SWAP1 PUSH2 0x15C2 JUMP JUMPDEST PUSH1 0x40 MLOAD DUP1 SWAP2 SUB SWAP1 LOG1 POP JUMP JUMPDEST PUSH1 0x0 DUP2 GT PUSH2 0x4B4 JUMPI PUSH1 0x40 MLOAD PUSH32 0x8C379A000000000000000000000000000000000000000000000000000000000 DUP2 MSTORE PUSH1 0x4 ADD PUSH2 0x4AB SWAP1 PUSH2 0x1522 JUMP JUMPDEST PUSH1 0x40 MLOAD DUP1 SWAP2 SUB SWAP1 REVERT JUMPDEST PUSH2 0x4BC PUSH2 0xF4D JUMP JUMPDEST DUP4 DUP2 PUSH1 0x0 ADD DUP2 SWAP1 MSTORE POP DUP3 DUP2 PUSH1 0x20 ADD DUP2 SWAP1 MSTORE POP PUSH8 0xDE0B6B3A7640000 DUP3 PUSH2 0x4E2 SWAP2 SWAP1 PUSH2 0x1678 JUMP JUMPDEST DUP2 PUSH1 0x60 ADD DUP2 DUP2 MSTORE POP POP CALLER DUP2 PUSH1 0x80 ADD SWAP1 PUSH20 0xFFFFFFFFFFFFFFFFFFFFFFFFFFFFFFFFFFFFFFFF AND SWAP1 DUP2 PUSH20 0xFFFFFFFFFFFFFFFFFFFFFFFFFFFFFFFFFFFFFFFF AND DUP2 MSTORE POP POP PUSH1 0x0 SLOAD DUP2 PUSH1 0x40 ADD DUP2 DUP2 MSTORE POP POP PUSH1 0x1 DUP2 SWAP1 DUP1 PUSH1 0x1 DUP2 SLOAD ADD DUP1 DUP3 SSTORE DUP1 SWAP2 POP POP PUSH1 0x1 SWAP1 SUB SWAP1 PUSH1 0x0 MSTORE PUSH1 0x20 PUSH1 0x0 KECCAK256 SWAP1 PUSH1 0x6 MUL ADD PUSH1 0x0 SWAP1 SWAP2 SWAP1 SWAP2 SWAP1 SWAP2 POP PUSH1 0x0 DUP3 ADD MLOAD DUP2 PUSH1 0x0 ADD SWAP1 DUP1 MLOAD SWAP1 PUSH1 0x20 ADD SWAP1 PUSH2 0x577 SWAP3 SWAP2 SWAP1 PUSH2 0xFC2 JUMP JUMPDEST POP PUSH1 0x20 DUP3 ADD MLOAD DUP2 PUSH1 0x1 ADD SWAP1 DUP1 MLOAD SWAP1 PUSH1 0x20 ADD SWAP1 PUSH2 0x594 SWAP3 SWAP2 SWAP1 PUSH2 0xFC2 JUMP JUMPDEST POP PUSH1 0x40 DUP3 ADD MLOAD DUP2 PUSH1 0x2 ADD SSTORE PUSH1 0x60 DUP3 ADD MLOAD DUP2 PUSH1 0x3 ADD SSTORE PUSH1 0x80 DUP3 ADD MLOAD DUP2 PUSH1 0x4 ADD PUSH1 0x0 PUSH2 0x100 EXP DUP2 SLOAD DUP2 PUSH20 0xFFFFFFFFFFFFFFFFFFFFFFFFFFFFFFFFFFFFFFFF MUL NOT AND SWAP1 DUP4 PUSH20 0xFFFFFFFFFFFFFFFFFFFFFFFFFFFFFFFFFFFFFFFF AND MUL OR SWAP1 SSTORE POP PUSH1 0xA0 DUP3 ADD MLOAD DUP2 PUSH1 0x5 ADD PUSH1 0x0 PUSH2 0x100 EXP DUP2 SLOAD DUP2 PUSH20 0xFFFFFFFFFFFFFFFFFFFFFFFFFFFFFFFFFFFFFFFF MUL NOT AND SWAP1 DUP4 PUSH20 0xFFFFFFFFFFFFFFFFFFFFFFFFFFFFFFFFFFFFFFFF AND MUL OR SWAP1 SSTORE POP PUSH1 0xC0 DUP3 ADD MLOAD DUP2 PUSH1 0x5 ADD PUSH1 0x14 PUSH2 0x100 EXP DUP2 SLOAD DUP2 PUSH1 0xFF MUL NOT AND SWAP1 DUP4 ISZERO ISZERO MUL OR SWAP1 SSTORE POP PUSH1 0xE0 DUP3 ADD MLOAD DUP2 PUSH1 0x5 ADD PUSH1 0x15 PUSH2 0x100 EXP DUP2 SLOAD DUP2 PUSH1 0xFF MUL NOT AND SWAP1 DUP4 ISZERO ISZERO MUL OR SWAP1 SSTORE POP POP POP PUSH1 0x0 DUP1 DUP2 SLOAD DUP1 SWAP3 SWAP2 SWAP1 PUSH2 0x68B SWAP1 PUSH2 0x1805 JUMP JUMPDEST SWAP2 SWAP1 POP SSTORE POP PUSH32 0x2F2D57060110E728629FCDCFD43A3B0F571B51CA1899668910D777E935601E3E DUP5 DUP3 PUSH1 0x40 ADD MLOAD CALLER PUSH1 0x40 MLOAD PUSH2 0x6C7 SWAP4 SWAP3 SWAP2 SWAP1 PUSH2 0x1424 JUMP JUMPDEST PUSH1 0x40 MLOAD DUP1 SWAP2 SUB SWAP1 LOG1 POP POP POP POP JUMP JUMPDEST PUSH1 0x1 DUP2 DUP2 SLOAD DUP2 LT PUSH2 0x6E5 JUMPI PUSH1 0x0 DUP1 REVERT JUMPDEST SWAP1 PUSH1 0x0 MSTORE PUSH1 0x20 PUSH1 0x0 KECCAK256 SWAP1 PUSH1 0x6 MUL ADD PUSH1 0x0 SWAP2 POP SWAP1 POP DUP1 PUSH1 0x0 ADD DUP1 SLOAD PUSH2 0x708 SWAP1 PUSH2 0x17A2 JUMP JUMPDEST DUP1 PUSH1 0x1F ADD PUSH1 0x20 DUP1 SWAP2 DIV MUL PUSH1 0x20 ADD PUSH1 0x40 MLOAD SWAP1 DUP2 ADD PUSH1 0x40 MSTORE DUP1 SWAP3 SWAP2 SWAP1 DUP2 DUP2 MSTORE PUSH1 0x20 ADD DUP3 DUP1 SLOAD PUSH2 0x734 SWAP1 PUSH2 0x17A2 JUMP JUMPDEST DUP1 ISZERO PUSH2 0x781 JUMPI DUP1 PUSH1 0x1F LT PUSH2 0x756 JUMPI PUSH2 0x100 DUP1 DUP4 SLOAD DIV MUL DUP4 MSTORE SWAP2 PUSH1 0x20 ADD SWAP2 PUSH2 0x781 JUMP JUMPDEST DUP3 ADD SWAP2 SWAP1 PUSH1 0x0 MSTORE PUSH1 0x20 PUSH1 0x0 KECCAK256 SWAP1 JUMPDEST DUP2 SLOAD DUP2 MSTORE SWAP1 PUSH1 0x1 ADD SWAP1 PUSH1 0x20 ADD DUP1 DUP4 GT PUSH2 0x764 JUMPI DUP3 SWAP1 SUB PUSH1 0x1F AND DUP3 ADD SWAP2 JUMPDEST POP POP POP POP POP SWAP1 DUP1 PUSH1 0x1 ADD DUP1 SLOAD PUSH2 0x796 SWAP1 PUSH2 0x17A2 JUMP JUMPDEST DUP1 PUSH1 0x1F ADD PUSH1 0x20 DUP1 SWAP2 DIV MUL PUSH1 0x20 ADD PUSH1 0x40 MLOAD SWAP1 DUP2 ADD PUSH1 0x40 MSTORE DUP1 SWAP3 SWAP2 SWAP1 DUP2 DUP2 MSTORE PUSH1 0x20 ADD DUP3 DUP1 SLOAD PUSH2 0x7C2 SWAP1 PUSH2 0x17A2 JUMP JUMPDEST DUP1 ISZERO PUSH2 0x80F JUMPI DUP1 PUSH1 0x1F LT PUSH2 0x7E4 JUMPI PUSH2 0x100 DUP1 DUP4 SLOAD DIV MUL DUP4 MSTORE SWAP2 PUSH1 0x20 ADD SWAP2 PUSH2 0x80F JUMP JUMPDEST DUP3 ADD SWAP2 SWAP1 PUSH1 0x0 MSTORE PUSH1 0x20 PUSH1 0x0 KECCAK256 SWAP1 JUMPDEST DUP2 SLOAD DUP2 MSTORE SWAP1 PUSH1 0x1 ADD SWAP1 PUSH1 0x20 ADD DUP1 DUP4 GT PUSH2 0x7F2 JUMPI DUP3 SWAP1 SUB PUSH1 0x1F AND DUP3 ADD SWAP2 JUMPDEST POP POP POP POP POP SWAP1 DUP1 PUSH1 0x2 ADD SLOAD SWAP1 DUP1 PUSH1 0x3 ADD SLOAD SWAP1 DUP1 PUSH1 0x4 ADD PUSH1 0x0 SWAP1 SLOAD SWAP1 PUSH2 0x100 EXP SWAP1 DIV PUSH20 0xFFFFFFFFFFFFFFFFFFFFFFFFFFFFFFFFFFFFFFFF AND SWAP1 DUP1 PUSH1 0x5 ADD PUSH1 0x0 SWAP1 SLOAD SWAP1 PUSH2 0x100 EXP SWAP1 DIV PUSH20 0xFFFFFFFFFFFFFFFFFFFFFFFFFFFFFFFFFFFFFFFF AND SWAP1 DUP1 PUSH1 0x5 ADD PUSH1 0x14 SWAP1 SLOAD SWAP1 PUSH2 0x100 EXP SWAP1 DIV PUSH1 0xFF AND SWAP1 DUP1 PUSH1 0x5 ADD PUSH1 0x15 SWAP1 SLOAD SWAP1 PUSH2 0x100 EXP SWAP1 DIV PUSH1 0xFF AND SWAP1 POP DUP9 JUMP JUMPDEST PUSH1 0x0 SLOAD DUP2 LT PUSH2 0x8DB JUMPI PUSH1 0x40 MLOAD PUSH32 0x8C379A000000000000000000000000000000000000000000000000000000000 DUP2 MSTORE PUSH1 0x4 ADD PUSH2 0x8D2 SWAP1 PUSH2 0x1562 JUMP JUMPDEST PUSH1 0x40 MLOAD DUP1 SWAP2 SUB SWAP1 REVERT JUMPDEST PUSH1 0x0 ISZERO ISZERO PUSH1 0x1 DUP1 DUP4 PUSH2 0x8ED SWAP2 SWAP1 PUSH2 0x16D2 JUMP JUMPDEST DUP2 SLOAD DUP2 LT PUSH2 0x8FE JUMPI PUSH2 0x8FD PUSH2 0x18AC JUMP JUMPDEST JUMPDEST SWAP1 PUSH1 0x0 MSTORE PUSH1 0x20 PUSH1 0x0 KECCAK256 SWAP1 PUSH1 0x6 MUL ADD PUSH1 0x5 ADD PUSH1 0x14 SWAP1 SLOAD SWAP1 PUSH2 0x100 EXP SWAP1 DIV PUSH1 0xFF AND ISZERO ISZERO EQ PUSH2 0x95F JUMPI PUSH1 0x40 MLOAD PUSH32 0x8C379A000000000000000000000000000000000000000000000000000000000 DUP2 MSTORE PUSH1 0x4 ADD PUSH2 0x956 SWAP1 PUSH2 0x14E2 JUMP JUMPDEST PUSH1 0x40 MLOAD DUP1 SWAP2 SUB SWAP1 REVERT JUMPDEST CALLVALUE PUSH1 0x1 DUP1 DUP4 PUSH2 0x96E SWAP2 SWAP1 PUSH2 0x16D2 JUMP JUMPDEST DUP2 SLOAD DUP2 LT PUSH2 0x97F JUMPI PUSH2 0x97E PUSH2 0x18AC JUMP JUMPDEST JUMPDEST SWAP1 PUSH1 0x0 MSTORE PUSH1 0x20 PUSH1 0x0 KECCAK256 SWAP1 PUSH1 0x6 MUL ADD PUSH1 0x3 ADD SLOAD EQ PUSH2 0x9D1 JUMPI PUSH1 0x40 MLOAD PUSH32 0x8C379A000000000000000000000000000000000000000000000000000000000 DUP2 MSTORE PUSH1 0x4 ADD PUSH2 0x9C8 SWAP1 PUSH2 0x1542 JUMP JUMPDEST PUSH1 0x40 MLOAD DUP1 SWAP2 SUB SWAP1 REVERT JUMPDEST CALLER PUSH20 0xFFFFFFFFFFFFFFFFFFFFFFFFFFFFFFFFFFFFFFFF AND PUSH1 0x1 DUP1 DUP4 PUSH2 0x9F6 SWAP2 SWAP1 PUSH2 0x16D2 JUMP JUMPDEST DUP2 SLOAD DUP2 LT PUSH2 0xA07 JUMPI PUSH2 0xA06 PUSH2 0x18AC JUMP JUMPDEST JUMPDEST SWAP1 PUSH1 0x0 MSTORE PUSH1 0x20 PUSH1 0x0 KECCAK256 SWAP1 PUSH1 0x6 MUL ADD PUSH1 0x4 ADD PUSH1 0x0 SWAP1 SLOAD SWAP1 PUSH2 0x100 EXP SWAP1 DIV PUSH20 0xFFFFFFFFFFFFFFFFFFFFFFFFFFFFFFFFFFFFFFFF AND PUSH20 0xFFFFFFFFFFFFFFFFFFFFFFFFFFFFFFFFFFFFFFFF AND EQ ISZERO PUSH2 0xA90 JUMPI PUSH1 0x40 MLOAD PUSH32 0x8C379A000000000000000000000000000000000000000000000000000000000 DUP2 MSTORE PUSH1 0x4 ADD PUSH2 0xA87 SWAP1 PUSH2 0x1502 JUMP JUMPDEST PUSH1 0x40 MLOAD DUP1 SWAP2 SUB SWAP1 REVERT JUMPDEST CALLER PUSH1 0x1 DUP1 DUP4 PUSH2 0xA9F SWAP2 SWAP1 PUSH2 0x16D2 JUMP JUMPDEST DUP2 SLOAD DUP2 LT PUSH2 0xAB0 JUMPI PUSH2 0xAAF PUSH2 0x18AC JUMP JUMPDEST JUMPDEST SWAP1 PUSH1 0x0 MSTORE PUSH1 0x20 PUSH1 0x0 KECCAK256 SWAP1 PUSH1 0x6 MUL ADD PUSH1 0x5 ADD PUSH1 0x0 PUSH2 0x100 EXP DUP2 SLOAD DUP2 PUSH20 0xFFFFFFFFFFFFFFFFFFFFFFFFFFFFFFFFFFFFFFFF MUL NOT AND SWAP1 DUP4 PUSH20 0xFFFFFFFFFFFFFFFFFFFFFFFFFFFFFFFFFFFFFFFF AND MUL OR SWAP1 SSTORE POP PUSH1 0x1 DUP1 PUSH1 0x1 DUP4 PUSH2 0xB0F SWAP2 SWAP1 PUSH2 0x16D2 JUMP JUMPDEST DUP2 SLOAD DUP2 LT PUSH2 0xB20 JUMPI PUSH2 0xB1F PUSH2 0x18AC JUMP JUMPDEST JUMPDEST SWAP1 PUSH1 0x0 MSTORE PUSH1 0x20 PUSH1 0x0 KECCAK256 SWAP1 PUSH1 0x6 MUL ADD PUSH1 0x5 ADD PUSH1 0x14 PUSH2 0x100 EXP DUP2 SLOAD DUP2 PUSH1 0xFF MUL NOT AND SWAP1 DUP4 ISZERO ISZERO MUL OR SWAP1 SSTORE POP PUSH32 0x2C9B5E9655A41AB13C5183C231239DF125ECBD546A947624C913CFD43094906E DUP2 CALLER PUSH1 0x40 MLOAD PUSH2 0xB79 SWAP3 SWAP2 SWAP1 PUSH2 0x15DD JUMP JUMPDEST PUSH1 0x40 MLOAD DUP1 SWAP2 SUB SWAP1 LOG1 POP JUMP JUMPDEST PUSH1 0x0 SLOAD DUP2 LT PUSH2 0xBC8 JUMPI PUSH1 0x40 MLOAD PUSH32 0x8C379A000000000000000000000000000000000000000000000000000000000 DUP2 MSTORE PUSH1 0x4 ADD PUSH2 0xBBF SWAP1 PUSH2 0x1562 JUMP JUMPDEST PUSH1 0x40 MLOAD DUP1 SWAP2 SUB SWAP1 REVERT JUMPDEST PUSH1 0x0 PUSH20 0xFFFFFFFFFFFFFFFFFFFFFFFFFFFFFFFFFFFFFFFF AND PUSH1 0x1 DUP1 DUP4 PUSH2 0xBEE SWAP2 SWAP1 PUSH2 0x16D2 JUMP JUMPDEST DUP2 SLOAD DUP2 LT PUSH2 0xBFF JUMPI PUSH2 0xBFE PUSH2 0x18AC JUMP JUMPDEST JUMPDEST SWAP1 PUSH1 0x0 MSTORE PUSH1 0x20 PUSH1 0x0 KECCAK256 SWAP1 PUSH1 0x6 MUL ADD PUSH1 0x5 ADD PUSH1 0x0 SWAP1 SLOAD SWAP1 PUSH2 0x100 EXP SWAP1 DIV PUSH20 0xFFFFFFFFFFFFFFFFFFFFFFFFFFFFFFFFFFFFFFFF AND PUSH20 0xFFFFFFFFFFFFFFFFFFFFFFFFFFFFFFFFFFFFFFFF AND EQ ISZERO PUSH2 0xC88 JUMPI PUSH1 0x40 MLOAD PUSH32 0x8C379A000000000000000000000000000000000000000000000000000000000 DUP2 MSTORE PUSH1 0x4 ADD PUSH2 0xC7F SWAP1 PUSH2 0x1482 JUMP JUMPDEST PUSH1 0x40 MLOAD DUP1 SWAP2 SUB SWAP1 REVERT JUMPDEST PUSH1 0x0 ISZERO ISZERO PUSH1 0x1 DUP1 DUP4 PUSH2 0xC9A SWAP2 SWAP1 PUSH2 0x16D2 JUMP JUMPDEST DUP2 SLOAD DUP2 LT PUSH2 0xCAB JUMPI PUSH2 0xCAA PUSH2 0x18AC JUMP JUMPDEST JUMPDEST SWAP1 PUSH1 0x0 MSTORE PUSH1 0x20 PUSH1 0x0 KECCAK256 SWAP1 PUSH1 0x6 MUL ADD PUSH1 0x5 ADD PUSH1 0x15 SWAP1 SLOAD SWAP1 PUSH2 0x100 EXP SWAP1 DIV PUSH1 0xFF AND ISZERO ISZERO EQ PUSH2 0xD0C JUMPI PUSH1 0x40 MLOAD PUSH32 0x8C379A000000000000000000000000000000000000000000000000000000000 DUP2 MSTORE PUSH1 0x4 ADD PUSH2 0xD03 SWAP1 PUSH2 0x1582 JUMP JUMPDEST PUSH1 0x40 MLOAD DUP1 SWAP2 SUB SWAP1 REVERT JUMPDEST CALLER PUSH20 0xFFFFFFFFFFFFFFFFFFFFFFFFFFFFFFFFFFFFFFFF AND PUSH1 0x1 DUP1 DUP4 PUSH2 0xD31 SWAP2 SWAP1 PUSH2 0x16D2 JUMP JUMPDEST DUP2 SLOAD DUP2 LT PUSH2 0xD42 JUMPI PUSH2 0xD41 PUSH2 0x18AC JUMP JUMPDEST JUMPDEST SWAP1 PUSH1 0x0 MSTORE PUSH1 0x20 PUSH1 0x0 KECCAK256 SWAP1 PUSH1 0x6 MUL ADD PUSH1 0x4 ADD PUSH1 0x0 SWAP1 SLOAD SWAP1 PUSH2 0x100 EXP SWAP1 DIV PUSH20 0xFFFFFFFFFFFFFFFFFFFFFFFFFFFFFFFFFFFFFFFF AND PUSH20 0xFFFFFFFFFFFFFFFFFFFFFFFFFFFFFFFFFFFFFFFF AND EQ PUSH2 0xDCA JUMPI PUSH1 0x40 MLOAD PUSH32 0x8C379A000000000000000000000000000000000000000000000000000000000 DUP2 MSTORE PUSH1 0x4 ADD PUSH2 0xDC1 SWAP1 PUSH2 0x1462 JUMP JUMPDEST PUSH1 0x40 MLOAD DUP1 SWAP2 SUB SWAP1 REVERT JUMPDEST PUSH1 0x0 PUSH1 0x1 DUP1 DUP4 PUSH2 0xDDA SWAP2 SWAP1 PUSH2 0x16D2 JUMP JUMPDEST DUP2 SLOAD DUP2 LT PUSH2 0xDEB JUMPI PUSH2 0xDEA PUSH2 0x18AC JUMP JUMPDEST JUMPDEST SWAP1 PUSH1 0x0 MSTORE PUSH1 0x20 PUSH1 0x0 KECCAK256 SWAP1 PUSH1 0x6 MUL ADD PUSH1 0x5 ADD PUSH1 0x14 PUSH2 0x100 EXP DUP2 SLOAD DUP2 PUSH1 0xFF MUL NOT AND SWAP1 DUP4 ISZERO ISZERO MUL OR SWAP1 SSTORE POP PUSH1 0x1 DUP1 DUP3 PUSH2 0xE21 SWAP2 SWAP1 PUSH2 0x16D2 JUMP JUMPDEST DUP2 SLOAD DUP2 LT PUSH2 0xE32 JUMPI PUSH2 0xE31 PUSH2 0x18AC JUMP JUMPDEST JUMPDEST SWAP1 PUSH1 0x0 MSTORE PUSH1 0x20 PUSH1 0x0 KECCAK256 SWAP1 PUSH1 0x6 MUL ADD PUSH1 0x5 ADD PUSH1 0x0 SWAP1 SLOAD SWAP1 PUSH2 0x100 EXP SWAP1 DIV PUSH20 0xFFFFFFFFFFFFFFFFFFFFFFFFFFFFFFFFFFFFFFFF AND PUSH20 0xFFFFFFFFFFFFFFFFFFFFFFFFFFFFFFFFFFFFFFFF AND PUSH2 0x8FC PUSH1 0x1 DUP1 DUP5 PUSH2 0xE8B SWAP2 SWAP1 PUSH2 0x16D2 JUMP JUMPDEST DUP2 SLOAD DUP2 LT PUSH2 0xE9C JUMPI PUSH2 0xE9B PUSH2 0x18AC JUMP JUMPDEST JUMPDEST SWAP1 PUSH1 0x0 MSTORE PUSH1 0x20 PUSH1 0x0 KECCAK256 SWAP1 PUSH1 0x6 MUL ADD PUSH1 0x3 ADD SLOAD SWAP1 DUP2 ISZERO MUL SWAP1 PUSH1 0x40 MLOAD PUSH1 0x0 PUSH1 0x40 MLOAD DUP1 DUP4 SUB DUP2 DUP6 DUP9 DUP9 CALL SWAP4 POP POP POP POP ISZERO DUP1 ISZERO PUSH2 0xED9 JUMPI RETURNDATASIZE PUSH1 0x0 DUP1 RETURNDATACOPY RETURNDATASIZE PUSH1 0x0 REVERT JUMPDEST POP PUSH1 0x0 PUSH1 0x1 DUP1 DUP4 PUSH2 0xEEA SWAP2 SWAP1 PUSH2 0x16D2 JUMP JUMPDEST DUP2 SLOAD DUP2 LT PUSH2 0xEFB JUMPI PUSH2 0xEFA PUSH2 0x18AC JUMP JUMPDEST JUMPDEST SWAP1 PUSH1 0x0 MSTORE PUSH1 0x20 PUSH1 0x0 KECCAK256 SWAP1 PUSH1 0x6 MUL ADD PUSH1 0x5 ADD PUSH1 0x0 PUSH2 0x100 EXP DUP2 SLOAD DUP2 PUSH20 0xFFFFFFFFFFFFFFFFFFFFFFFFFFFFFFFFFFFFFFFF MUL NOT AND SWAP1 DUP4 PUSH20 0xFFFFFFFFFFFFFFFFFFFFFFFFFFFFFFFFFFFFFFFF AND MUL OR SWAP1 SSTORE POP POP JUMP JUMPDEST PUSH1 0x40 MLOAD DUP1 PUSH2 0x100 ADD PUSH1 0x40 MSTORE DUP1 PUSH1 0x60 DUP2 MSTORE PUSH1 0x20 ADD PUSH1 0x60 DUP2 MSTORE PUSH1 0x20 ADD PUSH1 0x0 DUP2 MSTORE PUSH1 0x20 ADD PUSH1 0x0 DUP2 MSTORE PUSH1 0x20 ADD PUSH1 0x0 PUSH20 0xFFFFFFFFFFFFFFFFFFFFFFFFFFFFFFFFFFFFFFFF AND DUP2 MSTORE PUSH1 0x20 ADD PUSH1 0x0 PUSH20 0xFFFFFFFFFFFFFFFFFFFFFFFFFFFFFFFFFFFFFFFF AND DUP2 MSTORE PUSH1 0x20 ADD PUSH1 0x0 ISZERO ISZERO DUP2 MSTORE PUSH1 0x20 ADD PUSH1 0x0 ISZERO ISZERO DUP2 MSTORE POP SWAP1 JUMP JUMPDEST DUP3 DUP1 SLOAD PUSH2 0xFCE SWAP1 PUSH2 0x17A2 JUMP JUMPDEST SWAP1 PUSH1 0x0 MSTORE PUSH1 0x20 PUSH1 0x0 KECCAK256 SWAP1 PUSH1 0x1F ADD PUSH1 0x20 SWAP1 DIV DUP2 ADD SWAP3 DUP3 PUSH2 0xFF0 JUMPI PUSH1 0x0 DUP6 SSTORE PUSH2 0x1037 JUMP JUMPDEST DUP3 PUSH1 0x1F LT PUSH2 0x1009 JUMPI DUP1 MLOAD PUSH1 0xFF NOT AND DUP4 DUP1 ADD OR DUP6 SSTORE PUSH2 0x1037 JUMP JUMPDEST DUP3 DUP1 ADD PUSH1 0x1 ADD DUP6 SSTORE DUP3 ISZERO PUSH2 0x1037 JUMPI SWAP2 DUP3 ADD JUMPDEST DUP3 DUP2 GT ISZERO PUSH2 0x1036 JUMPI DUP3 MLOAD DUP3 SSTORE SWAP2 PUSH1 0x20 ADD SWAP2 SWAP1 PUSH1 0x1 ADD SWAP1 PUSH2 0x101B JUMP JUMPDEST JUMPDEST POP SWAP1 POP PUSH2 0x1044 SWAP2 SWAP1 PUSH2 0x1048 JUMP JUMPDEST POP SWAP1 JUMP JUMPDEST JUMPDEST DUP1 DUP3 GT ISZERO PUSH2 0x1061 JUMPI PUSH1 0x0 DUP2 PUSH1 0x0 SWAP1 SSTORE POP PUSH1 0x1 ADD PUSH2 0x1049 JUMP JUMPDEST POP SWAP1 JUMP JUMPDEST PUSH1 0x0 PUSH2 0x1078 PUSH2 0x1073 DUP5 PUSH2 0x162B JUMP JUMPDEST PUSH2 0x1606 JUMP JUMPDEST SWAP1 POP DUP3 DUP2 MSTORE PUSH1 0x20 DUP2 ADD DUP5 DUP5 DUP5 ADD GT ISZERO PUSH2 0x1094 JUMPI PUSH2 0x1093 PUSH2 0x190F JUMP JUMPDEST JUMPDEST PUSH2 0x109F DUP5 DUP3 DUP6 PUSH2 0x1760 JUMP JUMPDEST POP SWAP4 SWAP3 POP POP POP JUMP JUMPDEST PUSH1 0x0 DUP3 PUSH1 0x1F DUP4 ADD SLT PUSH2 0x10BC JUMPI PUSH2 0x10BB PUSH2 0x190A JUMP JUMPDEST JUMPDEST DUP2 CALLDATALOAD PUSH2 0x10CC DUP5 DUP3 PUSH1 0x20 DUP7 ADD PUSH2 0x1065 JUMP JUMPDEST SWAP2 POP POP SWAP3 SWAP2 POP POP JUMP JUMPDEST PUSH1 0x0 DUP2 CALLDATALOAD SWAP1 POP PUSH2 0x10E4 DUP2 PUSH2 0x1B8A JUMP JUMPDEST SWAP3 SWAP2 POP POP JUMP JUMPDEST PUSH1 0x0 DUP1 PUSH1 0x0 PUSH1 0x60 DUP5 DUP7 SUB SLT ISZERO PUSH2 0x1103 JUMPI PUSH2 0x1102 PUSH2 0x1919 JUMP JUMPDEST JUMPDEST PUSH1 0x0 DUP5 ADD CALLDATALOAD PUSH8 0xFFFFFFFFFFFFFFFF DUP2 GT ISZERO PUSH2 0x1121 JUMPI PUSH2 0x1120 PUSH2 0x1914 JUMP JUMPDEST JUMPDEST PUSH2 0x112D DUP7 DUP3 DUP8 ADD PUSH2 0x10A7 JUMP JUMPDEST SWAP4 POP POP PUSH1 0x20 DUP5 ADD CALLDATALOAD PUSH8 0xFFFFFFFFFFFFFFFF DUP2 GT ISZERO PUSH2 0x114E JUMPI PUSH2 0x114D PUSH2 0x1914 JUMP JUMPDEST JUMPDEST PUSH2 0x115A DUP7 DUP3 DUP8 ADD PUSH2 0x10A7 JUMP JUMPDEST SWAP3 POP POP PUSH1 0x40 PUSH2 0x116B DUP7 DUP3 DUP8 ADD PUSH2 0x10D5 JUMP JUMPDEST SWAP2 POP POP SWAP3 POP SWAP3 POP SWAP3 JUMP JUMPDEST PUSH1 0x0 PUSH1 0x20 DUP3 DUP5 SUB SLT ISZERO PUSH2 0x118B JUMPI PUSH2 0x118A PUSH2 0x1919 JUMP JUMPDEST JUMPDEST PUSH1 0x0 PUSH2 0x1199 DUP5 DUP3 DUP6 ADD PUSH2 0x10D5 JUMP JUMPDEST SWAP2 POP POP SWAP3 SWAP2 POP POP JUMP JUMPDEST PUSH2 0x11AB DUP2 PUSH2 0x1718 JUMP JUMPDEST DUP3 MSTORE POP POP JUMP JUMPDEST PUSH2 0x11BA DUP2 PUSH2 0x1706 JUMP JUMPDEST DUP3 MSTORE POP POP JUMP JUMPDEST PUSH2 0x11C9 DUP2 PUSH2 0x172A JUMP JUMPDEST DUP3 MSTORE POP POP JUMP JUMPDEST PUSH1 0x0 PUSH2 0x11DA DUP3 PUSH2 0x165C JUMP JUMPDEST PUSH2 0x11E4 DUP2 DUP6 PUSH2 0x1667 JUMP JUMPDEST SWAP4 POP PUSH2 0x11F4 DUP2 DUP6 PUSH1 0x20 DUP7 ADD PUSH2 0x176F JUMP JUMPDEST PUSH2 0x11FD DUP2 PUSH2 0x191E JUMP JUMPDEST DUP5 ADD SWAP2 POP POP SWAP3 SWAP2 POP POP JUMP JUMPDEST PUSH1 0x0 PUSH2 0x1215 PUSH1 0x2A DUP4 PUSH2 0x1667 JUMP JUMPDEST SWAP2 POP PUSH2 0x1220 DUP3 PUSH2 0x192F JUMP JUMPDEST PUSH1 0x40 DUP3 ADD SWAP1 POP SWAP2 SWAP1 POP JUMP JUMPDEST PUSH1 0x0 PUSH2 0x1238 PUSH1 0x18 DUP4 PUSH2 0x1667 JUMP JUMPDEST SWAP2 POP PUSH2 0x1243 DUP3 PUSH2 0x197E JUMP JUMPDEST PUSH1 0x20 DUP3 ADD SWAP1 POP SWAP2 SWAP1 POP JUMP JUMPDEST PUSH1 0x0 PUSH2 0x125B PUSH1 0x20 DUP4 PUSH2 0x1667 JUMP JUMPDEST SWAP2 POP PUSH2 0x1266 DUP3 PUSH2 0x19A7 JUMP JUMPDEST PUSH1 0x20 DUP3 ADD SWAP1 POP SWAP2 SWAP1 POP JUMP JUMPDEST PUSH1 0x0 PUSH2 0x127E PUSH1 0x1B DUP4 PUSH2 0x1667 JUMP JUMPDEST SWAP2 POP PUSH2 0x1289 DUP3 PUSH2 0x19D0 JUMP JUMPDEST PUSH1 0x20 DUP3 ADD SWAP1 POP SWAP2 SWAP1 POP JUMP JUMPDEST PUSH1 0x0 PUSH2 0x12A1 PUSH1 0x24 DUP4 PUSH2 0x1667 JUMP JUMPDEST SWAP2 POP PUSH2 0x12AC DUP3 PUSH2 0x19F9 JUMP JUMPDEST PUSH1 0x40 DUP3 ADD SWAP1 POP SWAP2 SWAP1 POP JUMP JUMPDEST PUSH1 0x0 PUSH2 0x12C4 PUSH1 0x21 DUP4 PUSH2 0x1667 JUMP JUMPDEST SWAP2 POP PUSH2 0x12CF DUP3 PUSH2 0x1A48 JUMP JUMPDEST PUSH1 0x40 DUP3 ADD SWAP1 POP SWAP2 SWAP1 POP JUMP JUMPDEST PUSH1 0x0 PUSH2 0x12E7 PUSH1 0x1A DUP4 PUSH2 0x1667 JUMP JUMPDEST SWAP2 POP PUSH2 0x12F2 DUP3 PUSH2 0x1A97 JUMP JUMPDEST PUSH1 0x20 DUP3 ADD SWAP1 POP SWAP2 SWAP1 POP JUMP JUMPDEST PUSH1 0x0 PUSH2 0x130A PUSH1 0x18 DUP4 PUSH2 0x1667 JUMP JUMPDEST SWAP2 POP PUSH2 0x1315 DUP3 PUSH2 0x1AC0 JUMP JUMPDEST PUSH1 0x20 DUP3 ADD SWAP1 POP SWAP2 SWAP1 POP JUMP JUMPDEST PUSH1 0x0 PUSH2 0x132D PUSH1 0xF DUP4 PUSH2 0x1667 JUMP JUMPDEST SWAP2 POP PUSH2 0x1338 DUP3 PUSH2 0x1AE9 JUMP JUMPDEST PUSH1 0x20 DUP3 ADD SWAP1 POP SWAP2 SWAP1 POP JUMP JUMPDEST PUSH1 0x0 PUSH2 0x1350 PUSH1 0x22 DUP4 PUSH2 0x1667 JUMP JUMPDEST SWAP2 POP PUSH2 0x135B DUP3 PUSH2 0x1B12 JUMP JUMPDEST PUSH1 0x40 DUP3 ADD SWAP1 POP SWAP2 SWAP1 POP JUMP JUMPDEST PUSH1 0x0 PUSH2 0x1373 PUSH1 0x1F DUP4 PUSH2 0x1667 JUMP JUMPDEST SWAP2 POP PUSH2 0x137E DUP3 PUSH2 0x1B61 JUMP JUMPDEST PUSH1 0x20 DUP3 ADD SWAP1 POP SWAP2 SWAP1 POP JUMP JUMPDEST PUSH2 0x1392 DUP2 PUSH2 0x1756 JUMP JUMPDEST DUP3 MSTORE POP POP JUMP JUMPDEST PUSH1 0x0 PUSH2 0x100 DUP3 ADD SWAP1 POP DUP2 DUP2 SUB PUSH1 0x0 DUP4 ADD MSTORE PUSH2 0x13B3 DUP2 DUP12 PUSH2 0x11CF JUMP JUMPDEST SWAP1 POP DUP2 DUP2 SUB PUSH1 0x20 DUP4 ADD MSTORE PUSH2 0x13C7 DUP2 DUP11 PUSH2 0x11CF JUMP JUMPDEST SWAP1 POP PUSH2 0x13D6 PUSH1 0x40 DUP4 ADD DUP10 PUSH2 0x1389 JUMP JUMPDEST PUSH2 0x13E3 PUSH1 0x60 DUP4 ADD DUP9 PUSH2 0x1389 JUMP JUMPDEST PUSH2 0x13F0 PUSH1 0x80 DUP4 ADD DUP8 PUSH2 0x11A2 JUMP JUMPDEST PUSH2 0x13FD PUSH1 0xA0 DUP4 ADD DUP7 PUSH2 0x11A2 JUMP JUMPDEST PUSH2 0x140A PUSH1 0xC0 DUP4 ADD DUP6 PUSH2 0x11C0 JUMP JUMPDEST PUSH2 0x1417 PUSH1 0xE0 DUP4 ADD DUP5 PUSH2 0x11C0 JUMP JUMPDEST SWAP10 SWAP9 POP POP POP POP POP POP POP POP POP JUMP JUMPDEST PUSH1 0x0 PUSH1 0x60 DUP3 ADD SWAP1 POP DUP2 DUP2 SUB PUSH1 0x0 DUP4 ADD MSTORE PUSH2 0x143E DUP2 DUP7 PUSH2 0x11CF JUMP JUMPDEST SWAP1 POP PUSH2 0x144D PUSH1 0x20 DUP4 ADD DUP6 PUSH2 0x1389 JUMP JUMPDEST PUSH2 0x145A PUSH1 0x40 DUP4 ADD DUP5 PUSH2 0x11B1 JUMP JUMPDEST SWAP5 SWAP4 POP POP POP POP JUMP JUMPDEST PUSH1 0x0 PUSH1 0x20 DUP3 ADD SWAP1 POP DUP2 DUP2 SUB PUSH1 0x0 DUP4 ADD MSTORE PUSH2 0x147B DUP2 PUSH2 0x1208 JUMP JUMPDEST SWAP1 POP SWAP2 SWAP1 POP JUMP JUMPDEST PUSH1 0x0 PUSH1 0x20 DUP3 ADD SWAP1 POP DUP2 DUP2 SUB PUSH1 0x0 DUP4 ADD MSTORE PUSH2 0x149B DUP2 PUSH2 0x122B JUMP JUMPDEST SWAP1 POP SWAP2 SWAP1 POP JUMP JUMPDEST PUSH1 0x0 PUSH1 0x20 DUP3 ADD SWAP1 POP DUP2 DUP2 SUB PUSH1 0x0 DUP4 ADD MSTORE PUSH2 0x14BB DUP2 PUSH2 0x124E JUMP JUMPDEST SWAP1 POP SWAP2 SWAP1 POP JUMP JUMPDEST PUSH1 0x0 PUSH1 0x20 DUP3 ADD SWAP1 POP DUP2 DUP2 SUB PUSH1 0x0 DUP4 ADD MSTORE PUSH2 0x14DB DUP2 PUSH2 0x1271 JUMP JUMPDEST SWAP1 POP SWAP2 SWAP1 POP JUMP JUMPDEST PUSH1 0x0 PUSH1 0x20 DUP3 ADD SWAP1 POP DUP2 DUP2 SUB PUSH1 0x0 DUP4 ADD MSTORE PUSH2 0x14FB DUP2 PUSH2 0x1294 JUMP JUMPDEST SWAP1 POP SWAP2 SWAP1 POP JUMP JUMPDEST PUSH1 0x0 PUSH1 0x20 DUP3 ADD SWAP1 POP DUP2 DUP2 SUB PUSH1 0x0 DUP4 ADD MSTORE PUSH2 0x151B DUP2 PUSH2 0x12B7 JUMP JUMPDEST SWAP1 POP SWAP2 SWAP1 POP JUMP JUMPDEST PUSH1 0x0 PUSH1 0x20 DUP3 ADD SWAP1 POP DUP2 DUP2 SUB PUSH1 0x0 DUP4 ADD MSTORE PUSH2 0x153B DUP2 PUSH2 0x12DA JUMP JUMPDEST SWAP1 POP SWAP2 SWAP1 POP JUMP JUMPDEST PUSH1 0x0 PUSH1 0x20 DUP3 ADD SWAP1 POP DUP2 DUP2 SUB PUSH1 0x0 DUP4 ADD MSTORE PUSH2 0x155B DUP2 PUSH2 0x12FD JUMP JUMPDEST SWAP1 POP SWAP2 SWAP1 POP JUMP JUMPDEST PUSH1 0x0 PUSH1 0x20 DUP3 ADD SWAP1 POP DUP2 DUP2 SUB PUSH1 0x0 DUP4 ADD MSTORE PUSH2 0x157B DUP2 PUSH2 0x1320 JUMP JUMPDEST SWAP1 POP SWAP2 SWAP1 POP JUMP JUMPDEST PUSH1 0x0 PUSH1 0x20 DUP3 ADD SWAP1 POP DUP2 DUP2 SUB PUSH1 0x0 DUP4 ADD MSTORE PUSH2 0x159B DUP2 PUSH2 0x1343 JUMP JUMPDEST SWAP1 POP SWAP2 SWAP1 POP JUMP JUMPDEST PUSH1 0x0 PUSH1 0x20 DUP3 ADD SWAP1 POP DUP2 DUP2 SUB PUSH1 0x0 DUP4 ADD MSTORE PUSH2 0x15BB DUP2 PUSH2 0x1366 JUMP JUMPDEST SWAP1 POP SWAP2 SWAP1 POP JUMP JUMPDEST PUSH1 0x0 PUSH1 0x20 DUP3 ADD SWAP1 POP PUSH2 0x15D7 PUSH1 0x0 DUP4 ADD DUP5 PUSH2 0x1389 JUMP JUMPDEST SWAP3 SWAP2 POP POP JUMP JUMPDEST PUSH1 0x0 PUSH1 0x40 DUP3 ADD SWAP1 POP PUSH2 0x15F2 PUSH1 0x0 DUP4 ADD DUP6 PUSH2 0x1389 JUMP JUMPDEST PUSH2 0x15FF PUSH1 0x20 DUP4 ADD DUP5 PUSH2 0x11B1 JUMP JUMPDEST SWAP4 SWAP3 POP POP POP JUMP JUMPDEST PUSH1 0x0 PUSH2 0x1610 PUSH2 0x1621 JUMP JUMPDEST SWAP1 POP PUSH2 0x161C DUP3 DUP3 PUSH2 0x17D4 JUMP JUMPDEST SWAP2 SWAP1 POP JUMP JUMPDEST PUSH1 0x0 PUSH1 0x40 MLOAD SWAP1 POP SWAP1 JUMP JUMPDEST PUSH1 0x0 PUSH8 0xFFFFFFFFFFFFFFFF DUP3 GT ISZERO PUSH2 0x1646 JUMPI PUSH2 0x1645 PUSH2 0x18DB JUMP JUMPDEST JUMPDEST PUSH2 0x164F DUP3 PUSH2 0x191E JUMP JUMPDEST SWAP1 POP PUSH1 0x20 DUP2 ADD SWAP1 POP SWAP2 SWAP1 POP JUMP JUMPDEST PUSH1 0x0 DUP2 MLOAD SWAP1 POP SWAP2 SWAP1 POP JUMP JUMPDEST PUSH1 0x0 DUP3 DUP3 MSTORE PUSH1 0x20 DUP3 ADD SWAP1 POP SWAP3 SWAP2 POP POP JUMP JUMPDEST PUSH1 0x0 PUSH2 0x1683 DUP3 PUSH2 0x1756 JUMP JUMPDEST SWAP2 POP PUSH2 0x168E DUP4 PUSH2 0x1756 JUMP JUMPDEST SWAP3 POP DUP2 PUSH32 0xFFFFFFFFFFFFFFFFFFFFFFFFFFFFFFFFFFFFFFFFFFFFFFFFFFFFFFFFFFFFFFFF DIV DUP4 GT DUP3 ISZERO ISZERO AND ISZERO PUSH2 0x16C7 JUMPI PUSH2 0x16C6 PUSH2 0x184E JUMP JUMPDEST JUMPDEST DUP3 DUP3 MUL SWAP1 POP SWAP3 SWAP2 POP POP JUMP JUMPDEST PUSH1 0x0 PUSH2 0x16DD DUP3 PUSH2 0x1756 JUMP JUMPDEST SWAP2 POP PUSH2 0x16E8 DUP4 PUSH2 0x1756 JUMP JUMPDEST SWAP3 POP DUP3 DUP3 LT ISZERO PUSH2 0x16FB JUMPI PUSH2 0x16FA PUSH2 0x184E JUMP JUMPDEST JUMPDEST DUP3 DUP3 SUB SWAP1 POP SWAP3 SWAP2 POP POP JUMP JUMPDEST PUSH1 0x0 PUSH2 0x1711 DUP3 PUSH2 0x1736 JUMP JUMPDEST SWAP1 POP SWAP2 SWAP1 POP JUMP JUMPDEST PUSH1 0x0 PUSH2 0x1723 DUP3 PUSH2 0x1736 JUMP JUMPDEST SWAP1 POP SWAP2 SWAP1 POP JUMP JUMPDEST PUSH1 0x0 DUP2 ISZERO ISZERO SWAP1 POP SWAP2 SWAP1 POP JUMP JUMPDEST PUSH1 0x0 PUSH20 0xFFFFFFFFFFFFFFFFFFFFFFFFFFFFFFFFFFFFFFFF DUP3 AND SWAP1 POP SWAP2 SWAP1 POP JUMP JUMPDEST PUSH1 0x0 DUP2 SWAP1 POP SWAP2 SWAP1 POP JUMP JUMPDEST DUP3 DUP2 DUP4 CALLDATACOPY PUSH1 0x0 DUP4 DUP4 ADD MSTORE POP POP POP JUMP JUMPDEST PUSH1 0x0 JUMPDEST DUP4 DUP2 LT ISZERO PUSH2 0x178D JUMPI DUP1 DUP3 ADD MLOAD DUP2 DUP5 ADD MSTORE PUSH1 0x20 DUP2 ADD SWAP1 POP PUSH2 0x1772 JUMP JUMPDEST DUP4 DUP2 GT ISZERO PUSH2 0x179C JUMPI PUSH1 0x0 DUP5 DUP5 ADD MSTORE JUMPDEST POP POP POP POP JUMP JUMPDEST PUSH1 0x0 PUSH1 0x2 DUP3 DIV SWAP1 POP PUSH1 0x1 DUP3 AND DUP1 PUSH2 0x17BA JUMPI PUSH1 0x7F DUP3 AND SWAP2 POP JUMPDEST PUSH1 0x20 DUP3 LT DUP2 EQ ISZERO PUSH2 0x17CE JUMPI PUSH2 0x17CD PUSH2 0x187D JUMP JUMPDEST JUMPDEST POP SWAP2 SWAP1 POP JUMP JUMPDEST PUSH2 0x17DD DUP3 PUSH2 0x191E JUMP JUMPDEST DUP2 ADD DUP2 DUP2 LT PUSH8 0xFFFFFFFFFFFFFFFF DUP3 GT OR ISZERO PUSH2 0x17FC JUMPI PUSH2 0x17FB PUSH2 0x18DB JUMP JUMPDEST JUMPDEST DUP1 PUSH1 0x40 MSTORE POP POP POP JUMP JUMPDEST PUSH1 0x0 PUSH2 0x1810 DUP3 PUSH2 0x1756 JUMP JUMPDEST SWAP2 POP PUSH32 0xFFFFFFFFFFFFFFFFFFFFFFFFFFFFFFFFFFFFFFFFFFFFFFFFFFFFFFFFFFFFFFFF DUP3 EQ ISZERO PUSH2 0x1843 JUMPI PUSH2 0x1842 PUSH2 0x184E JUMP JUMPDEST JUMPDEST PUSH1 0x1 DUP3 ADD SWAP1 POP SWAP2 SWAP1 POP JUMP JUMPDEST PUSH32 0x4E487B7100000000000000000000000000000000000000000000000000000000 PUSH1 0x0 MSTORE PUSH1 0x11 PUSH1 0x4 MSTORE PUSH1 0x24 PUSH1 0x0 REVERT JUMPDEST PUSH32 0x4E487B7100000000000000000000000000000000000000000000000000000000 PUSH1 0x0 MSTORE PUSH1 0x22 PUSH1 0x4 MSTORE PUSH1 0x24 PUSH1 0x0 REVERT JUMPDEST PUSH32 0x4E487B7100000000000000000000000000000000000000000000000000000000 PUSH1 0x0 MSTORE PUSH1 0x32 PUSH1 0x4 MSTORE PUSH1 0x24 PUSH1 0x0 REVERT JUMPDEST PUSH32 0x4E487B7100000000000000000000000000000000000000000000000000000000 PUSH1 0x0 MSTORE PUSH1 0x41 PUSH1 0x4 MSTORE PUSH1 0x24 PUSH1 0x0 REVERT JUMPDEST PUSH1 0x0 DUP1 REVERT JUMPDEST PUSH1 0x0 DUP1 REVERT JUMPDEST PUSH1 0x0 DUP1 REVERT JUMPDEST PUSH1 0x0 DUP1 REVERT JUMPDEST PUSH1 0x0 PUSH1 0x1F NOT PUSH1 0x1F DUP4 ADD AND SWAP1 POP SWAP2 SWAP1 POP JUMP JUMPDEST PUSH32 0x4F6E6C792073656C6C65722063616E20636F6E6669726D206661696C65642074 PUSH1 0x0 DUP3 ADD MSTORE PUSH32 0x72616E73616374696F6E00000000000000000000000000000000000000000000 PUSH1 0x20 DUP3 ADD MSTORE POP JUMP JUMPDEST PUSH32 0x50726F64756374207761736E2774207075726368617365640000000000000000 PUSH1 0x0 DUP3 ADD MSTORE POP JUMP JUMPDEST PUSH32 0x5468652070726F6475637420697320616C72656164792064656C697665726564 PUSH1 0x0 DUP3 ADD MSTORE POP JUMP JUMPDEST PUSH32 0x5468652070726F647563742069736E2774207075726368617365640000000000 PUSH1 0x0 DUP3 ADD MSTORE POP JUMP JUMPDEST PUSH32 0x536F6D65206F746865722075736572206F72646572656420746869732070726F PUSH1 0x0 DUP3 ADD MSTORE PUSH32 0x6475637400000000000000000000000000000000000000000000000000000000 PUSH1 0x20 DUP3 ADD MSTORE POP JUMP JUMPDEST PUSH32 0x53656C6C65722063616E6E6F742062757920686973206F776E2070726F647563 PUSH1 0x0 DUP3 ADD MSTORE PUSH32 0x7400000000000000000000000000000000000000000000000000000000000000 PUSH1 0x20 DUP3 ADD MSTORE POP JUMP JUMPDEST PUSH32 0x50726963652063616E2774206265206C657373207468616E2030000000000000 PUSH1 0x0 DUP3 ADD MSTORE POP JUMP JUMPDEST PUSH32 0x54686520616D6F756E74206D7573742062652065786163740000000000000000 PUSH1 0x0 DUP3 ADD MSTORE POP JUMP JUMPDEST PUSH32 0x4E6F20737563682070726F647563740000000000000000000000000000000000 PUSH1 0x0 DUP3 ADD MSTORE POP JUMP JUMPDEST PUSH32 0x50726F6475637420776173207375636365737366756C6C792064656C69766572 PUSH1 0x0 DUP3 ADD MSTORE PUSH32 0x6564000000000000000000000000000000000000000000000000000000000000 PUSH1 0x20 DUP3 ADD MSTORE POP JUMP JUMPDEST PUSH32 0x4F6E6C792062757965722063616E20636F6E6669726D2064656C697665727900 PUSH1 0x0 DUP3 ADD MSTORE POP JUMP JUMPDEST PUSH2 0x1B93 DUP2 PUSH2 0x1756 JUMP JUMPDEST DUP2 EQ PUSH2 0x1B9E JUMPI PUSH1 0x0 DUP1 REVERT JUMPDEST POP JUMP INVALID LOG2 PUSH5 0x6970667358 0x22 SLT KECCAK256 DUP9 0xDC 0x2F 0xAB PUSH17 0x1E0099AAC5A802EFAD8D5E7DF9771FB591 LOG0 CREATE 0x5F PC 0xE4 XOR PUSH15 0x95B82364736F6C6343000807003300 "
				},
				"gasEstimates": {
					"creation": {
						"codeDepositCost": "1425400",
						"executionCost": "23592",
						"totalCost": "1448992"
					},
					"external": {
						"buyProduct(uint256)": "infinite",
						"delivery(uint256)": "infinite",
						"failed(uint256)": "infinite",
						"products(uint256)": "infinite",
						"registerProduct(string,string,uint256)": "infinite"
					}
				},
				"methodIdentifiers": {
					"buyProduct(uint256)": "8642269e",
					"delivery(uint256)": "1144fd72",
					"failed(uint256)": "f2e5f682",
					"products(uint256)": "7acc0b20",
					"registerProduct(string,string,uint256)": "3153a15b"
				}
			},
			"storageLayout": {
				"storage": [
					{
						"astId": 21,
						"contract": "smartcontract.sol:XYZ",
						"label": "counter",
						"offset": 0,
						"slot": "0",
						"type": "t_uint256"
					},
					{
						"astId": 25,
						"contract": "smartcontract.sol:XYZ",
						"label": "products",
						"offset": 0,
						"slot": "1",
						"type": "t_array(t_struct(Product)18_storage)dyn_storage"
					}
				],
				"types": {
					"t_address_payable": {
						"encoding": "inplace",
						"label": "address payable",
						"numberOfBytes": "20"
					},
					"t_array(t_struct(Product)18_storage)dyn_storage": {
						"base": "t_struct(Product)18_storage",
						"encoding": "dynamic_array",
						"label": "struct XYZ.Product[]",
						"numberOfBytes": "32"
					},
					"t_bool": {
						"encoding": "inplace",
						"label": "bool",
						"numberOfBytes": "1"
					},
					"t_string_storage": {
						"encoding": "bytes",
						"label": "string",
						"numberOfBytes": "32"
					},
					"t_struct(Product)18_storage": {
						"encoding": "inplace",
						"label": "struct XYZ.Product",
						"members": [
							{
								"astId": 3,
								"contract": "smartcontract.sol:XYZ",
								"label": "item",
								"offset": 0,
								"slot": "0",
								"type": "t_string_storage"
							},
							{
								"astId": 5,
								"contract": "smartcontract.sol:XYZ",
								"label": "desc",
								"offset": 0,
								"slot": "1",
								"type": "t_string_storage"
							},
							{
								"astId": 7,
								"contract": "smartcontract.sol:XYZ",
								"label": "productID",
								"offset": 0,
								"slot": "2",
								"type": "t_uint256"
							},
							{
								"astId": 9,
								"contract": "smartcontract.sol:XYZ",
								"label": "price",
								"offset": 0,
								"slot": "3",
								"type": "t_uint256"
							},
							{
								"astId": 11,
								"contract": "smartcontract.sol:XYZ",
								"label": "seller",
								"offset": 0,
								"slot": "4",
								"type": "t_address_payable"
							},
							{
								"astId": 13,
								"contract": "smartcontract.sol:XYZ",
								"label": "buyer",
								"offset": 0,
								"slot": "5",
								"type": "t_address_payable"
							},
							{
								"astId": 15,
								"contract": "smartcontract.sol:XYZ",
								"label": "offload",
								"offset": 20,
								"slot": "5",
								"type": "t_bool"
							},
							{
								"astId": 17,
								"contract": "smartcontract.sol:XYZ",
								"label": "delivered",
								"offset": 21,
								"slot": "5",
								"type": "t_bool"
							}
						],
						"numberOfBytes": "192"
					},
					"t_uint256": {
						"encoding": "inplace",
						"label": "uint256",
						"numberOfBytes": "32"
					}
				}
			},
			"userdoc": {
				"kind": "user",
				"methods": {},
				"version": 1
			}
		}
	}
}